:020000040800F2
:10000000301A00205DB500089DB50008411B0008AE
:10001000A1B50008A3B50008A5B5000800000000C0
:10002000000000000000000000000000A7B500086C
:10003000A9B5000800000000ABB5000873840008F3
:10004000AFB50008AFB50008AFB50008AFB5000800
:10005000AFB50008AFB50008AFB50008938E000833
:10006000AFB50008AFB50008AFB50008AFB50008E0
:10007000AFB50008AFB50008E9860008AFB50008C5
:10008000AFB50008AFB50008AFB50008AFB50008C0
:10009000AFB50008AFB50008AFB500089B8E0008EB
:1000A000AFB50008AFB50008AFB50008AFB50008A0
:1000B000B97F0008D57F0008AFB50008D57A0008E1
:1000C000F7760008E57A0008DD7A0008AFB5000889
:1000D000AFB50008AFB5000857890008AFB50008F4
:1000E0003D6F0008AFB50008AFB50008DFF80CD0D1
:1000F0000BF082FF00480047E5190008301A002085
:10010000F0B504460E461546B4FBF5F038B1B4FB25
:10011000F5F72A4631463846FFF7F2FF0646B4FBAC
:10012000F5F005FB1040FDA1085C3070701CF0BDBF
:1001300070B505460C461646022E01DB242E00DD66
:100140000A26002D09DA2D2020703246611C6842F3
:10015000FFF7D6FF0021017006E03246214628460F
:10016000FFF7CEFF00210170204670BD10B5F5A04D
:1001700008F0A5FB10BD2DE9F04105460C462F46C1
:10018000264630680BF0ABFA804631684246386844
:100190000BF0ADFABDE8F08110B50446EBA008F015
:1001A0008EFB012000F08FFEEFA008F088FB0A20F4
:1001B00008F08AF9002008F043FA10BD10B5044693
:1001C000EDA008F07CFB002000F048FEEDA008F058
:1001D00076FB0A2008F078F9002008F031FA10BD0B
:1001E00010B50446EBA008F06AFB2021EF480BF0A5
:1001F0004BFA0020EE490860EE4908702046FFF7F0
:10020000DDFF10BD2DE9F041054628460BF067FAE9
:10021000064600F0C8FF0746E6B9E7A008F04FFB26
:10022000002400BFE94850F8240000B90DE0012087
:10023000A040384204D0E54951F8240008F03FFBC3
:10024000202008F028FB641CECE700BFC5A008F0E4
:1002500036FB5BE03246DEA128460BF048FAC8B90F
:10026000DDA008F02CFB002400BFD84850F8240083
:1002700000B909E0D54951F8240008F020FB2020FE
:1002800008F009FB641CF0E700BFB6A008F017FBFC
:10029000BDE8F0814FF0000828782D2803D14FF0F9
:1002A00001086D1C761E002400BFC84850F82400C9
:1002B00018B9CFA008F003FB26E0C44850F824107A
:1002C000324628460BF013FAE0B9B8F1000F08D017
:1002D000012101FA04F000F060FFCCA008F0EFFA71
:1002E00007E0012101FA04F000F0E0FDCAA008F0E7
:1002F000E6FAB64951F8240008F0E1FA99A008F0AE
:10030000DEFA01E0641CD0E700BF00BF00BFBFE71A
:1003100070B505460024C3A008F0D1FA00BF1AE06A
:1003200004EB4401C54A52F8210008F0C8FA09203C
:1003300008F0B1FA04EB4401C04A02EB81014868BD
:1003400008F0BDFA87A008F0BAFA00BF08F080FAFA
:100350000028FBD0641C0A2CE2D370BDFEB5054614
:1003600028460BF0BCF90646082E20D1002404E0F4
:10037000285D0BF047F92855641C082CF8D300249D
:1003800010E0295DAE480BF0A1F930B1295D2A19C2
:10039000501C0BF09BF900B903E0AAA008F08FFAFB
:1003A000FEBD641C082CECD3284600F09DFCADA0DB
:1003B00008F085FA002406E0A148015DAF48005D21
:1003C0000DF80010641C082CF6D300200DF8040072
:1003D000684608F074FA63A008F071FA00BFDFE71E
:1003E00070B5064630460BF07AF9C5B27DB9A4A0C7
:1003F00008F065FAA1496D394978491EA44A52F8B6
:10040000210008F05CFA57A008F059FA70BD2A469E
:100410006FA130460BF06BF9C8B99EA008F04FFAF7
:10042000002400BF9A4850F8240000B90AE0984917
:1004300051F8240008F043FA202008F02CFA601C40
:10044000C4B2EFE700BF47A008F039FADEE70024A6
:1004500000BF8F4850F8240018B993A008F02FFA75
:100460001AE08B4850F824102A4630460BF03FF92A
:1004700078B9601C81496D39487091A008F01FFA65
:10048000834951F8240008F01AFA36A008F017FA48
:1004900002E0601CC4B2DCE700BF00BFB6E77FB576
:1004A00004460D4600262079052815D2DFE800F025
:1004B00003060A0D1100A06806780DE0A06890F907
:1004C000006009E0A068068806E0A068B0F9006056
:1004D00002E0A068066800BF00BF0A2269463046F5
:1004E000FFF726FE684608F0EAF9ADB149A008F02A
:1004F000E6F90A226946E068FFF71AFE684608F046
:10050000DEF944A008F0DBF90A2269462069FFF70A
:100510000FFE684608F0D3F97FBD0000303132335A
:100520003435363738394142434445464748494ACD
:100530004B4C4D4E4F505152535455565758595A93
:10054000000000000D0A23200000000052657365C2
:100550007474696E6720746F2064656661756C746D
:10056000732E2E2E0D0A00005265626F6F74696E35
:10057000672E2E2E00000000536176696E672E2EC6
:100580002E0000000D0A5265626F6F74696E672E4F
:100590002E2E00000D0A4C656176696E6720434C73
:1005A00049206D6F64652E2E2E0D0A001404002064
:1005B000000000205D020020456E61626C656420D1
:1005C00066656174757265733A2000004C00002006
:1005D0006C69737400000000417661696C61626C43
:1005E000652066656174757265733A2000000000CD
:1005F000496E76616C696420666561747572652008
:100600006E616D652E2E2E0D0A0000004469736127
:10061000626C656420000000456E61626C65642058
:1006200000000000417661696C61626C6520636F57
:100630006D6D616E64733A0D0A0000003CD40008D1
:100640002CDA00084D75737420626520616E792084
:100650006F72646572206F662041455452313233A7
:10066000340D0A0043757272656E7420617373698C
:10067000676E6D656E743A2000000000A1040020D2
:1006800043757272656E74206D697865723A2000E8
:1006900004000020417661696C61626C65206D69BF
:1006A000786572733A200000496E76616C69642047
:1006B0006D6978657220747970652E2E2E0D0A0092
:1006C0004D697865722073657420746F2000000096
:1006D0000279052A10D2DFE802F0030407080C00B3
:1006E00000BF8368197007E000BF0AB283681A80F0
:1006F00002E08268116000BF00BF70472DE9F0473B
:1007000080464FF00009002740460AF0E8FF054602
:100710002DB1012D28D198F800002A2824D1F5A068
:1007200008F0CDF800241CE004EB8400F74901EB4D
:10073000800604EB8401F54A52F8210008F0BFF866
:10074000F3A008F0BCF829463046FFF7A8FEAFF248
:10075000EC1008F0B4F800BF08F07AF80028FBD0DD
:10076000641C462CE0D353E0EAA140460AF098FF0F
:100770005FEA00094CD009F101096D1E48460AF0F4
:10078000CFFF074600243EE004EB8400DF4901EB85
:10079000800604EB8401DD4A52F821000AF09FFF35
:1007A000824604EB8400D94A52F820105246404653
:1007B0000AF09DFF30BB04EB8400D44901EB8000BC
:1007C000C068B84219DC04EB840001EB80000069CA
:1007D000B84212DB39463046FFF77AFF04EB84015A
:1007E000CA4A52F8210008F06AF8CBA008F067F86E
:1007F00000213046FFF753FE02E0CAA008F05FF880
:10080000BDE8F087641C462CBED3D0A008F057F892
:1008100000BFF5E72DE9FF410746D4A008F04FF8E7
:1008200007F043FE4FF47A71B0FBF1F60A226946F5
:100830003046FFF77DFC684608F041F8CFA008F08D
:100840003EF80A226946D2480078FFF771FC6846F4
:1008500008F035F8CFA008F032F80A226946D048EF
:100860000078FFF765FC684608F029F8CDA008F08D
:1008700026F800F086FC0546CEA008F020F80024FB
:1008800000BFD14850F8240000B90EE00120A0407C
:10089000284204D0CC4951F8240008F010F8202058
:1008A00007F0F9FF601CC4B2EBE700BF012000F0C5
:1008B00053FC48B1C5A008F002F8C649C64A1278F0
:1008C00051F8220007F0FBFFAFF2683007F0F7FFA6
:1008D000C2A007F0F4FF0A226946C4480088FFF767
:1008E00027FC684607F0EBFFC1A007F0E8FF07F020
:1008F000C4F906460A226946FFF71AFC684607F063
:10090000DEFFAFF2A03007F0DAFFBDE8FF8110B5DF
:100910000446BBA007F0D3FF10BD2DE9FF41C4483A
:10092000007838B90120C2490870C2A007F0C7FF9B
:10093000FFF71CFCCCE107F095FF0446092C01D021
:100940003F2C69D100260027C848D0F80080C84D48
:100950000FE0C648006838B1C44829680268C54835
:100960000AF0C5FE00B103E006B92E462F4600BFCF
:100970000C35BF4878308542EBD34EB300BFBB493E
:1009800030680968405CB94A39681268895C8842F5
:1009900000D01CE0B54930680968405C48B92021A6
:1009A000B24802680068401CB04B1860B1488154DE
:1009B0000DE0AE4930680968405CAE49AB4A126848
:1009C0008854AA480068401CA8490860D7E700BFBF
:1009D000A648006808B1BE4211D0A7A007F06FFF7B
:1009E000354606E0286807F06AFF092007F053FF44
:1009F0000C35BD42F6D9FFF7B9FB4FF0000806E011
:100A00009C4911F8080007F046FF08F101089748D3
:100A100000688045F4D35AE19448006830B9042C4A
:100A200004D19448FFF7DCFBBDE8FF810C2C05D115
:100A300093A007F044FFFFF799FB48E18B4800685B
:100A4000002836D00A2C01D00D2C32D10025AFF26F
:100A5000EC4007F034FF00208649844A126888542D
:100A6000084601900020029088480C230A22804901
:100A7000009001A80AF0CCFD05464DB128680AF0A7
:100A80002EFE7C490844461C3046A968884702E08F
:100A90007FA007F014FF202176480AF0F5FD002022
:100AA000724908606248007800B9BDE7FFF75EFB55
:100AB0000DE17F2C0ED16D480068C8B100216B4854
:100AC0000068401E694A10606A4A115479A007F014
:100AD000F6FEFCE065480068202809D2202C07DBE0
:100AE0007E2C05DC6148006818B9202C01D1EFE0AC
:100AF000EDE0E1E043757272656E742073657474A5
:100B0000696E67733A200D0A00000000B4D4000833
:100B1000203D20003D0000002073657420746F208C
:100B2000000000004552523A2056616C7565206104
:100B3000737369676E6D656E74206F7574206F6670
:100B40002072616E67650D0A000000004552523A3E
:100B500020556E6B6E6F776E207661726961626C84
:100B600065206E616D650D0A000000005379737495
:100B7000656D20557074696D653A2000207365635A
:100B80006F6E64732C20566F6C746167653A200039
:100B9000C0010020202A20302E31562028000000DD
:100BA00074010020532062617474657279290D0A02
:100BB0000000000044657465637465642073656EAD
:100BC000736F72733A200000800000204143434855
:100BD000573A200098000020120200204379636CED
:100BE000652054696D653A20000000004401002032
:100BF0002C20493243204572726F72733A200000F4
:100C00004166726F333220434C49207665727369B6
:100C10006F6E20322E30204175672020392032300F
:100C20003132202F2032323A35363A353200000048
:100C30005D0200200D0A456E746572696E6720437F
:100C40004C49204D6F64652C2074797065202765B0
:100C50007869742720746F2072657475726E2C2009
:100C60006F72202768656C70270D0A000000002055
:100C70003CD40008140400200D1B5B4B0000000056
:100C80001B5B324A1B5B313B314800007701000897
:100C90004552523A20556E6B6E6F776E20636F6DC2
:100CA0006D616E642C20747279202768656C7027E2
:100CB0000000000008200800094801680068401C86
:100CC000074A106007484454204607F0E4FD00BF7F
:100CD00007F0B1FD00287FF42EAE00BFA4E60000AF
:100CE000000000201404002070B5064634460CE0D5
:100CF0002178FE480AF0EAFC05462DB1A01BC1B2DE
:100D0000FA482A1AFA488154641C20780028EFD146
:100D100070BD70B5BC22F749F5486D380AF09BFCF0
:100D2000002419E0F2486D3890F8291004FB04F013
:100D30001938484300F6C4106043ED496D3991F805
:100D40002810484340F6C41190FBF1F000B2EA4984
:100D500021F81400601CC4B2062CE3DB002454E02C
:100D600004EB8402E24B6D3B93F82A30C3EB420064
:100D70000121002806DDDE4A6D3A92F82A20C2F1F0
:100D80006402D1B2002803DAD94A6D3A92F82A10E7
:100D9000D74A6D3A92F82B2000FB00F35A4301FB2F
:100DA00001F392FBF3F2D24B6D3B93F82B30C3F17E
:100DB00064031A4442430A2392FBF3F2CC4B6D3B8B
:100DC00093F82A300A2505FB032212B2CB4B23F8F5
:100DD0001420C74A6D3AB2F88820C54B6D3BB3F872
:100DE0008630D21AC54B33F914305A434FF47A7314
:100DF00092FBF3F2BE4B6D3BB3F886301A4412B24D
:100E0000BE4B23F81420601CC4B20B2CA8DBB848DE
:100E10006D38B0F89200B6496D39B1F89410884237
:100E200004DAB3486D38B0F8940012E0B0486D3879
:100E3000B0F89200AE496D39B1F89610884204DDE1
:100E4000AB486D38B0F8960003E0A9486D38B0F8AB
:100E50009200A7496D39A1F8920070BD70B50646A1
:100E60000AF057F934200AF062FBA2480AF08CF924
:100E7000042810D100240BE09D4A6D3A11599D4A77
:100E8000A0180AF020FA0546042D00D002E0241D27
:100E9000BC2CF1D300BF0AF048F9FFF73AFF26B1A6
:100EA000012214210F2001F04BFF70BD90496D39D4
:100EB000496801438E4A6D3A5160704700208C4961
:100EC0006D394860704770B505468A48067825B97F
:100ED0008B480078864200D170BD894800788449EB
:100EE0006D39087003204870FFF7E8FF0220FFF714
:100EF000DDFF00207E496D390881282088721E2080
:100F0000087517208877282179486D38C1721E210D
:100F100041751721C177552101732D21817500215C
:100F200080F82010102141730F21C175072180F82E
:100F300021100B2181730021017680F822101421E9
:100F4000C173082141762D2180F823100E210174F0
:100F500014218176502180F82410462141740A2101
:100F6000C176142180F82510282181740021C174D4
:100F7000417780F827105A205D496D3981F82800A3
:100F8000412081F82900002081F82C0081F82D00F3
:100F900081F82E00322081F82A00002081F82B00F1
:100FA000002406E0002152481F3820F81410601C6D
:100FB000C4B20E2CF6DB00204D496D39C8870021E4
:100FC0004B486D38A0F84010002049496D3908861B
:100FD000002147486D3841868186002044496D399B
:100FE000888781F84200042081F843004FF4C870DC
:100FF000A1F846002A20A1F84400012081F84C0005
:10100000404888646E2081F86A002B2081F86B00CC
:10101000212081F86C003CA0FFF766FE00203449D7
:101020006D3981F8750081F87600142081F8770019
:10103000002081F8780040F2DC50A1F87A0040F2FC
:101040004C40A1F87C0040F26C70A1F87E000020BA
:1010500081F880000A2081F88100C82081F8820090
:101060004FF49660A1F8840040F27E40A1F886001B
:1010700040F23A70A1F888004FF47A70A1F88A0023
:101080004FF4C870A1F88C003220A1F88E00012026
:1010900081F8900040F2DC50A1F892004FF47F708C
:1010A000A1F894004FF4FA60A1F896000A2081F8A4
:1010B000980081F89900012081F89A004FF47F7020
:1010C000A1F89C004FF4FA60A1F89E0040F2DC50B9
:1010D000A1F8A0004FF47F70A1F8A2004FF4FA60CD
:1010E000A1F8A40040F2DC5014E000002CDA000863
:1010F000A104002000FC0108E4050020F005002008
:10110000B0000020031414004145545231323334EE
:1011100000000000A1F8A6004FF41650C1F8A80086
:10112000C820A1F8AC00142081F8AE001E2081F880
:10113000AF00012081F8B0006420A1F8B2004FF4A4
:101140009670A1F8B4004FF4E130C1F8B800002067
:10115000FFF784FE00BFBFE601461448006808425E
:1011600001D0012070470020FCE7104909680143C5
:101170000E4A116070470D49096881430B4A11609E
:1011800070470A48006870470146094840680842AD
:1011900001D0012070470020FCE7054949688143E0
:1011A000034A51607047024840687047AC00002015
:1011B0003404002070B5FC4800880AF0ABFC0546FA
:1011C000FA490AF012FB04460AF0A9FC00B2F849F9
:1011D00008800420FFF7C0FF08B103F060FB70BD7A
:1011E0002DE9F04104460D46294620460BF044F90E
:1011F0000746F0490AF0F9FA06460AF090FC00B2F8
:10120000BDE8F0812DE9FE4304460D4694E8070051
:101210008DE80700019968680AF0E7FA0746009927
:1012200028680AF0E2FA804639460AF086FA06464D
:10123000A1680AF0D7FAA0600199A8680AF0D5FA67
:101240000746029928680AF0D0FA804639460AF023
:10125000C6FA064621680AF070FA20600099A8686C
:101260000AF0C3FA0746029968680AF0BEFA804697
:1012700039460AF062FA064661680AF05EFA606072
:10128000BDE8FE832DE9FF5F002507F0F8F806466C
:10129000C9490968701A0AF03DFC8046C7490AF03E
:1012A000A4FA0746C448066000245FE0C44931F947
:1012B00014000AF026FC804639460AF096FA01A985
:1012C00041F82400BF4890F8430000283CDDBD49A8
:1012D00091F843000AF01EFC834659464FF07E50B9
:1012E0000AF0B9FA8246B84931F914000AF009FC4B
:1012F000514600900AF079FA8046B24991F84300CD
:101300000AF008FC014600904FF07E500AF0A3FA64
:1013100083464FF07E510AF065FA8246AB4850F89A
:10132000241050460AF061FA814641460AF005FA57
:10133000A64941F8240051F824000AF0F0FB00B25D
:10134000A34921F8140005E09F4830F81400A04993
:1013500021F814009E4830F914009D4931F9141009
:1013600000FB01550420FFF7F7FE641C032C9DD3FE
:10137000642068438C490988494390FBF1F501A931
:101380009448FFF73FFF0420FFF7E6FE18B101A9DC
:101390009148FFF737FF8E48B0F90000002803DDC1
:1013A0008B48B0F9000003E08948B0F900004042E2
:1013B0007F49B1F9001088421ADA8548B0F9020075
:1013C000002803DD8248B0F9020003E08048B0F94C
:1013D000020040427649B1F90010884208DA7C48A0
:1013E000B0F90400002803DD01207C49487302E0C5
:1013F00000207A494873242D01DDC42D02DB774893
:10140000407B90B300242EE06E49B1F846000AF00C
:1014100081FB83464FF07E510AF08FF98246514698
:101420004FF07E500AF017FA8046694931F91400EE
:101430000AF067FB63490090B1F846000AF06AFBC6
:101440008346644850F8241058460AF0CEF9824684
:1014500000990AF072F9814641460AF0C6F95D49E1
:1014600041F82400641C032CCED30420FFF774FE43
:10147000D8B1002417E05A4931F914000AF041FBB1
:101480008146554951F8240056490AF0AEF9824682
:1014900049460AF052F9804653490AF0A6F94E49E6
:1014A00041F82400641C032CE5D34A4A9168106873
:1014B000FFF796FE4D490880464A91685068FFF74D
:1014C0008FFE4A4948800420FFF746FE00285BD083
:1014D000414A91683F4A50680AF087F982463E4A7D
:1014E00051683C4A90680AF080F9834651460AF0F8
:1014F00076F98046384A1168364A90680AF075F9DC
:101500008246354A9168334A10680AF06EF983467C
:1015100051460AF064F981464146FFF761FE3449BD
:1015200008800846B0F900000AF0EBFA814631481D
:10153000016848460AF001F980460AF0F0FA00B264
:101540002B4908800846B0F900000A2190FBF1F011
:1015500000B2274908800846B0F90000B42806DD2B
:1015600008460088A0F5B47000B208800CE020485E
:10157000B0F9000010F1B40F06DA1D48008800F53C
:10158000B47000B21A490880BDE8FF9F1FB5012062
:10159000FFF7E2FD18B103F06FF8FFF773FE03F0F9
:1015A00061F9002437E00000100200207593D83E56
:1015B000B40000204C3D0F44E80000205344923119
:1015C000FC00002034040020020100200805002057
:1015D00008010020F0040020FC040020D4050020B5
:1015E0000E010020000048435E06A33BCC00002013
:1015F00058020020BC000020CD4830F8140002A999
:1016000021F814000120FFF7A7FD18B90020C949EF
:1016100021F81400641C032CEED306F030FFC649F9
:10162000086001F0B7FB06F02AFFC3490968401AB9
:1016300040F28A21884206D9C0480088401C00B286
:10164000BE49088009E000BF06F019FFBA490968E1
:10165000401A40F28A218842F6D303F003F90024AD
:1016600027E0B34830F8140002A931F814100844F8
:1016700000B22DF814003DF91400B14931F91410ED
:101680000844032190FBF1F000B2AE4921F81400A8
:101690003DF9140000EBD0714910A94A22F814104A
:1016A0000120FFF759FD18B90020A24921F81400C4
:1016B000641C032CD5D34020FFF766FD70B3A2480D
:1016C000007858B9A148806C000C9F4908709F4869
:1016D000806C000A48709D48806C887000241AE075
:1016E000984830F914109A4830F914209648005D53
:1016F000401E02FB0010401C9349095D90FBF1F075
:1017000000B2904921F81400084630F814009049BE
:1017100021F81400641C032CE2D315E08B484078B8
:10172000012811D18748B0F904108A48B0F90000A7
:1017300001EB4000032190FBF1F000B28149888069
:1017400008468088834908801FBD30B5824B1B68DE
:10175000824C2468A34200D230BD7F4B1B6846F206
:10176000A81423447D4C23607D4B7E4C246833F9C0
:1017700014207D4B1B680A2493FBF4F31BB2784CB6
:10178000784D2D6824F815302346764C246833F9BB
:101790001430764C24682344744C2360714B1B68CE
:1017A00014332824B3FBF4F504FB15316C4B33F9E7
:1017B00011306E4C2468E31A6C4C2360684B33F98B
:1017C00011306B4C24682344694C236023461B680A
:1017D0009B1A2360634B1B685B1C624C236023468F
:1017E0001B68282B01D3002323600023614C238036
:1017F000564B93F821305D4C24685D4D2D68641B79
:101800006343282493FBF4F05A4B1B881B1A1BB22A
:10181000584C2380554B1B6803EB83035B00142457
:1018200093FBF4F3544C2360544B1B682468181B3F
:10183000002801DD034600E043420A2B11DA4D4B3C
:10184000B3F90030002B03DD4A4BB3F9003003E05D
:10185000484BB3F900305B420A2B02DA0023454CB7
:1018600023803A4B5C7B5B7B5B005B42834204DD05
:10187000364B5B7B5B005B4209E0344B5B7B5B0080
:10188000834203DA314B5B7B5B0000E003465C4341
:10189000642394FBF3F3374C248823441BB2354C68
:1018A00023802346B3F9003013F1960F02DA6FF06C
:1018B000950309E02F4BB3F90030962B01DD9623F9
:1018C00002E02C4BB3F900302A4C23801F4BDB7D08
:1018D0004343322493FBF4F3294C248823441BB262
:1018E000274C23802346B3F90030264CA34201DA6B
:1018F00023460BE0224BB3F9003047F23054A342A9
:1019000001DD234602E01E4BB3F900301C4C23805E
:101910002346B3F900304FF4FA7493FBF4F0154BFF
:101920001B8803441BB2134C238000BF14E7000044
:10193000FC00002002010020D80000204601002009
:10194000D0000020C0000020DE0000203404002071
:10195000E2000020DC0000203C010020EC00002020
:1019600014050020F000002014010020F4000020E5
:10197000F8000020B60000201C01002020010020FB
:10198000B8000020D08AFFFF70B57148007808B118
:10199000022000E00020054606F048FD401BC6B2CC
:1019A00010206C4908602C4607E06B48B0F888109E
:1019B000204606F02CFD601CC4B2B442F5DB40F6B4
:1019C000B83006F081FD2C4606E04FF47A712046CF
:1019D00006F01DFD601CC4B2B442F6DB042006F024
:1019E00004FE70BD1CB506F07BFDFFF792F90020E8
:1019F000FFF769FA5849D1F8B80003F0FBF907205E
:101A0000FFF7B3FB00F0BAF80120FFF7BDFB8DF83C
:101A100001000820FFF7B8FB80F001008DF80000FE
:101A20004B48007808B1012000E000208DF802004A
:101A3000494890F89A00C0F3C0008DF8030046486A
:101A4000B0F88C00ADF804004348B0F88E00ADF853
:101A50000600684606F083FB08B1FFF795FF3F4894
:101A60003F49086010203B4908600820091F0860B2
:101A700000241DE037480838006880F01000354920
:101A8000083908600846006880F0080008601920DE
:101A900006F01AFD4FF4805032490860192006F014
:101AA00013FD4FF480502F49091F0860601CC4B219
:101AB0000A2CDFDB08202749091F08601020086076
:101AC00002F0AAFBFFF776FB0220FFF75DFB08B1EF
:101AD00002F077FC0820FFF757FB28B104F0ABFDBC
:101AE00021481F49086014E00120FFF74DFB80B139
:101AF0004FF48070FFF748FB20B11749D1F8A800D8
:101B000004F0B1FC4FF48060FFF73EFB08B103F036
:101B10008DF806F0B4FC154908600F484078052898
:101B200003D14FF4C870124908804FF47A701149FC
:101B3000088001201049487301E001F034FCFCE703
:101B40000549B1F88A1008B200F0AAF800BFFEE714
:101B500025010020140C014034040020B732000895
:101B60005C010020140801406D660008400100205F
:101B70000C0200200E020020D405002010B5F94808
:101B8000407804280BD0F7484078012807D0F54862
:101B90004078052803D0F3484078082802D1012076
:101BA000F14908702020FFF7EFFA10B10120EE494B
:101BB0000870EC48407812282DD2DFE800F02C1590
:101BC000191A110920210D1B222627282C2C2C1C28
:101BD0000020E64908701EE00120E44908701AE080
:101BE0000220E249087016E00320E049087012E084
:101BF00000BF00BF00BF0420DC4908700BE000BF3D
:101C000000BF0620D949087005E000BF00BF0820CA
:101C1000D649087000BF00BF10BD10B5D24800788B
:101C200000B910BDCF484078012803D0CD48407896
:101C3000042810D1CE48008981B2002006F0E7FBCD
:101C4000C8484078042812D1C948408981B201208F
:101C500006F0DDFB0BE0C648008881B2002006F0EC
:101C6000D6FBC348408881B2012006F0D0FB00BFFC
:101C7000D7E770B50025BC48007800B102250024E4
:101C800009E0BC4A32F8142091B26219D0B206F0D1
:101C9000BEFB601CC4B2B54800788442F1DB70BD65
:101CA00070B50546002404E0B24820F81450601CCA
:101CB000C4B2AE4800788442F6DBFFF7DAFF70BDAD
:101CC000F8B5AA48007803284DDDAB48B0F90410F8
:101CD000AA48B0F90400002803DDA848B0F90400C0
:101CE00003E0A648B0F9040040426FF06302101A06
:101CF000814210DAA148B0F90400002803DD9F48B2
:101D0000B0F9040003E09D48B0F9040040426FF0D0
:101D10006301081A24E09848B0F904109748B0F914
:101D20000400002803DD9548B0F9040003E093485F
:101D3000B0F904004042643081420EDD8F48B0F9B2
:101D40000400002803DD8D48B0F9040003E08B484F
:101D5000B0F904004042643002E08748B0F9040062
:101D600000B2854988807F48407812287ED2DFE81B
:101D700010F07D00920007014B011200FF05D50114
:101D800063027D009A01F302A303400407057D006E
:101D90007D007D00C4057948C188774800880844E3
:101DA00000B2744908807548C0887349098849425F
:101DB000084400B26F4948806A4890F990006E4923
:101DC000B1F90410484300F2DC506B49B1F902103C
:101DD0000844B0F57F7F02DA4FF47F701FE061485E
:101DE00090F990006449B1F90410484300F2DC50C6
:101DF0006149B1F902100844B0F5FA6F02DD4FF401
:101E0000FA600CE0574890F990005B49B1F9041072
:101E1000484300F2DC505849B1F90210084400B2BE
:101E2000534908814F4890F990005349B1F9041083
:101E3000484300F2DC505049B1F90210401AB0F5A5
:101E40007F7F02DA4FF47F7021E0464890F99000DE
:101E50004949B1F90410484300F2DC504649B1F950
:101E60000210401AB0F5FA6F04DD00E073E24FF49F
:101E7000FA600CE03B4890F990003F49B1F904103A
:101E8000484300F2DC503C49B1F90210401A00B25C
:101E9000374948815FE23848B0F9020080000321E9
:101EA00090FBF1F03549C988084400B231490880F7
:101EB0003148B0F9020040004042032190FBF1F1AB
:101EC0002E48C0882C4A128852421044084400B25E
:101ED000284948802848B0F90200400040420321C8
:101EE00090FBF1F12548C28823480088104408443B
:101EF00000B2204988801B48B0F89200194991F936
:101F000090101D4AB2F9042001FB02001549B1F8F6
:101F10009410884203DA1348B0F894001EE0114888
:101F2000B0F892000F4991F99010134AB2F90420C9
:101F300001FB02000B49B1F89610884203DD094805
:101F4000B0F896000AE00748B0F89200054991F908
:101F50009010094AB2F9042001FB020000B20449C2
:101F6000088197E734040020250100202401002087
:101F70002601002064050020D6010020C4010020B5
:101F8000FE48C0880146FE4840880144FD4890F95B
:101F90009000FB4A928850434042084400B2FA49FC
:101FA0000880F648C088F649098849420844014635
:101FB000F44890F99000F24A928800FB021000B2B7
:101FC000F1494880ED48C188ED4800880844014641
:101FD000EC4890F99000EA4A928800FB021000B2A7
:101FE000E9498880E548C088E54949884942014473
:101FF000E44890F99000E24A9288504340420844F5
:1020000000B2E149C88045E7DC48C088DC4909885E
:1020100049420144DA4840880144DA4890F9900086
:10202000D74A928850434042084400B2D6490880BB
:10203000D248C088D249098849420844D0494988D1
:1020400049420144CF4890F99000CD4A928800FB64
:10205000021000B2CC494880C848C188C8480088EE
:102060000144C74840880144C64890F99000C44ADA
:10207000928800FB021000B2C3498880BF48C18823
:10208000BF4800880844BE49498849420144BD48C8
:1020900090F99000BA4A928850434042084400B2F6
:1020A000B949C880F6E6B548C0880146B4484088BA
:1020B0000144B44890F99000B14A9288504340429C
:1020C000084400B2B0490880AC48C088AC490988CF
:1020D00049420844AA4949884942084400B2AA49E9
:1020E0004880A648C0880146A54840880144A548C4
:1020F00090F99000A24A928800FB021000B2A24917
:1021000088809E48C1889E48008808449C49498828
:102110004942084400B29C49C880BBE69848B0F9DF
:1021200002008000032190FBF1F09449C98801442A
:10213000944890F99000924A928800FB021000B2F5
:10214000914908808E48B0F90200400040420321C6
:1021500090FBF1F08949C988894A1288524211449A
:102160000144884890F99000854A92885043404243
:10217000084400B2844948808148B0F90200400018
:102180004042032190FBF1F27C48C1887C480088E2
:10219000084411187B4890F99000794A928850437E
:1021A0004042084400B2784988807548B0F902007E
:1021B0008000032190FBF1F07049C9880144714807
:1021C00090F990006E4A928850434042084400B211
:1021D0006D49C8806A48B0F90200400040420321BE
:1021E00090FBF1F06549C988654A12885242114452
:1021F0000144644890F99000614A928800FB021003
:1022000000B2614908815E48B0F9020040004042D6
:10221000032190FBF1F15948C288594800881044C5
:102220000144584890F99000554A928800FB0210EA
:1022300000B2554948818EE0514AB2F9002051421E
:1022400001EBD1724D4BDB8803EB62034C4AB2F9D0
:10225000020000EBD07203EB62034A4A92F990202D
:10226000474EB68802FB063212B2474B1A80444AE8
:10227000B2F90020514201EBD172404BDB8803EBF5
:1022800062023F4BB3F90230584200EBD07302EBCD
:1022900063033C4A92F99020394EB6887243524209
:1022A0001A4412B2384B5A80354AB2F9001001EB89
:1022B000D172324BDB8803EB6203314AB2F9020080
:1022C00000EBD07203EB62032E4A92F990202C4E61
:1022D000B68802FB063212B22B4B9A80284AB2F91A
:1022E000001001EBD172254BDB8803EB6202244B1B
:1022F000B3F90230584200EBD07302EB6303214A7A
:1023000092F990201E4EB688724352421A4412B27D
:102310001D4BDA801948C08819494988494201444F
:10232000184890F99000164A928800FB021000B2FB
:10233000194608811148C088014611484088014467
:10234000104890F990000E4A928850434042084449
:1023500000B219464881AEE30948B0F90000800098
:102360004042052190FBF1F00449C9880844044922
:10237000B1F9021001EBC1010A2207E0C4010020FB
:10238000D6010020340400206405002091FBF2F106
:102390000144F74890F99000F64A928800FB021039
:1023A00000B2F5490880F348B0F9000080004042CF
:1023B000052190FBF1F0F149C9880844ED49B1F9D4
:1023C0000210494201EBC1010A2291FBF2F10144E2
:1023D000E74890F99000E74A928800FB021000B2AB
:1023E000E5494880E348B0F900008000052190FBF2
:1023F000F1F0E249C9880844DE49B1F9021001EB65
:10240000C1010A2291FBF2F10144D94890F99000F0
:10241000D84A928850434042084400B2D649888046
:10242000D448B0F900008000052190FBF1F0D349B9
:10243000C9880844CF49B1F90210494201EBC101F2
:102440000A2291FBF2F10144C94890F99000C94A6F
:10245000928850434042084400B2C749C880C548EA
:10246000B0F9000080004042052190FBF1F0C34923
:10247000C98808440146BE4890F99000BD4A928838
:1024800050434042084400B2BB490881B948B0F902
:1024900000008000052190FBF1F0B849C98808448C
:1024A0000146B34890F99000B24A928800FB0210AE
:1024B00000B2B1494881FEE2B048C088AD49098800
:1024C00049420144AB4840880144A94890F9900032
:1024D000A84A928850434042084400B2A649088066
:1024E000A648C088A349098849420844A1494988A7
:1024F000494201449E4890F990009E4A928800FB10
:10250000021000B29C4948809C48C18899480088C4
:102510000144984840880144954890F99000954AB4
:10252000928800FB021000B2934988809348C188CA
:102530009048008808448F494988494201448C48A2
:1025400090F990008B4A928850434042084400B270
:102550008949C8808948C088864909884942014418
:10256000844840880144824890F99000814A9288CA
:1025700000FB021000B2804908818048C0887D4974
:102580000988494208447B494988494201447848BE
:1025900090F99000774A928850434042084400B234
:1025A000754948817548C18872480088014471485E
:1025B000408801446E4890F990006E4A92885043DA
:1025C0004042084400B26C4988816C48C18869481F
:1025D000008808446749498849420144644890F9A1
:1025E0009000644A928800FB021000B26249C881E0
:1025F00061E26048B0F90000C0EBC0000A2190FB26
:10260000F1F05E49C98808445A49B1F90210A1EBBA
:10261000C1010A2291FBF2F10144554890F9900062
:10262000544A928800FB021000B253490880514876
:10263000B0F90000A0EBC0000A2190FBF1F04F4977
:10264000C98808444B49B1F90210A1EBC1010A2223
:1026500091FBF2F10144464890F99000454A928876
:1026600000FB021000B2444948804248B0F9000023
:10267000A0EBC0000A2190FBF1F04049C988084452
:102680003C49B1F90210C1EBC1010A2291FBF2F100
:102690000144374890F99000364A928800FB0210B6
:1026A00000B2354988803348B0F90000C0EBC00063
:1026B0000A2190FBF1F03149C98808442D49B1F94C
:1026C0000210C1EBC1010A2291FBF2F1014428483A
:1026D00090F99000274A928800FB021000B2264928
:1026E000C8802648C0882349498849420144204877
:1026F00090F990001F4A928850434042084400B22B
:102700001D4908811D48C0881A4909884942084462
:102710000146174890F99000164A9288504340426B
:10272000084400B2144948811448C0880146114841
:10273000408801440E4890F990000E4A9288504318
:102740004042084400B20C4988810C48C1880948BD
:10275000008808440146064890F99000054A92888E
:1027600050434042084400B20349C881A3E100003D
:1027700034040020D601002064050020C40100209C
:10278000FE49CA88FE4909881144FD4AB2F902206F
:10279000504200EBD07201EB6202FA4991F99010BD
:1027A000F74B9B8801FB032109B2F74A1180F449DA
:1027B000B1F90010484200EBD071F04AD28802EB28
:1027C0006101EF4A528852420A44EE4991F9901051
:1027D000EB4B9B8801FB032109B2EB4A5180E7498F
:1027E000C988E74A128852420A44E549B1F9020011
:1027F00000EBD07102EB6102E24991F99010E04BDD
:102800009B8801FB032109B2DF4A9180DC49B1F9C1
:10281000000000EBD071D94AD28802EB6102D8499E
:1028200049880A44D74991F99010D54B9B8801FB00
:10283000032109B2D44AD180D149B1F9000000EB9B
:10284000D071CE4AD28802EB6101CD4A5288524201
:102850000A44CC4991F99010C94B9B88594349428D
:10286000114409B2C84A1181C449C988C44A1288AE
:1028700052421144C24AB2F90220504200EBD072D7
:1028800001EB6202BF4991F99010BD4B9B885943FF
:102890004942114409B2BC4A5181B949B1F9001009
:1028A000484200EBD071B54AD28802EB6102B449CC
:1028B00049880A44B34991F99010B14B9B88594318
:1028C0004942114409B2B04A9181AC49CA88AC4925
:1028D00009880A44AA49B1F9020000EBD07102EB61
:1028E0006102A84991F99010A54B9B885943494230
:1028F000114409B2A44AD181DDE0A048C088014654
:102900009F48408801449F4890F990009C4A9288D3
:1029100000FB021000B29C4908809848C088984982
:10292000098849420844964949884942084400B206
:10293000954948809148C0880146914840880144A3
:10294000904890F990008E4A928850434042084443
:1029500000B28D4988808948C18889480088084428
:10296000874949884942084400B28749C880A2E0A3
:10297000844B93F99830854EB6F9026003FB06F25A
:10298000D31702EB13737F4EB6F8A06006EB231348
:102990007A4EB6F9026033447A4EB6F89C60B34280
:1029A00003DA784BB3F89C3030E0764B93F99830EB
:1029B000764EB6F9026003FB06F1CB1701EB1373F9
:1029C000704EB6F8A06006EB23136C4EB6F90260A9
:1029D00033446C4EB6F89E60B34203DD694BB3F8E6
:1029E0009E3013E0674B93F99830684EB6F9026059
:1029F00003FB06F0C31700EB1373624EB6F8A0603A
:102A000006EB23135D4EB6F9026033441BB2604EF1
:102A100033805C4B93F999305C4EB6F9006003FB50
:102A200006F2D31702EB1373564EB6F8A66006EB08
:102A30002313524EB6F900603344524EB6F8A260EA
:102A4000B34203DA4F4BB3F8A23030E04D4B93F969
:102A500099304E4EB6F9006003FB06F1CB1701EB3F
:102A60001373484EB6F8A66006EB2313434EB6F92F
:102A700000603344434EB6F8A460B34203DD414BDB
:102A8000B3F8A43013E03F4B93F999303F4EB6F9B9
:102A9000006003FB06F0C31700EB1373394EB6F862
:102AA000A66006EB2313354EB6F9006033441BB223
:102AB000374E738000BF00BF2020FEF765FB002863
:102AC0006DD0002000902F4890F89A0010F0010F70
:102AD00005D12C4890F89A0010F0020F08D02D482C
:102AE00080892849B1F87A10401A80B2ADF8000008
:102AF000244890F89A0010F0040F08D12548C089A6
:102B00002049B1F87A10401A80B2ADF802001D4891
:102B1000B0F8A000BDF80010084400B21C490880BD
:102B20001848B0F8A600BDF80210084400B21849D1
:102B300048801948C07888B3124991F99810134A0F
:102B4000B2F9022001FB02F0C11700EB1171104A2B
:102B5000128802EB211109B20D4A1180094991F93D
:102B600099100A4AB2F9002001FB02F0C11700EBEC
:102B70001171074A528802EB211111E0C4010020B3
:102B8000D60100203404002064050020CC00002081
:102B9000260100204C0100200606002003E03FE053
:102BA00009B2614A51806048B0F900005F49B1F84C
:102BB0009C10884203DA5D48B0F89C000EE05A4849
:102BC000B0F900005949B1F89E10884203DD57481A
:102BD000B0F89E0002E05448B0F9000000B252493B
:102BE00008800846B0F902005049B1F8A2108842A6
:102BF00003DA4E48B0F8A2000EE04B48B0F90200EC
:102C00004A49B1F8A410884203DD4848B0F8A4004E
:102C100002E04548B0F9020000B24349488000BFD5
:102C2000424890F89A0010F0080F0DD0002409E0F7
:102C3000221D3F4B33F8122091B2A21DD0B205F0F5
:102C4000E6FB641C042CF3D33A48B0F9005001248D
:102C500008E0384830F91400A84202DD354830F960
:102C60001450641C344800788442F2D3002455E0A8
:102C70002E48B0F88800A8420BDA2E4830F814002D
:102C80002A49B1F88810691A401A00B2294921F876
:102C90001400284830F914002449B1F886108842FD
:102CA00003DA2248B0F886000EE0224830F914001A
:102CB0001E49B1F88810884203DD1C48B0F888002E
:102CC00002E01C4830F9140000B21A4921F814003F
:102CD0001748B0F906001549B1F87C10884212DA9D
:102CE0001020FEF751FA38B91048B0F8860000B24B
:102CF000104921F8140006E00C48B0F88A0000B230
:102D00000C4921F814000D48407830B90748B0F854
:102D10008A0000B2074921F81400641C06480078B4
:102D20008442A5D3F8BD0000260100203404002011
:102D30004C0100206405002024010020D40500205F
:102D40002DE9F04104460D46164600271EE04FF0DF
:102D5000000814E0FE48006880F00800FC490860A4
:102D60008814FC490860284605F0AEFB4FF48050FB
:102D7000F849091F086008F1010000F0FF08A045AC
:102D8000E8DB3C2005F0A0FB781CC7B2B742DEDBD5
:102D9000BDE8F0812DE9F04F87B04FF00008EE4814
:102DA000B0F9060040F2DC51884201DA64271CE0E9
:102DB000E948B0F90600B0F5FA6F10DAE74890F884
:102DC0002E00E549B1F90610A1F2DC5148434FF459
:102DD000FA7190FBF1F0C0F16400C7B205E0DF4882
:102DE00090F82E00C0F16400C7B20024BFE0DA48BA
:102DF00030F91400D949B1F87A10401A002807DDDB
:102E0000D54830F91400D549B1F87A10401A06E0D7
:102E1000D248B0F87A00D04931F91410401AB0F510
:102E2000FA7F18DACC4830F91400CC49B1F87A109E
:102E3000401A002807DDC84830F91400C749B1F826
:102E40007A10401A09E0C548B0F87A00C24931F951
:102E50001410401A01E04FF4FA7085B2022C40D0F1
:102E6000BE4890F8750058B1BC4890F87500A8426B
:102E700005DABA4890F87500281A85B200E00025F6
:102E8000642095FBF0F086B2B549701C31F9100052
:102E900031F91610401A06EBC60101EB0611A5EB3D
:102EA00081014843642190FBF1F0AD4931F81610DF
:102EB000084400B2AB4921F81400A84890F82C004F
:102EC00068434FF4FA7190FBF1F0C0F1640000F038
:102ED000FF0A0AFB07F0642190FBF1F000F0FF0A03
:102EE0001FE09E4890F8760058B19C4890F8760014
:102EF000A84205DA994890F87600281A85B200E0D1
:102F0000002528B2974921F81400944890F82D0024
:102F100068434FF4FA7190FBF1F0C0F1640000F0E7
:102F2000FF0A8E480A30005D00FB0AF0642190FB26
:102F3000F1F08D49085589481E30005D00FB0AF00C
:102F4000642190FBF1F089490855834830F9140059
:102F50008249B1F87A10884207DA824830F81400C2
:102F6000404200B27F4921F81400601CC4B2032C17
:102F7000FFF63DAF7848B0F906007849B1F87C100B
:102F8000884203DA7548B0F87C000BE07248B0F96B
:102F90000600B0F5FA6F02DD4FF4FA6002E06E4809
:102FA000B0F9060085B26D48B0F87C00281A4FF4DD
:102FB0007A7148436949B1F87C10C1F5FA61B0FBF8
:102FC000F1F085B2642095FBF0F086B26849701C80
:102FD00031F9100031F91610401A06EBC60101EB69
:102FE0000611A5EB81014843642190FBF1F0604993
:102FF00031F81610084400B25A49C8805D48407A3A
:10300000002855D05C49B1F900105C4AB2F90020A3
:10301000881A08F076FD5A49029008F0E6FB8346CC
:10302000584908F018FC0690069809F04FFB0590E7
:1030300006980AF001F904904A49B1F9000008F035
:1030400060FD0090049908F0D0FB83464549B1F932
:10305000020008F056FD0090059908F0C6FB59469D
:10306000019008F06AFB029008F059FD00B203904D
:103070003C49B1F9020008F044FD0090049908F0C1
:10308000B4FB38490290B1F9000008F03AFD009015
:10309000059908F0AAFB0190029908F0A0FB83466D
:1030A00008F03DFD00B22F4908800398488000BF1A
:1030B0000220FEF769F8E8B333480078401CC0B23C
:1030C00031490870062190FBF1F201FB120060BB50
:1030D00003F06BFE2D4991F800B00978491C2B4A8A
:1030E00011704FEAEB710BEB5171C910ABEBC101E1
:1030F000274A22F811004FF0000909E0244830F86F
:10310000190040441FFA80F809F1010000F0FF099E
:10311000B9F1080FF2DBC3464FEAE87108EB5171D1
:10312000C81001F030F91B4908701A4800781A4994
:10313000098800E037E0884206DC084890F86C0017
:103140001449097888422BDD0020144908702AE0D0
:103150000C0C0140140801404C01002034040020F4
:10316000E4050020C4010020CC010020D201002091
:10317000F0050020D405002058020020BE010020E8
:10318000DB0F4940000034437D0100207E01002018
:1031900074050020C0010020080200207C010020EE
:1031A0000420F7490870F648007803F052FBF54810
:1031B0000088002803DD0120FDF7CEFF18B9F24892
:1031C0000088002806DDF148006880F00800EF491B
:1031D00008601BE0EE48C07818B10820EB49091DD3
:1031E0000860EB48407818B10820E84908310860C9
:1031F0004FF40060FDF7C8FF40B1E549497809B1D7
:10320000012100E00021084603F00AFD8020FDF7BF
:10321000BBFF70B1DF480068DF490968884208D900
:10322000DC4800684CF250310844DB49086005F086
:10323000C7FBD8480068D9490968884215D9D448DD
:10324000407B78B90020D249C870D048006880F02F
:103250000800CE490860CF480068D1490844CF49EA
:10326000086002E00120CA49C87002F0C3F81020CB
:10327000FDF772FFA8B1C7480068CA4909688842CB
:103280000FD9C948007805280BDBC2480068C74938
:103290000844C4490860BD48006880F01000BB497C
:1032A0000860C348C06818B1C148C168C1488847B0
:1032B00007B0BDE8F08F70B50546BF49485D05F021
:1032C000AFF8044640F2EE20844203DB40F6CA0029
:1032D000844203DDB8486D38B0F87A40204670BDAE
:1032E00070B5B6480078401CB4490870002457E017
:1032F0002046B3490968884700B2B0490E78F117F3
:1033000006EB91718910A6EB8101AE4A02EBC40273
:1033100022F811000020AC4921F8140000250EE02D
:10332000A84800EBC40030F81500A74931F8141084
:10333000084400B2A44921F81400681CC5B2042D49
:10334000EEDBA14931F91410881CC11700EB917113
:1033500089109D4A22F81410104630F914109B4829
:1033600030F91400C01E814207DA104630F814000C
:10337000801C00B2954921F81400934830F91410CC
:10338000924830F91400C01C814207DD8E4830F8A5
:103390001400801E00B28D4921F81400601CC4B2D4
:1033A000082CA5DB70BD2DE9F04F89B000200790F7
:1033B00003F059F908B1FFF793FF76480068844994
:1033C000096888427ED97348006844F62061084441
:1033D0007F4908600820FDF7D7FE08B9FFF780FF96
:1033E0004FF40070FDF7D0FE002854D072486D38BD
:1033F00090F8810000EB80007649B1F90010884216
:1034000031DA6348407870B3002509E06A486D38C6
:10341000B0F87A0000B26D4921F81500681CC5B2F9
:10342000032DF3DB64486D38B0F8840000B26749BF
:10343000C88061486D3890F881005F496D3991F816
:103440008210084400EB80006249B1F90010884204
:1034500003DA00204E49487008705F480088401C1D
:1034600000B25D49088054486D3890F8810000EB47
:1034700080005849B1F90010884206DA4448407883
:1034800018B9002042494870087052480088401C12
:1034900000B2504908804D48B0F9060046496D39E0
:1034A000B1F87C1088426ADA00204C4908804880D4
:1034B00088804B49088048804A480078401C494928
:1034C000087000E03CE34148B0F904003A496D3926
:1034D000B1F87C1088421CDA3C48B0F90200364949
:1034E0006D39B1F87C10884213DA2948407880B9E8
:1034F0003C48007814280BD14FF47A702249088098
:103500004FF48070FDF740FE002801D002F0C3FFA9
:10351000A2E10420FDF738FE80B31D48407868BB67
:103520002A48B0F9040024496D39B1F87C1088426A
:103530006FDA2648B0F902001F496D39B1F87E10E4
:10354000884266DD2148B0F900001B496D39B1F8A9
:103550007E1088425DDD234800781428D8D12248A7
:10356000008830B100202049088001201F490880D0
:1035700072E11F480088E8BB01203DE049E0BDE062
:103580007C0100200C0200200E0200200C0C0140E7
:10359000D40500203C01002080010020780100209B
:1035A00020A1070084010020F4010020F04902005E
:1035B00048060020C2010020A1040020880100204C
:1035C0005C01002084050020C40500204C0100207F
:1035D000A8010020480100204A0100209C01002091
:1035E000A2010020890100206E010020700100204E
:1035F00006020020FFE70020FE49088008460088F8
:1036000018B10220FC49087026E10320FA4908702D
:1036100022E1FA48B0F85800002818DDF84840794F
:1036200058B1F848007840B10120F6494870F64892
:10363000B0F90000F549088005E0F248407810B183
:103640000020F04948700020F149087004E1F14879
:10365000B0F90400E949B1F87C1088420CDBE74876
:1036600090F88000012812D1EA48B0F90000E3493F
:10367000B1F87C1088420ADAE248407838B1E44870
:1036800000781428C0D10020DE494870E4E0E14809
:10369000B0F90400D949B1F87E1088420CDCDD484D
:1036A000B0F90000D549B1F87E10884222DDD34838
:1036B00090F8800001281DD1D648B0F90200CF490A
:1036C000B1F87E10884215DACE48407890B9D248D9
:1036D000008878B9CB48C07860B1CD48007814280C
:1036E00092D10120C7494870C748B0F90000C749C6
:1036F0000880B1E00020C6490870ADE0C548B0F9C7
:103700000600BE49B1F87E10884220DDBD484078F1
:1037100000281CD1BF48B0F90400B849B1F87C10AA
:10372000884215DABB48B0F90200B449B1F87C1000
:1037300088420DDAB6480078142803D14FF4C870D7
:10374000B6490880B2480078401CB149087083E04F
:10375000B048B0F90400A949B1F87E10884214DDE0
:10376000AC48B0F90200A549B1F87C1088420CDAE7
:10377000A7480078142802D10120A2498873A448E0
:103780000078401CA249087066E0A248B0F9020027
:103790009A49B1F87E10884211DD9848B0F840008F
:1037A000801C01B29548A0F840100120FDF756FB9F
:1037B0008020FDF7E9FC98B305F08BF94CE09548C3
:1037C000B0F902008D49B1F87C10884211DA8B48BB
:1037D000B0F84000801E01B28848A0F840100120D7
:1037E000FDF73CFB8020FDF7CFFCC8B105F071F977
:1037F00032E08848B0F900008049B1F87E10884274
:103800000FDD7E48C08F801C00B27C49C887012034
:10381000FDF724FB8020FDF7B7FC08B105F059F94E
:103820001AE07C48B0F900007449B1F87C10884275
:103830000FDA7248C08F801E00B27049C88701201D
:10384000FDF70CFB8020FDF79FFC28B105F041F946
:1038500002E000206E4908700420FDF795FC10B3CB
:103860006448008898B16748407880B16948B0F9E9
:1038700006006249B1F87C10884208DD6048407952
:1038800028B932206649088000205A4908805C48DF
:10389000007A48B16348008828B96348008810B9A5
:1038A00032205F4908800BE05F48008840B15548EE
:1038B000407828B900205C49088001205B490880D5
:1038C00000253BE0281D534931F9100040F2145106
:1038D000884201DA012000E0002005EB4501884024
:1038E000291D4C4A32F9111040F21452914209DD5F
:1038F000291D484A32F9111040F2A462914201DABE
:10390000012100E0002105EB4502521C91400843D3
:10391000291D404A32F9111040F2A462914201DDA2
:10392000012100E0002105EB4502921C9140084373
:103930000799084380B20790681CC5B2042DC1DB0B
:1039400000250EE02D484E3030F81500079908404C
:10395000002801DD012000E0002029494855681CAD
:10396000C5B20E2DEEDB2648007848B9234890F802
:10397000810000EB80002E49B1F9001088420EDA78
:103980000120FDF7E9FB50B11E48007950B9002035
:1039900028490880488001201A49087102E0002067
:1039A000184908711648407910B901201549087066
:1039B0001448007918B110201F49086003E0102056
:1039C0001D49091F08600220FDF7C6FBF0B30C4833
:1039D0004078E0B30B488079C0BB01200949887169
:1039E00016480068164908601648C08816490880BD
:1039F00000202DE0060200203801002034040020C1
:103A000006060020D405002058020020BE01002038
:103A1000890100204C0100200E0200200C02002031
:103A20006C010020720100206E0100207001002056
:103A300048010020A2010020140C01401C010020BC
:103A400020010020C4010020AC01002008E004E0B7
:103A5000FE490880FE49088002E00020FD49887187
:103A60000420FDF779FB30B3FB48807858B1F94862
:103A7000407958B90120F7494871F848B0F9000079
:103A8000F749088002E00020F2494871F248407A84
:103A900030B1F048407A30B90120EE49487202E076
:103AA0000020EC494872EC48407B20B1EB48B0F96B
:103AB0000000EC4908801020FDF74EFB88B3E54874
:103AC000C07A70B3E848007805282EDBE248807998
:103AD00068B1E048C07968B90120DE49C871E3499E
:103AE000081F02F014FD0220E149087002E00020E6
:103AF000D849C871D848C079A0B1D648007A80B9F1
:103B00000120D4490872DB480068DB490860D948C5
:103B100040684860091D081F02F0F9FC0120D449E3
:103B2000087002E00020CB490872CB48007A18B137
:103B30000120C84988723FE00020C64988723BE0F6
:103B4000CE4991F900000978491C49B2CB4A11705D
:103B5000C11700EB91718910B0EB810106D00129EA
:103B60000BD0022910D0032921D114E00420FDF745
:103B7000F3FA08B100F05AFF1DE00220FDF7ECFA5D
:103B800008B100F085FD16E00220FDF7E5FA08B166
:103B9000FDF7DBFD0FE00820FDF7DEFA30B101F0A4
:103BA00050F8B748B0F90000B649888003E000201B
:103BB000B249087000BF00BF04F061FCB249086060
:103BC000B248008928B108460068B14909688842AE
:103BD0007ED9AE480089AC4909680844AC49086000
:103BE000FDF7D4FC04F04BFCA749086008460068C8
:103BF000A8490968401AA8490880A3480068A5494F
:103C000008600420FDF7A8FA88B3A448B0F90400BE
:103C1000002803DDA148B0F9040003E09F48B0F993
:103C200004004042462823DA8A48407900B38B4991
:103C300009888B4A1288891A08B210F1B40F02DC85
:103C400000F5B47108B2B42802DBA0F5B47108B273
:103C50008049497B59B18D49897C41431E2291FBA2
:103C6000F2F18E4A9288511A09B28C4A918004E08E
:103C70007A48B0F900007A4908800220FDF76CFA12
:103C800038B37448807920B38448B0F90600844979
:103C9000B1F90010401A002807DD8048B0F906008D
:103CA0007F49B1F90010401A06E07C48B0F90600DF
:103CB0007B49B1F90010081A142802DD002065497B
:103CC00088717748008862490988084400B201E099
:103CD00077E201E07149C8801020FDF73DFA002825
:103CE0000AD05C48C07910B95A48007A10B15948D6
:103CF000007B10B902F0E8FB43E15848B0F900003E
:103D000007F0FFFE6749039007F06FFD049009F08C
:103D100093FA06905148B0F9000007F0F2FE6149AD
:103D2000039007F062FD049008F0D0FC059057481E
:103D300090F8AF00F0B35C49B1F902105B4AB2F9F8
:103D40000220881A01F052FC504991F8AF10494204
:103D5000884204DA4D4890F8AF0040421AE05249D8
:103D6000B1F90210514AB2F90220881A01F03EFC62
:103D7000464991F8AF10884203DD444890F8AF00FF
:103D800008E04949B1F90210484AB2F90220881AFC
:103D900001F02CFC45494988084400B24349488059
:103DA0004149B1F90010414AB2F90020881A01F0E6
:103DB0001DFC00E0A2E0354991F8AF10494288426D
:103DC00004DA324890F8AF0040421AE03649B1F9BF
:103DD0000010364AB2F90020881A01F007FC2B497E
:103DE00091F8AF10884203DD284890F8AF0008E052
:103DF0002D49B1F900102D4AB2F90020881A01F0BE
:103E0000F5FB2A490988084400B228490880B1F91D
:103E1000000007F076FE0090069907F0E6FC2349C3
:103E20000290B1F9020007F06CFE0090059907F0CE
:103E3000DCFC0190029907F0D2FC1D49039007F0C9
:103E40000AFD049007F06BFE00B233E0B8000020DA
:103E5000B6000020D40500200606002058020020ED
:103E60005A020020BE010020F4010020E8010020D9
:103E70006A010020DC010020EC010020B4010020D8
:103E800018010020B60100203C010020340400206D
:103E9000B00100204001002044010020C4010020A6
:103EA000AC01002035FA8E3CFE0100200202002009
:103EB00000002041C4490880C449B1F9000007F05E
:103EC00020FE0090059907F090FCC0490290B1F9DE
:103ED000020007F016FE0090069907F086FC01909C
:103EE000029907F02AFCBA49039007F0B4FC049049
:103EF00007F015FE01B2B448418041E0B549B1F97F
:103F0000000007F0FEFD0090069907F06EFCB14935
:103F10000290B1F9020007F0F4FD0090059907F056
:103F200064FC0190029907F05AFCA949039007F03C
:103F300092FC049007F0F3FD00B2A3490880A54964
:103F4000B1F9000007F0DDFD0090059907F04DFC88
:103F5000A0490290B1F9020007F0D3FD0090069944
:103F600007F043FC0190029907F0E7FB98490390A2
:103F700007F071FC049007F0D2FD00B2924948802E
:103F800000BF002414E194480079E8B3022C7CDAE5
:103F9000924830F914008C4931F91410C1EB4000FB
:103FA00010F5FA7F01DA8E4815E08C4830F91400DC
:103FB000854931F91410C1EB4000B0F5FA7F02DDFC
:103FC0004FF4FA7007E0854830F914007E4931F962
:103FD0001410C1EB4000834931F81410411A824893
:103FE00030F81400084406B27F483E38407C7043E5
:103FF000642190FBF1F007B27B483E3890F8250031
:10400000404200EB800000E03FE0B84207DD764828
:104010003E3890F82500404200EB80000FE07248E7
:104020003E3890F8250000EB8000B84206DA6E4872
:104030003E3890F8250000EB800000E03846074647
:104040006A4830F9140030446949884201DA084668
:104050000DE0664830F91400304442F21071884295
:1040600001DD084603E0614830F91400304400B235
:104070005E4921F81400084630F914005A493E39C7
:10408000C97E48430013089050E0544830F91400AA
:1040900000EB8000010154483438005D91FBF0F8DA
:1040A000544830F81400A8EB00000FFA80F84B4891
:1040B00030F91470504830F91400404410F57A5F1C
:1040C00001DA4E480DE04C4830F914004044B0F598
:1040D0007A5F02DD4FF47A5003E0474830F914006C
:1040E000404400B2444921F81400424830F9140019
:1040F000002803DD3F4830F9140003E03D4830F963
:1041000014004042B0F5207F03DD00203A4921F839
:104110001400394830F914007D2190FBF1F1324848
:104120002A38005D4143881100B20890314931F9C5
:104130001410334A125D51430A2291FBF2F0C11769
:1041400000EB5171A7EBE1010FB22A4830F81400DF
:104150002C4931F81410401A0FFA80F9254830F82C
:104160001400284921F81400274830F81400274982
:1041700031F81410084448440FFA80FA224830F805
:104180001400224921F814001F4820F814902048F8
:10419000005D00FB0AF040110FFA80FB08983844DC
:1041A000A0EB0B0000B21B4921F81400601CC4B244
:1041B000032CFFF6E8AEFDF783FDFDF72EFDFDF7BE
:1041C00058FD09B0BDE8F08F620100200202002016
:1041D00000002041FE010020D4050020C401002081
:1041E0000CFEFFFFCC00002072040020A201002082
:1041F000F0D8FFFFC00000209C01002080C1FFFF1D
:10420000CC0100208A0100209001002096010020AE
:10421000D2010020D60100202DE9F84F002600270A
:10422000FE4890F84C20FE49FE4804F02CFD08B1F1
:1042300001260CE0FA4804F024FF08B1012706E04B
:10424000F74803F0AEFD10B9032004F0CEF900BF2B
:10425000F24890F8420030B1012805D0022819D068
:10426000032837D128E000BF00208DF800004FF46C
:104270004870ADF80200EB49684602F033FE10B119
:104280000120E9490870E54890F84200012800D172
:1042900020E000BF7EB1E14890F84C20E049E148C1
:1042A00004F0F1FC0220E0490870DC4890F842007C
:1042B000022800D10EE000BFDA4804F09AFD40B1B8
:1042C0000320D9490870D54890F84200032800D14E
:1042D00000E000BF00BFD448007860B9CF4890F834
:1042E0004200002804DD0020CC4981F84200AFE7FD
:1042F0000120FCF740FF0120FCF72EFF10B1C94957
:104300000868804704F03BFF10B90220FCF733FF38
:10431000C3490868804703F071F810B90420FCF71E
:104320002AFF2FB1BD49B1F8440004F0C3FE05E0F7
:1043300026B9BA49B1F8440003F04BFDB748B0F9CB
:104340003C00642190FBF1F004B2B448B0F93C00A9
:1043500090FBF1F201FB1205284607F0D2FB8346E1
:10436000B24907F042FA8146204607F0CAFB82466E
:10437000494607F0E2F98046AD4907F036FAAD4903
:104380000860BDE8F88F2DE9F0470446A34991F88D
:104390006A0007F0BFFB8046204607F0BBFB814662
:1043A000A54907F022FA0746A44907F054FA064641
:1043B000414607F01AFA054607F0CAFB80B2BDE88D
:1043C000F08770B50025002406E002F0EEFC0544FD
:1043D0000A2004F079F8641C202CF6D3C5F34F10A2
:1043E000FFF7D1FF0546022407E08C4890F86B00E8
:1043F0006043A84200D902E0641C062CF5D300BF3C
:104400008F490C70854890F86C0060438D49088096
:1044100070BD10B58C480088002851DD00241CE0D8
:1044200089480088B0F5C87F03D10020874941F84A
:104430002400864850F82400854931F914100844B6
:10444000824941F824000020814921F8140000210C
:104450007248303020F81410641C032CE0DB7A48DA
:104460000088012827D1794800684FF4C87190FB73
:10447000F1F000B269490886744840684FF4C87189
:1044800090FBF1F001B265484186704880684FF4B6
:10449000C87190FBF1F06F490988401A01B25F487A
:1044A000818600205D49C88700215C48A0F8401043
:1044B0000120FCF7D3FC64480088401E6249088054
:1044C0000420FCF761FE00287ED063480088322873
:1044D00011D15248008E614908805048408E488072
:1044E0004E48808E88804D48C08F5D4908804B487B
:1044F000B0F84000488058480088002846DD002475
:104500001BE055480088322803D10020554941F866
:104510002400544850F824004D4931F9141008443F
:10452000504941F824000020494921F81400002195
:104530003A48303020F81410641C032CE1DB464864
:10454000008801281DD100204749088001204749E3
:104550000880022046490870404800882F49088694
:104560003E4841882D4841863C4881882B488186B9
:104570003B4800882949C887394841882748A0F81E
:10458000401035480088401E33490880394800886B
:10459000012829D10020374908803248006832219B
:1045A00090FBF1F000B21D4908862E484068322188
:1045B00090FBF1F001B2194841862A488068322107
:1045C00090FBF1F0234900E00EE00988401A01B2A7
:1045D0001248818600201149C88700210F48A0F8A1
:1045E00040100120FCF73AFC194800880B49098E5D
:1045F000401A00B216490880084641880748408E94
:10460000081A00B212494880084681880348808E03
:10461000081A00B20E49888010BD00003404002042
:104620004806002038060020120200208988883CB5
:1046300000002041BC0000203333534000F07F4590
:1046400074010020080200200C0200201406002043
:1046500002010020100200206C0100202E02002028
:104660003402002020060020720100206E0100208C
:10467000380100207001002010B5FE484168FE4856
:104680008847FC488168FC488847FFF7C2FE10BD98
:104690002DE9FE4FF9480068F9490968884201D2BE
:1046A000BDE8FE8FF5480068F5490860F5480078D8
:1046B00030B1012813D0022819D0032854D125E0A5
:1046C00004F066FDEF480078401CEE490870EC48A5
:1046D000006842F210710844E949086044E004F0BF
:1046E00079FDE8480078401CE64908703CE004F099
:1046F00056FDE4480078401CE2490870E048006834
:1047000042F210710844DE4908602DE004F04EFDCD
:1047100004F074FD0290029807F0F3F9DA49009072
:1047200007F099F8019007F046FA80464FF00052E2
:10473000D64B08F08BF806460022D54B07F06EF9F1
:1047400004460022D34B07F06CF9824607F014FAB6
:10475000D14908600020CB490870C948006800F5BD
:104760007A60C749086000BF00BF00BF98E710B576
:10477000CA480088002837DD00242EE0C74800889A
:10478000B0F57A7F03D10020C54941F82400C44820
:1047900050F82400C34931F914100844C04941F8C5
:1047A00024000020BF4921F81400BF4921F814005B
:1047B000BA48008801280FD1B94850F824004FF4B6
:1047C0007A7190FBF1F000B2B74921F81400012290
:1047D0000F210A20FEF7B4FA641C032CCEDBAF488D
:1047E0000088401EAD490880002438E0AD4830F80C
:1047F0001400AD4931F81410401A00B2A94921F84B
:104800001400084630F91410A84830F91400A0F537
:104810004870814205DAA54830F91400A0F54870C7
:1048200012E0A04830F91410A04830F9140000F547
:104830004870814205DD9D4830F9140000F548704C
:1048400002E0984830F9140000B2964921F81400AB
:10485000084630F81400954921F81400641C032C14
:10486000C4DB10BD10B5924841688E488847904817
:1048700081688C488847FFF77AFF10BD10B58D48D6
:1048800002F00EFE8B4800888B490880894880889A
:10489000488088484088404200B2888010BD2DE999
:1048A000FF5F602600250024002740F2FE2840F22A
:1048B000C929DFF808A202F0C0FD00208049086085
:1048C000486088606FE06D1C304602F0C3FD6420D4
:1048D00003F0FAFDFFF7D2FF0A2003F0F5FD764959
:1048E000B1F9000007F00DF98346404607F012F9D0
:1048F0005946009006F0AFFF20F0004001906E494D
:10490000B1F9020007F0FDF88346484607F002F9C6
:104910005946009006F09FFF20F000400290664943
:10492000B1F9000007F0EDF88346484607F0F2F8C9
:104930005946009006F08FFF20F000400390614937
:10494000019807F059F92ED25F49019807F04AF90A
:1049500029D25C49029807F04FF924D25A490298AB
:1049600007F040F91FD25749039807F045F91AD2CA
:104970005549039807F036F915D2641C504A01993D
:10498000106806F0DAFE4E4908604D4A02995068F8
:1049900006F0D3FE4A494860494A0399906806F0F8
:1049A000CCFE474988601FB9142D01D2052C8AD34B
:1049B000052C2ED3204607F0ADF883464049086801
:1049C000514606F012FF5946009006F044FF3C495C
:1049D0000860204607F09EF88346394948685146EA
:1049E00006F003FF5946009006F035FF3449486051
:1049F000204607F08FF8834631498868514606F013
:104A0000F4FE5946009006F026FF2D4988600127E4
:104A100005E04FF07E502A4908604860886002F047
:104A20002EFD012029490870BDE8FF9F70B513488D
:104A3000006827490968884200D270BD0F480068A5
:104A40002449084422490860FFF718FF1A49B1F9C0
:104A5000000007F056F8064619480168304606F08F
:104A6000C4FE054607F05BF800B213490880B1F9AF
:104A7000020031E038060020020100203C01002045
:104A8000140200201802002080E6C547965BC83F4C
:104A90000000F03F1AE95041140100200E020020EE
:104AA0002C060020FC000020C60000203802002058
:104AB000480600203E0200200E01002059021B3F44
:104AC000200200203333333F6666A63F2C020020CD
:104AD00044020020A086010007F013F806465B4858
:104AE0004168304606F081FE054607F018F800B22E
:104AF00057494880B1F9040007F003F806465348C7
:104B00008168304606F071FE054607F008F800B2ED
:104B10004F4988804F48807BD8B14F4800684F4943
:104B20000860002410E000214D4820F81410484887
:104B300030F814004B4921F81400454830F81400AF
:104B4000494921F81400641C032CECD3002041498E
:104B5000887346480078D0B13D48008840493639CE
:104B6000C98E401A00B23A490880084641883C483C
:104B70003638008F081A00B23549488008468188C7
:104B800037483638408F081A00B231498880334898
:104B90000068002848D03048006830490968401A49
:104BA0003349884227D23348006880F008003149F1
:104BB000086000241CE0264830F91400294931F926
:104BC0001410884205DA224830F81400254921F8EB
:104BD00014001F4830F91400234931F91410884299
:104BE00005DD1B4830F814001F4921F81400641C2F
:104BF000032CE0D318E000201849086000240EE0E0
:104C0000184931F91410184A32F91420881800EBA9
:104C1000D07149100AB2124921F81420641C032CE7
:104C2000EED30120FCF71AF900BF06E710B501200A
:104C300004F037F90820FCF798FA00200E490880A4
:104C400010BD10B50C4804F098F910BD20020020EA
:104C50000E010020D405002044020020480200205C
:104C60006A0400204C020020520200202C02002086
:104C700080C3C9010C0C01401801002010B5044686
:104C8000FE490C700846007803F005FEFC480078E9
:104C9000FA4909784840FA490870200AF74908702B
:104CA0000846007803F0F7FDF5480078F3490978E5
:104CB0004840F3490870200CF04908700846007815
:104CC00003F0E9FDEE480078EC4909784840EC49EA
:104CD0000870200EE94908700846007803F0DBFDF3
:104CE000E7480078E54909784840E549087010BD73
:104CF00010B50446E3490C700846007803F0CBFD7C
:104D0000DF480078DF4909784840DD490870200A0B
:104D1000DC4908700846007803F0BDFDD8480078EB
:104D2000D84909784840D649087010BD10B50446E6
:104D3000204603F0B0FDD24800786040D0490870AA
:104D400010BDD14801780078401CCF4A1070CF4880
:104D5000405C704700B5FFF7F4FF0346FFF7F1FF33
:104D600003EB002083B2184600BD10B5FFF7F2FF39
:104D70000446FFF7EFFF04EB0044204610BD70B57A
:104D800004460D462420FFF7D1FF4D20FFF7CEFF4C
:104D90000CB1212100E03E210846FFF7C7FF0020AB
:104DA000B74908702846FFF7C1FFB9480078FFF7F8
:104DB000BDFF70BD10B5044621460020FFF7DFFFA0
:104DC00010BD10B5044621460120FFF7D8FF10BDE5
:104DD00010B5AB480078FFF7A9FF10BD70B50546C8
:104DE0002C4603E02078FFF7A1FF641C2078002800
:104DF000F8D170BD10B50446204603F088FC10BD04
:104E00002DE9F041A2480078732879D00DDCA0F19B
:104E100064000F2875D2DFE800F0BED1FDFCFBFA7C
:104E2000F9F8F7F6F5F4F3F2F100CC287DD010DCB8
:104E3000C8281DD006DC742874D0752873D0762855
:104E40005FD166E2C92822D0CA2842D0CB28F7D148
:104E500059E0D02868D006DCCD287DD0CE287CD083
:104E6000CF28EDD193E0FA2878D0FE28E8D19AE255
:104E7000002406E0FFF76EFF00B2864921F8140017
:104E8000641C082CF6D30020FFF794FF9DE2FFF787
:104E900058FF8149C872FFF754FF80490870FFF737
:104EA00064FF7F490860FFF760FF7D494860FFF7B6
:104EB00051FF7C490880FFF74DFF7B4908807B4804
:104EC000007840F00200794908700020FFF772FF77
:104ED0007BE200240EE0FFF734FF75490855FFF729
:104EE00030FF73490A310855FFF72BFF7049143121
:104EF0000855641C0A2CEED30020FFF75BFF64E228
:104F0000FAE15EE211E0002406E0FFF723FF6849C2
:104F1000443121F81400641C0E2CF6D30020FFF756
:104F200049FF52E2D3E1D9E120E2FFF70AFF6049ED
:104F30000A3981F82800FFF704FF5D490A3981F832
:104F40002900FFF7FEFE5A490A3981F82C00FFF7C5
:104F5000F8FE57490A3902E00FE216E21CE281F836
:104F60002D00FFF7EEFE52490A3981F82E00FFF7B7
:104F7000E8FE4F490A3981F82A00FFF7E2FE4C4962
:104F80000A3981F82B000020FFF714FF1DE20020F2
:104F9000FFF710FF19E20720FFF70CFFD220FFF701
:104FA000C5FE43490A394878FFF7C0FE0020FFF7E5
:104FB000BDFE4FF00040FFF761FE06E20A20FFF75A
:104FC000F9FE3C48008800B2FFF792FE02F055FE61
:104FD00006B23046FFF78CFE0120FCF7BDF807460D
:104FE0000220FCF7B9F847EA40070420FCF7B4F8C0
:104FF00047EA80071020FCF7AFF80CE075E156E1B6
:105000003DE115E109E100E1E7E0D2E0B3E0A4E031
:1050100095E086E063E047EAC0070820FCF79CF8CB
:1050200047EA00163046FFF763FE1B4909791A4A22
:10503000927941EA4201184A527941EA8201164ABC
:10504000527841EA42111C4AD27841EAC2011A4A16
:10505000127941EA0211104AD27941EA82110E4ACC
:10506000127A41EAC2110C4A527A41EA42210A4AB2
:10507000927A41EA0221104A927A1FE05E020020F1
:10508000630200205F020020640200205806002016
:10509000650200204C010020D4050020F40100200E
:1050A000DC010020FA010020FC010020600100204A
:1050B0003E040020440100200606002041EA82212F
:1050C000FE4AD27A41EAC221FC4A127B41EA02310D
:1050D000FA4A527B41EA4230FFF7D0FD75E11220D7
:1050E000FFF768FE002405E0F54931F91400FFF7E9
:1050F000FFFD641C032CF7D3002405E0F14931F9CE
:105100001400FFF7F5FD641C032CF7D3002405E021
:10511000ED4931F91400FFF7EBFD641C032CF7D3C4
:1051200053E11020FFF746FE002405E0E74931F97E
:105130001400FFF7DDFD641C082CF7D345E11020B7
:10514000FFF738FE002405E0E14931F91400FFF7CC
:10515000CFFD641C082CF7D337E11020FFF72AFE9F
:10516000002405E0DB4931F91400FFF7C1FD641CA0
:10517000082CF7D329E10E20FFF71CFED649C87A88
:10518000FFF7D4FDD5480078FFF7D0FDD449086873
:10519000FFF774FDD2494868FFF770FDD1480088D9
:1051A00000B2FFF7A5FDD048008800B2FFF7A0FDD0
:1051B0000BE10520FFF7FEFDCC48008800B2FFF7A9
:1051C00097FDCB48B0F90000FFF792FDC949097877
:1051D00001F00100FFF7AAFDF7E00820FFF7EAFD64
:1051E000002405E0C44931F91400FFF781FD641C77
:1051F000022CF7D3C148B0F90000FFF779FDC04891
:10520000B0F90000FFF774FDDFE00420FFF7D2FDE6
:10521000BC480068FFF732FDD7E00320FFF7CAFD66
:10522000B9480078FFF782FD0020FFF761FDCCE070
:105230000720FFF7BFFDB54991F82800FFF776FD7D
:10524000B24991F82900FFF771FDB04991F82C009F
:10525000FFF76CFDAD4991F82D00FFF767FDAB49F5
:1052600091F82E00FFF762FDA84991F82A00FFF798
:105270005DFDA64991F82B00FFF758FDA5E01E2023
:10528000FFF798FD00240FE0A0490A31085DFFF701
:105290004DFD9E491431085DFFF748FD9B491E31C5
:1052A000085DFFF743FD641C0A2CEDD38DE01C2044
:1052B000FFF780FD002407E094494E3131F81410C7
:1052C00008B2FFF715FD641C0E2CF5D37DE06320BA
:1052D000FFF770FD8E48FFF781FD76E02F20FFF786
:1052E00069FD8C48FFF77AFD6FE00220FFF762FD51
:1052F0000020FFF7FDFC68E00820FFF75BFD0024BD
:1053000004E0601CC0B2FFF711FD641C082CF8D348
:105310005BE0FFF716FD05460C20FFF74BFD8DB94E
:105320000020FFF703FD7C490868FFF7A7FC7A49D6
:105330004868FFF7A3FC0020FFF7DAFC0020FFF726
:10534000F5FC12E0102D10D11020FFF7EFFC73498F
:105350000868FFF793FC71494868FFF78FFC00204D
:10536000FFF7C6FC0020FFF7E1FC2EE00120FBF771
:10537000AAFD0020FFF71EFD27E04FF4C870684922
:1053800008800020FFF716FD1FE0012052498873B6
:105390000020FFF70FFD18E00020FBF75FFD002065
:1053A000FFF708FD11E00820FFF704FD002405E0E9
:1053B0005C4931F91400FFF79BFC641C042CF7D303
:1053C00003E00020FFF7FDFC00BF00BFFFF700FD7A
:1053D000BDE8F08110B50446232C02D0522C07D131
:1053E00002E0FBF79AFA03E0012003F029F900BF7D
:1053F00000BF10BD10B54C48007810B1FBF78DFA16
:1054000010BDCDE003F02EFA04464848007870B98C
:10541000242C01D1012000E00020444908700846F6
:105420000078002802D12046FFF7D4FFB7E03F48BC
:105430000078012807D14D2C01D1022000E0002086
:105440003A490870ABE039480078022807D13C2C73
:1054500001D1032000E00020344908709FE0334868
:10546000007803281AD1402C03DD00202F49087052
:1054700096E02F48047000202E4908702E490870CD
:105480002E4908702C48007860402B490870042091
:105490002649087001202A49087080E023480078D6
:1054A000042851D1274804702348007860402249DD
:1054B000087005201D49087071E0000006060020F4
:1054C00008010020C00000200E010020260100205D
:1054D000640500204C010020D4050020F4010020C8
:1054E000DC010020FA010020FC010020F601002070
:1054F000F801002060010020CC00002058020020AC
:10550000BE0100201C010020C00100203404002046
:1055100035DA000899DA0008E4010020EC010020E7
:105520000C020020B60100205D0200206202002073
:10553000610200206002002063020020640200205B
:105540005C0200206502002021480078052813D164
:10555000204800782049097888420DDA1F480078F1
:1055600060401E4908701B4801780078401C194AA9
:1055700010701B48445412E01548007805280ED1DD
:105580001448007814490978884208DB13480078E9
:10559000A04201D1FFF734FC00200D49087000BF84
:1055A00003F049F900287FF42DAF0E48007868B960
:1055B00003F041F950B94FF40060FBF7E5FD28B165
:1055C0000948407810B101F03FFB19E700BF17E729
:1055D00062020020600200206102002063020020BD
:1055E000580600205D020020D405002044F25061DE
:1055F000884201DDA0EB4100FA49884202DA48F610
:10560000A0410844704700B5F7480068F7490968A9
:10561000421A1046FFF7EAFF0246002A01DD104653
:1056200000E0504242F21071884201DD012000BDCD
:105630000020FCE7014608687047016070472DE9CB
:10564000FE4F04460E4615461F466168701A06F066
:1056500058FA8046296806F0FEF82061A1682069A2
:1056600006F0BDF8E249029091F8AE0006F052FA59
:10567000E049009006F0B9F8014601904FF07E50E5
:1056800006F0E9F88346296806F057F88246514645
:10569000286806F0E0F88146029906F0A6F88046F0
:1056A000A16806F04AF8206166602069A06021695F
:1056B000B86806F09AF8804606F031FABDE8FE8F29
:1056C0002DE9F04704460E4617461D46304606F0C3
:1056D00018FA8246696806F088F88146396806F04B
:1056E00084F88046216806F028F82060E86880F099
:1056F00000484046216806F07FFA04D2E86880F04E
:105700000040206006E0E968206806F075FA01D2E2
:10571000E8682060206806F002FABDE8F0872DE90D
:10572000F04180460C461546204606F0EAF9074649
:10573000296806F05AF8064606F0F1F9BDE8F0814E
:1057400048F6A041884200DD401A002802DA48F6F7
:10575000A041084470472DE9F041A3490968A34AD4
:105760001268881AFFF742FF002807DD9E49096882
:105770009E4A1268881AFFF739FF07E09A490968BC
:105780009A4A1268881AFFF731FF404241F2941199
:1057900088423DDA94490968944A1268881A06F0EA
:1057A000B0F90546944906F020F804469349086884
:1057B00006F0B0F90646204607F03EFD07463146A2
:1057C00006F013F8054606F0AAF900B28C490880E5
:1057D0000846B0F900008B49884201DA08460BE020
:1057E0008748B0F9000040F6B831884201DD08462C
:1057F00002E08348B0F900007B4909680844824907
:10580000086008460068FFF79BFF7F49086003E0D7
:10581000754800687C490860BDE8F0812DE9FC47C7
:105820000546FFF798FF7849096842F22832501A76
:1058300006F067F90746704905F0D7FF064630467F
:1058400006F044FF0190304607F0F6FC009000247B
:1058500081E06E4931F9140006F053F9814628467B
:1058600006F04FF982465DF8241005F0BEFF804631
:10587000494605F0B4FF074606F051F900B2644905
:1058800021F81400084630F9140010F57A7F01DA87
:1058900060480BE05E4830F91400B0F57A7F02DD15
:1058A0004FF47A7002E05A4830F91400584921F850
:1058B00014000A4632F9141004EB8402564B03EB31
:1058C0008200564AFFF72BFF0746514A32F914105F
:1058D00004EB8402504B03EB8200504B504AFFF71D
:1058E000EFFE07444A4A32F9141004EB84024A4B93
:1058F00003EB8200494B4A4AFFF7A1FE384400B24D
:10590000484921F81400084630F914003D498842FE
:1059100001DA08460BE0434830F9140040F6B8318C
:10592000884201DD084602E03E4830F914003D4956
:1059300021F8140004EB8401374A02EB8100FFF7E1
:1059400079FE074604EB8401374A02EB81003946B1
:10595000FFF773FE641C022CFFF67BAFBDE8FC87EB
:1059600070B504460D468DB124480068B4EB500F65
:1059700001D2204602E021480068400804B2002C11
:1059800001DD204600E00020044613E01B480068CB
:10599000844201D2204601E01848006804B214484D
:1059A000B0F8B200A04201DA204602E01048B0F898
:1059B000B20004B21D48B0F90000844210DD18485E
:1059C00001681B4805F011FF064606F0A8F81749C4
:1059D0000988084400B2154908800846B0F900401B
:1059E000204670BDB0B9FFFFA4020020A80200202D
:1059F00034040020DB0FC940D3023739B002002045
:105A0000AC02002048F4FFFFDC0200206802002006
:105A10009002002018FCFFFF28070020C806002085
:105A200088020020FE01002000070020B4020020B0
:105A30000000C8422DE9F04700247DE0FA4A52F800
:105A4000241004EB8402F94B03EB8200F84AFFF7C1
:105A500066FE8146F74830F81400A9EB000000B25A
:105A6000F54921F814000A4632F9141004EB8402B7
:105A7000F24B03EB8200F24AFFF751FE0746EE4A73
:105A800032F91420E84B53F82430D11804EB840287
:105A9000EA4B03EB8200EA4BEA4AFFF711FE80462D
:105AA000E14A52F8241004EB8402E44B03EB820039
:105AB000E34BE44AFFF7C3FD054615F5FA6F01DA3B
:105AC000E14806E0B5F5FA6F02DD4FF4FA6000E058
:105AD00028460546D74830F91400002803DDD5488C
