:020000040800F2
:10000000101D0020B1B70008F1B70008F51A00086C
:10001000F5B70008F7B70008F9B7000800000000BE
:10002000000000000000000000000000FBB7000816
:10003000FDB7000800000000FFB70008CF850008EA
:1000400003B8000803B8000803B8000803B80008A4
:1000500003B8000803B8000803B80008F78F0008C9
:1000600003B8000803B8000803B8000803B8000884
:1000700003B8000803B800084588000803B8000862
:1000800003B8000803B8000803B8000803B8000864
:1000900003B8000803B8000803B80008FF8F000881
:1000A00003B8000803B8000803B80008B9810008C5
:1000B000EB820008F982000805830008457B0008F0
:1000C00061770008557B00084D7B000803B80008E5
:1000D00003B8000803B80008B38A000803B8000892
:1000E0002970000803B8000803B80008DFF80CD036
:1000F0000CF0ACF80048004789190008101D0020DA
:10010000F0B504460E461546B4FBF5F038B1B4FB25
:10011000F5F72A4631463846FFF7F2FF0646B4FBAC
:10012000F5F005FB1040FDA1085C3070701CF0BDBF
:1001300070B505460C461646022E01DB242E00DD66
:100140000A26002D09DA2D2020703246611C6842F3
:10015000FFF7D6FF0021017006E03246214628460F
:10016000FFF7CEFF00210170204670BD10B5F5A04D
:1001700008F053FC10BD2DE9F04105460C462F4612
:10018000264630680BF0D5FB804631684246386819
:100190000BF0D7FBBDE8F08110B50446EBA008F0EA
:1001A0003CFC012000F08FFEEFA008F036FC0A2096
:1001B00008F038FA002008F0F1FA10BD10B5044636
:1001C000EDA008F02AFC002000F048FEEDA008F0A9
:1001D00024FC0A2008F026FA002008F0DFFA10BDFF
:1001E00010B50446EBA008F018FC2021EF480BF0F6
:1001F00075FB0020EE490860EE4908702046FFF7C5
:10020000DDFF10BD2DE9F041054628460BF091FBBE
:10021000064600F0C8FF0746E6B9E7A008F0FDFB78
:10022000002400BFE94850F8240000B90DE0012087
:10023000A040384204D0E54951F8240008F0EDFB15
:10024000202008F0D6FB641CECE700BFC5A008F036
:10025000E4FB5BE03246DEA128460BF072FBC8B936
:10026000DDA008F0DAFB002400BFD84850F82400D5
:1002700000B909E0D54951F8240008F0CEFB202050
:1002800008F0B7FB641CF0E700BFB6A008F0C5FBA0
:10029000BDE8F0814FF0000828782D2803D14FF0F9
:1002A00001086D1C761E002400BFC84850F82400C9
:1002B00018B9CFA008F0B1FB26E0C44850F82410CC
:1002C000324628460BF03DFBE0B9B8F1000F08D0EC
:1002D000012101FA04F000F060FFCCA008F09DFBC2
:1002E00007E0012101FA04F000F0E0FDCAA008F0E7
:1002F00094FBB64951F8240008F08FFB99A008F050
:100300008CFB01E0641CD0E700BF00BF00BFBFE76B
:1003100070B505460024C3A008F07FFB00BF1AE0BB
:1003200004EB4401C54A52F8210008F076FB09208D
:1003300008F05FFB04EB4401C04A02EB810148680E
:1003400008F06BFB87A008F068FB00BF08F02EFBED
:100350000028FBD0641C0A2CE2D370BDFEB5054614
:1003600028460BF0E6FA0646082E20D1002404E0C9
:10037000285D0BF071FA2855641C082CF8D3002472
:1003800010E0295DAE480BF0CBFA30B1295D2A1997
:10039000501C0BF0C5FA00B903E0AAA008F03DFB21
:1003A000FEBD641C082CECD3284600F09DFCADA0DB
:1003B00008F033FB002406E0A148015DAF48005D72
:1003C0000DF80010641C082CF6D300200DF8040072
:1003D000684608F022FB63A008F01FFB00BFDFE7C0
:1003E00070B5064630460BF0A4FAC5B27DB9A4A09C
:1003F00008F013FBA1496D394978491EA44A52F807
:10040000210008F00AFB57A008F007FB70BD2A4640
:100410006FA130460BF095FAC8B99EA008F0FDFA1E
:10042000002400BF9A4850F8240000B90AE0984917
:1004300051F8240008F0F1FA202008F0DAFA601CE4
:10044000C4B2EFE700BF47A008F0E7FADEE70024F8
:1004500000BF8F4850F8240018B993A008F0DDFAC7
:100460001AE08B4850F824102A4630460BF069FAFF
:1004700078B9601C81496D39487091A008F0CDFAB7
:10048000834951F8240008F0C8FA36A008F0C5FAEC
:1004900002E0601CC4B2DCE700BF00BFB6E77FB576
:1004A00004460D4600262079052815D2DFE800F025
:1004B00003060A0D1100A06806780DE0A06890F907
:1004C000006009E0A068068806E0A068B0F9006056
:1004D00002E0A068066800BF00BF0A2269463046F5
:1004E000FFF726FE684608F098FAADB149A008F07B
:1004F00094FA0A226946E068FFF71AFE684608F097
:100500008CFA44A008F089FA0A2269462069FFF7AC
:100510000FFE684608F081FA7FBD000030313233AB
:100520003435363738394142434445464748494ACD
:100530004B4C4D4E4F505152535455565758595A93
:10054000000000000D0A23200000000052657365C2
:100550007474696E6720746F2064656661756C746D
:10056000732E2E2E0D0A00005265626F6F74696E35
:10057000672E2E2E00000000536176696E672E2EC6
:100580002E0000000D0A5265626F6F74696E672E4F
:100590002E2E00000D0A4C656176696E6720434C73
:1005A00049206D6F64652E2E2E0D0A00A8040020D0
:1005B000000000205D020020456E61626C656420D1
:1005C00066656174757265733A2000005000002002
:1005D0006C69737400000000417661696C61626C43
:1005E000652066656174757265733A2000000000CD
:1005F000496E76616C696420666561747572652008
:100600006E616D652E2E2E0D0A0000004469736127
:10061000626C656420000000456E61626C65642058
:1006200000000000417661696C61626C6520636F57
:100630006D6D616E64733A0D0A00000090D600087B
:1006400080DC00084D75737420626520616E79202E
:100650006F72646572206F662041455452313233A7
:10066000340D0A0043757272656E7420617373698C
:10067000676E6D656E743A2000000000350500203D
:1006800043757272656E74206D697865723A2000E8
:1006900004000020417661696C61626C65206D69BF
:1006A000786572733A200000496E76616C69642047
:1006B0006D6978657220747970652E2E2E0D0A0092
:1006C0004D697865722073657420746F2000000096
:1006D0000279052A10D2DFE802F0030407080C00B3
:1006E00000BF8368197007E000BF0AB283681A80F0
:1006F00002E08268116000BF00BF70472DE9F0473B
:1007000080464FF00009002740460BF012F90546DD
:100710002DB1012D28D198F800002A2824D1F5A068
:1007200008F07BF900241CE004EB8400F74901EB9E
:10073000800604EB8401F54A52F8210008F06DF9B7
:10074000F3A008F06AF929463046FFF7A8FEAFF299
:10075000EC1008F062F900BF08F028F90028FBD07F
:10076000641C462CE0D353E0EAA140460BF0C2F8EB
:100770005FEA00094CD009F101096D1E48460BF0F3
:10078000F9F8074600243EE004EB8400DF4901EB62
:10079000800604EB8401DD4A52F821000BF0C9F811
:1007A000824604EB8400D94A52F820105246404653
:1007B0000BF0C7F830BB04EB8400D44901EB800098
:1007C000C068B84219DC04EB840001EB80000069CA
:1007D000B84212DB39463046FFF77AFF04EB84015A
:1007E000CA4A52F8210008F018F9CBA008F015F910
:1007F00000213046FFF753FE02E0CAA008F00DF9D1
:10080000BDE8F087641C462CBED3D0A008F005F9E3
:1008100000BFF5E72DE9FF410746D4A008F0FDF839
:1008200007F0F1FE4FF47A71B0FBF1F60A22694647
:100830003046FFF77DFC684608F0EFF8CFA008F0DF
:10084000ECF80A226946D2480078FFF771FC684646
:1008500008F0E3F8CFA008F0E0F80A226946D04893
:100860000078FFF765FC684608F0D7F8CDA008F0DF
:10087000D4F800F086FC0546CEA008F0CEF800249F
:1008800000BFD14850F8240000B90EE00120A0407C
:10089000284204D0CC4951F8240008F0BEF82020AA
:1008A00008F0A7F8601CC4B2EBE700BF012000F01D
:1008B00053FC48B1C5A008F0B0F8C649C64A127842
:1008C00051F8220008F0A9F8AFF2683008F0A5F856
:1008D000C2A008F0A2F80A226946C4480088FFF7BF
:1008E00027FC684608F099F8C1A008F096F807F0D0
:1008F00007FA06460A226946FFF71AFC684608F01E
:100900008CF8AFF2A03008F088F8BDE8FF8110B590
:100910000446BBA008F081F810BD2DE9FF41C44892
:10092000007838B90120C2490870C2A008F075F8F3
:10093000FFF71CFCCCE108F043F80446092C01D079
:100940003F2C69D100260027C848D0F80080C84D48
:100950000FE0C648006838B1C44829680268C54835
:100960000AF0EFFF00B103E006B92E462F4600BFA4
:100970000C35BF4878308542EBD34EB300BFBB493E
:1009800030680968405CB94A39681268895C8842F5
:1009900000D01CE0B54930680968405C48B92021A6
:1009A000B24802680068401CB04B1860B1488154DE
:1009B0000DE0AE4930680968405CAE49AB4A126848
:1009C0008854AA480068401CA8490860D7E700BFBF
:1009D000A648006808B1BE4211D0A7A008F01DF8D3
:1009E000354606E0286808F018F8092008F001F8F4
:1009F0000C35BD42F6D9FFF7B9FB4FF0000806E011
:100A00009C4911F8080007F0F4FF08F10108974825
:100A100000688045F4D35AE19448006830B9042C4A
:100A200004D19448FFF7DCFBBDE8FF810C2C05D115
:100A300093A007F0F2FFFFF799FB48E18B480068AD
:100A4000002836D00A2C01D00D2C32D10025AFF26F
:100A5000EC4007F0E2FF00208649844A126888547F
:100A6000084601900020029088480C230A22804901
:100A7000009001A80AF0F6FE05464DB128680AF07C
:100A800058FF7C490844461C3046A968884702E064
:100A90007FA007F0C2FF202176480AF01FFF002048
:100AA000724908606248007800B9BDE7FFF75EFB55
:100AB0000DE17F2C0ED16D480068C8B100216B4854
:100AC0000068401E694A10606A4A115479A007F014
:100AD000A4FFFCE065480068202809D2202C07DB31
:100AE0007E2C05DC6148006818B9202C01D1EFE0AC
:100AF000EDE0E1E043757272656E742073657474A5
:100B0000696E67733A200D0A0000000008D70008DC
:100B1000203D20003D0000002073657420746F208C
:100B2000000000004552523A2056616C7565206104
:100B3000737369676E6D656E74206F7574206F6670
:100B40002072616E67650D0A000000004552523A3E
:100B500020556E6B6E6F776E207661726961626C84
:100B600065206E616D650D0A000000005379737495
:100B7000656D20557074696D653A2000207365635A
:100B80006F6E64732C20566F6C746167653A200039
:100B9000C4010020202A20302E31562028000000D9
:100BA00078010020532062617474657279290D0AFE
:100BB0000000000044657465637465642073656EAD
:100BC000736F72733A200000840000204143434851
:100BD000573A20009C000020160200204379636CE5
:100BE000652054696D653A2000000000480100202E
:100BF0002C20493243204572726F72733A200000F4
:100C00004166726F333220434C49207665727369B6
:100C10006F6E20322E302041756720323320323003
:100C20003132202F2032323A30303A303100000059
:100C30005D0200200D0A456E746572696E6720437F
:100C40004C49204D6F64652C2074797065202765B0
:100C50007869742720746F2072657475726E2C2009
:100C60006F72202768656C70270D0A000000002055
:100C700090D60008A80400200D1B5B4B000000006C
:100C80001B5B324A1B5B313B314800007701000897
:100C90004552523A20556E6B6E6F776E20636F6DC2
:100CA0006D616E642C20747279202768656C7027E2
:100CB0000000000008200800094801680068401C86
:100CC000074A106007484454204607F092FE00BFD0
:100CD00007F05FFE00287FF42EAE00BFA4E6000000
:100CE00000000020A804002070B5064634460CE041
:100CF0002178FE480AF014FE05462DB1A01BC1B2B2
:100D0000FA482A1AFA488154641C20780028EFD146
:100D100070BD70B5D422F749F5486D380AF0C5FDAD
:100D2000002419E0F2486D3890F8291004FB04F013
:100D30001938484300F6C4106043ED496D3991F805
:100D40002810484340F6C41190FBF1F000B2EA4984
:100D500021F81400601CC4B2062CE3DB002454E02C
:100D600004EB8402E24B6D3B93F82A30C3EB420064
:100D70000121002806DDDE4A6D3A92F82A20C2F1F0
:100D80006402D1B2002803DAD94A6D3A92F82A10E7
:100D9000D74A6D3A92F82B2000FB00F35A4301FB2F
:100DA00001F392FBF3F2D24B6D3B93F82B30C3F17E
:100DB00064031A4442430A2392FBF3F2CC4B6D3B8B
:100DC00093F82A300A2505FB032212B2CB4B23F8F5
:100DD0001420C74A6D3AB2F88820C54B6D3BB3F872
:100DE0008630D21AC54B33F914305A434FF47A7314
:100DF00092FBF3F2BE4B6D3BB3F886301A4412B24D
:100E0000BE4B23F81420601CC4B20B2CA8DBB848DE
:100E10006D38B0F8AA00B6496D39B1F8AC10884207
:100E200004DAB3486D38B0F8AC0012E0B0486D3861
:100E3000B0F8AA00AE496D39B1F8AE10884204DDB1
:100E4000AB486D38B0F8AE0003E0A9486D38B0F893
:100E5000AA00A7496D39A1F8AA0070BD70B5064671
:100E60000AF081FA34200AF08CFCA2480AF0B6FAA3
:100E7000042810D100240BE09D4A6D3A11599D4A77
:100E8000A0180AF04AFB0546042D00D002E0241DFC
:100E9000D42CF1D300BF0AF072FAFFF73AFF26B163
:100EA000012214210F2001F0A5FF70BD90496D397A
:100EB000496801438E4A6D3A5160704700208C4961
:100EC0006D394860704770B505468A48067825B97F
:100ED0008B480078864200D170BD894800788449EB
:100EE0006D39087003204870FFF7E8FF0220FFF714
:100EF000DDFF00207E496D390881282088721E2080
:100F0000087517208877282179486D38C1721E210D
:100F100041751721C177552101732D21817500215C
:100F200080F82010102141730F21C175072180F82E
:100F300021100B2181730021017680F822101421E9
:100F4000C173082141762D2180F823100E210174F0
:100F500014218176502180F82410462141740A2101
:100F6000C176142180F82510282181740021C174D4
:100F7000417780F827105A205D496D3981F82800A3
:100F8000412081F82900002081F82C0081F82D00F3
:100F900081F82E00322081F82A00002081F82B00F1
:100FA000002406E0002152481F3820F81410601C6D
:100FB000C4B20E2CF6DB00204D496D39C8870021E4
:100FC0004B486D38A0F84010002049496D3908861B
:100FD000002147486D3841868186002044496D399B
:100FE000888781F84200042081F843004FF4C870DC
:100FF000A1F846002A20A1F84400012081F84C0005
:10100000404888646E2081F86A002B2081F86B00CC
:10101000212081F86C003CA0FFF766FE00203449D7
:101020006D3981F8750081F87600142081F8770019
:10103000002081F8780040F2DC50A1F87A0040F2FC
:101040004C40A1F87C0040F26C70A1F87E000020BA
:1010500081F880000A2081F88100C82081F8820090
:101060004FF49660A1F8840040F27E40A1F886001B
:1010700040F23A70A1F888004FF47A70A1F88A0023
:101080004FF4C870A1F88C003220A1F88E00012026
:1010900081F8A80040F2DC50A1F8AA004FF47F705C
:1010A000A1F8AC004FF4FA60A1F8AE000A2081F874
:1010B000B00081F8B100012081F8B2004FF47F70D8
:1010C000A1F8B4004FF4FA60A1F8B60040F2DC5089
:1010D000A1F8B8004FF47F70A1F8BA004FF4FA609D
:1010E000A1F8BC0040F2DC5014E0000080DC0008F5
:1010F0003505002000FC0108880700209407002027
:10110000B4000020031414004145545231323334EA
:1011100000000000A1F8BE004FF41650C1F8C00056
:10112000C820A1F8C400142081F8C6001E2081F850
:10113000C700012081F8C8006420A1F8CA004FF45C
:101140009670A1F8CC004FF4E130C1F8D000002037
:10115000FFF784FE00BFBFE601461448006808425E
:1011600001D0012070470020FCE7104909680143C5
:101170000E4A116070470D49096881430B4A11609E
:1011800070470A48006870470146094840680842AD
:1011900001D0012070470020FCE7054949688143E0
:1011A000034A51607047024840687047B000002011
:1011B000C804002070B5FC4800880AF0D5FD05463B
:1011C000FA490AF03CFC04460AF0D3FD00B2F849A3
:1011D00008800420FFF7C0FF08B103F0C7FB70BD13
:1011E0002DE9F04104460D46294620460BF06EFAE3
:1011F0000746F0490AF023FC06460AF0BAFD00B2A1
:10120000BDE8F0812DE9FE4304460D4694E8070051
:101210008DE80700019968680AF011FC07460099FB
:1012200028680AF00CFC804639460AF0B0FB0646F6
:10123000A1680AF001FCA0600199A8680AF0FFFB10
:101240000746029928680AF0FAFB804639460AF0F8
:10125000F0FB064621680AF09AFB20600099A86816
:101260000AF0EDFB0746029968680AF0E8FB804641
:1012700039460AF08CFB064661680AF088FB60601C
:10128000BDE8FE832DE9FF5F002507F0A6F90646BD
:10129000C9490968701A0AF067FD8046C7490AF013
:1012A000CEFB0746C448066000245FE0C44931F91C
:1012B00014000AF050FD804639460AF0C0FB01A92F
:1012C00041F82400BF4890F8430000283CDDBD49A8
:1012D00091F843000AF048FD834659464FF07E508E
:1012E0000AF0E3FB8246B84931F914000AF033FDF5
:1012F000514600900AF0A3FB8046B24991F84300A2
:101300000AF032FD014600904FF07E500AF0CDFB0E
:1013100083464FF07E510AF08FFB8246AB4850F86F
:10132000241050460AF08BFB814641460AF02FFB01
:10133000A64941F8240051F824000AF01AFD00B231
:10134000A34921F8140005E09F4830F81400A04993
:1013500021F814009E4830F914009D4931F9141009
:1013600000FB01550420FFF7F7FE641C032C9DD3FE
:10137000642068438C490988494390FBF1F501A931
:101380009448FFF73FFF0420FFF7E6FE18B101A9DC
:101390009148FFF737FF8E48B0F90000002803DDC1
:1013A0008B48B0F9000003E08948B0F900004042E2
:1013B0007F49B1F9001088421ADA8548B0F9020075
:1013C000002803DD8248B0F9020003E08048B0F94C
:1013D000020040427649B1F90010884208DA7C48A0
:1013E000B0F90400002803DD01207C49487302E0C5
:1013F00000207A494873242D01DDC42D02DB774893
:10140000407B90B300242EE06E49B1F846000AF00C
:10141000ABFC83464FF07E510AF0B9FA8246514642
:101420004FF07E500AF041FB8046694931F91400C3
:101430000AF091FC63490090B1F846000AF094FC70
:101440008346644850F8241058460AF0F8FA824659
:1014500000990AF09CFA814641460AF0F0FA5D498B
:1014600041F82400641C032CCED30420FFF774FE43
:10147000D8B1002417E05A4931F914000AF06BFC86
:101480008146554951F8240056490AF0D8FA824657
:1014900049460AF07CFA804653490AF0D0FA4E4990
:1014A00041F82400641C032CE5D34A4A9168106873
:1014B000FFF796FE4D490880464A91685068FFF74D
:1014C0008FFE4A4948800420FFF746FE00285BD083
:1014D000414A91683F4A50680AF0B1FA82463E4A52
:1014E00051683C4A90680AF0AAFA834651460AF0CD
:1014F000A0FA8046384A1168364A90680AF09FFA86
:101500008246354A9168334A10680AF098FA834651
:1015100051460AF08EFA81464146FFF761FE344992
:1015200008800846B0F900000AF015FC81463148F1
:10153000016848460AF02BFA80460AF01AFC00B20D
:101540002B4908800846B0F900000A2190FBF1F011
:1015500000B2274908800846B0F90000B42806DD2B
:1015600008460088A0F5B47000B208800CE020485E
:10157000B0F9000010F1B40F06DA1D48008800F53C
:10158000B47000B21A490880BDE8FF9F1FB5012062
:10159000FFF7E2FD18B103F0D0F8FFF773FE03F098
:1015A000C8F9002437E00000140200207593D83EEB
:1015B000B80000204C3D0F44EC0000205344923111
:1015C00000010020C804002006010020B40500200E
:1015D0000C0100209C050020A805002078070020B1
:1015E00012010020000048435E06A33BD00000200B
:1015F00058020020C0000020CD4830F8140002A995
:1016000021F814000120FFF7A7FD18B90020C949EF
:1016100021F81400641C032CEED306F0DEFFC6494B
:10162000086001F011FC06F0D8FFC3490968401AB0
:1016300040F28A21884206D9C0480088401C00B286
:10164000BE49088009E000BF06F0C7FFBA49096833
:10165000401A40F28A218842F6D303F06AF9002446
:1016600027E0B34830F8140002A931F814100844F8
:1016700000B22DF814003DF91400B14931F91410ED
:101680000844032190FBF1F000B2AE4921F81400A8
:101690003DF9140000EBD0714910A94A22F814104A
:1016A0000120FFF759FD18B90020A24921F81400C4
:1016B000641C032CD5D34020FFF766FD70B3A2480D
:1016C000007858B9A148806C000C9F4908709F4869
:1016D000806C000A48709D48806C887000241AE075
:1016E000984830F914109A4830F914209648005D53
:1016F000401E02FB0010401C9349095D90FBF1F075
:1017000000B2904921F81400084630F814009049BE
:1017100021F81400641C032CE2D315E08B484078B8
:10172000012811D18748B0F904108A48B0F90000A7
:1017300001EB4000032190FBF1F000B28149888069
:1017400008468088834908801FBD30B5824B1B68DE
:10175000824C24681B1B00D530BD7F4B1B6846F2B2
:10176000A81423447D4C23607D4B7E4C246833F9C0
:1017700014207D4B1B680A2493FBF4F31BB2784CB6
:10178000784D2D6824F815302346764C246833F9BB
:101790001430764C24682344744C2360714B1B68CE
:1017A00014332824B3FBF4F504FB15316C4B33F9E7
:1017B00011306E4C2468E31A6C4C2360684B33F98B
:1017C00011306B4C24682344694C236023461B680A
:1017D0009B1A2360634B1B685B1C624C236023468F
:1017E0001B68282B01D3002323600023614C238036
:1017F000564B93F821305D4C24685D4D2D68641B79
:101800006343282493FBF4F05A4B1B881B1A1BB22A
:10181000584C2380554B1B6803EB83035B00142457
:1018200093FBF4F3544C2360544B1B682468181B3F
:10183000002801DD034600E043420A2B11DA4D4B3C
:10184000B3F90030002B03DD4A4BB3F9003003E05D
:10185000484BB3F900305B420A2B02DA0023454CB7
:1018600023803A4B5C7B5B7B5B005B42834204DD05
:10187000364B5B7B5B005B4209E0344B5B7B5B0080
:10188000834203DA314B5B7B5B0000E003465C4341
:10189000642394FBF3F3374C248823441BB2354C68
:1018A00023802346B3F9003013F1960F02DA6FF06C
:1018B000950309E02F4BB3F90030962B01DD9623F9
:1018C00002E02C4BB3F900302A4C23801F4BDB7D08
:1018D0004343322493FBF4F3294C248823441BB262
:1018E000274C23802346B3F90030264CA34201DA6B
:1018F00023460BE0224BB3F9003047F23054A342A9
:1019000001DD234602E01E4BB3F900301C4C23805E
:101910002346B3F900304FF4FA7493FBF4F0154BFF
:101920001B8803441BB2134C238000BF14E7000044
:101930000001002006010020DC0000204A010020F8
:10194000D4000020C4000020E2000020C8040020D1
:10195000E6000020E000002040010020F000002010
:10196000C0050020F400002018010020F80000202D
:10197000FC000020BA0000202001002024010020EB
:10198000BC000020D08AFFFF0EB506F057FEFFF71F
:10199000C0F90020FFF797FA5A49D1F8D00003F0B8
:1019A00093FA0720FFF7E1FB00F0C2F855484078B2
:1019B0000E2803D053484078082802D101208DF822
:1019C00004000120FFF7E0FB8DF801000820FFF77D
:1019D000DBFB80F001008DF800004B48007808B177
:1019E000012000E000208DF80200464890F8B20087
:1019F000C0F3C0008DF803004248B0F88C00ADF889
:101A000006004048B0F88E00ADF80800684606F0C1
:101A10001FFD3E483E49086010203E4908600820EE
:101A2000091F086000241DE03A480838006880F06B
:101A300010003849083908600846006880F008003E
:101A40000860192006F0EEFD4FF48050324908601E
:101A5000192006F0E7FD4FF480502F49091F086058
:101A6000601CC4B20A2CDFDB08202A49091F086069
:101A70001020086002F02AFCFFF79CFB0220FFF711
:101A800083FB08B102F0FCFC0820FFF77DFB28B1C6
:101A900004F047FE21481E49086014E00120FFF7CA
:101AA00073FB80B14FF48070FFF76EFB20B11549D6
:101AB000D1F8C00004F041FD4FF48060FFF764FBF3
:101AC00008B103F01DF906F088FD154908600D48BE
:101AD0004078052803D14FF4C870124908804FF4AC
:101AE0007A701149088001201049487301E001F023
:101AF000B4FCFCE70349B1F88A1008B200F0CCF856
:101B000000BFFEE7C8040020290100206B33000855
:101B100060010020140C01401408014059670008BE
:101B2000440100201002002012020020780700204B
:101B300010B5F948407804280FD0F74840780128BC
:101B40000BD0F5484078082807D0F34840780E2895
:101B500003D0F1484078052802D10120EF490870F0
:101B60002020FFF711FB10B10120EC490870EA4872
:101B70004078132843D2DFE800F042171B1C130AF9
:101B800022230F1D2428292A0E42421E2E00002047
:101B9000E349087033E000BF0120E14908702EE0FE
:101BA0000220DF4908702AE00320DD49087026E0A2
:101BB00000BF00BF00BF0420D94908701FE000BF6C
:101BC00000BF0620D649087019E000BF00BF0820FA
:101BD000D349087013E00020D149087000240BE0BD
:101BE00004EB8400CF4911F8200020B1CC480078E4
:101BF000401CCB490870641C0C2CF1DB00BF00BFFB
:101C000010BD10B5C548007800B910BDC248407875
:101C1000012813D0042804D0082817D00E2816D184
:101C200013E0C148008981B2002006F09EFCBE4846
:101C3000408981B2012006F098FC19E0BA48408939
:101C400081B2002006F091FC12E011E010E02020AB
:101C5000FFF79AFA58B1B448008881B2002006F024
:101C600084FCB148408881B2012006F07EFC00BFB0
:101C700000BF00BFC9E710B5002408E0AB4830F84A
:101C8000140081B2204606F066FC601CC4B2A44871
:101C900000788442F2DB10BD70B50546002404E0F4
:101CA000A24820F81450601CC4B29D4800788442B9
:101CB000F6DBFFF7E0FF70BD7047F8B59848007895
:101CC00003284DDD9A48B0F904109A48B0F9040091
:101CD000002803DD9748B0F9040003E09548B0F907
:101CE000040040426FF06302101A814210DA9148FA
:101CF000B0F90400002803DD8E48B0F9040003E0C9
:101D00008C48B0F9040040426FF06301081A24E0E7
:101D10008748B0F904108748B0F90400002803DDB3
:101D20008448B0F9040003E08248B0F9040040425E
:101D3000643081420EDD7F48B0F90400002803DDE5
:101D40007C48B0F9040003E07A48B0F9040040424E
:101D5000643002E07648B0F9040000B2744988802B
:101D60006D48407812287DD2DFE810F07C009200A8
:101D700007014B0112000106D5016302A7069A0173
:101D8000FE02A50342040905A4067C007C00C605EA
:101D90006848C18866480088084400B263490880E2
:101DA0006448C088624909884942084400B25F49D2
:101DB0004880594890F9A8005D49B1F9041048439A
:101DC00000F2DC505A49B1F902100844B0F57F7FA7
:101DD00002DA4FF47F701FE04F4890F9A800544991
:101DE000B1F90410484300F2DC505149B1F9021036
:101DF0000844B0F5FA6F02DD4FF4FA600CE0464893
:101E000090F9A8004A49B1F90410484300F2DC50A7
:101E10004749B1F90210084400B2434908813E48DD
:101E200090F9A8004249B1F90410484300F2DC508F
:101E30003F49B1F90210401AB0F57F7F02DA4FF442
:101E40007F7021E0344890F9A8003949B1F90410B5
:101E5000484300F2DC503649B1F90210401AB0F59F
:101E6000FA6F00E07FE202DD4FF4FA600CE02A48EE
:101E700090F9A8002E49B1F90410484300F2DC5053
:101E80002B49B1F90210401A00B2274948816AE291
:101E90002748B0F902008000032190FBF1F02549AA
:101EA000C988084400B2214908802148B0F90200DD
:101EB00040004042032190FBF1F11E48C0881C4ABB
:101EC000128852421044084400B218494880184809
:101ED000B0F9020040004042032190FBF1F21548A6
:101EE000C188134800880844104400B20F49888014
:101EF0000948B0F8AA1090F9A8000D4AB2F90420D8
:101F000000FB02100449B1F8AC10884214DA024810
:101F1000B0F8AC002DE00000C8040020290100202A
:101F200028010020280600202A0100201006002099
:101F3000DA010020C8010020FE48B0F8AA1090F98C
:101F4000A800FD4AB2F9042000FB0210F949B1F8DB
:101F5000AE10884203DDF748B0F8AE0009E0F5485E
:101F6000B0F8AA1090F9A800F34AB2F9042000FBD7
:101F7000021000B2F149488189E7F148C088014662
:101F8000ED4840880144EB4890F9A800EA4A92885D
:101F900050434042084400B2EA490880E848C088FB
:101FA000E5490988494208440146E24890F9A800F9
:101FB000E14A928800FB021000B2E2494880E04802
:101FC000C188DD48008808440146DA4890F9A80035
:101FD000D94A928800FB021000B2DA498880D848BA
:101FE000C088D549498849420144D24890F9A8009F
:101FF000D14A928850434042084400B2D149C88037
:1020000045E7CF48C088CC49098849420144CA48BD
:1020100040880144C74890F9A800C74A92885043B5
:102020004042084400B2C7490880C548C088C24938
:10203000098849420844C049498849420144BD4889
:1020400090F9A800BC4A928800FB021000B2BD497A
:102050004880BB48C188B84800880144B6484088D9
:102060000144B44890F9A800B34A928800FB0210DA
:1020700000B2B4498880B248C188AF48008808449B
:10208000AD49498849420144AA4890F9A800AA4AA2
:10209000928850434042084400B2AA49C880F6E6FC
:1020A000A748C0880146A44840880144A14890F947
:1020B000A800A14A928850434042084400B2A14976
:1020C00008809F48C0889C490988494208449A4929
:1020D00049884942084400B29A4948809848C088D3
:1020E0000146954840880144924890F9A800924AD8
:1020F000928800FB021000B2924988809048C18803
:102100008D48008808448C4949884942084400B2F7
:102110008C49C880BBE68848B0F9020080000321E2
:1021200090FBF1F08649C9880144824890F9A800E3
:10213000814A928800FB021000B2824908807E48E2
:10214000B0F9020040004042032190FBF1F07C49CD
:10215000C988794A1288524211440144754890F95D
:10216000A800754A928850434042084400B275491D
:1021700048807148B0F9020040004042032190FBC2
:10218000F1F16F48C2886C480088104401446948E6
:1021900090F9A800684A928850434042084400B22F
:1021A000684988806448B0F902008000032190FBF0
:1021B000F1F06349C98801445E4890F9A8005E4A7D
:1021C000928850434042084400B25E49C8805A4851
:1021D000B0F9020040004042032190FBF1F1584861
:1021E000C088554A1288524210440144514890F91F
:1021F000A800514A928800FB021000B251490881A0
:102200004D48B0F9020040004042032190FBF1F23A
:102210004B48C1884848008808441118454890F93F
:10222000A800454A928800FB021000B24549488147
:102230002DE6414AB2F90020514201EBD172404BE8
:10224000DB8803EB62033C4AB2F9020000EBD07278
:1022500003EB6203374A92F9A820374EB68802FB97
:10226000063212B2374B1A80334AB2F9002051427B
:1022700001EBD172324BDB8803EB62022E4BB3F9D8
:102280000230584200EBD07302EB6303294A92F903
:10229000A820294EB688724352421A4412B2294BE2
:1022A0005A80254AB2F9001001EBD172244BDB8829
:1022B00003EB6203204AB2F9020000EBD07203EB99
:1022C00062031C4A92F9A8201B4EB68802FB063214
:1022D00012B21C4B9A80184AB2F9001001EBD1726D
:1022E000174BDB8803EB6202134BB3F90230584201
:1022F00000EBD07302EB63030E4A92F9A8200E4E56
:10230000B688724352421A4412B20E4BDA800C481D
:10231000C0880949498849420144064890F9A80003
:10232000054A928800FB021000B219460881044851
:10233000C08809E0C8040020DA0100202A0100203A
:10234000C8010020100600200146FE4840880144D4
:10235000FD4890F9A800FB4A928850434042084447
:1023600000B21946488109E2F648B0F90000800041
:102370004042052190FBF1F0F449C9880844F14935
:10238000B1F9021001EBC1010A2291FBF2F1014403
:10239000ED4890F9A800EB4A928800FB021000B2C9
:1023A000EB490880E748B0F9000080004042052171
:1023B00090FBF1F0E549C9880844E249B1F90210FF
:1023C000494201EBC1010A2291FBF2F10144DE48CE
:1023D00090F9A800DB4A928800FB021000B2DC49A9
:1023E0004880D848B0F900008000052190FBF1F04A
:1023F000D649C9880844D349B1F9021001EBC1019B
:102400000A2291FBF2F10144CF4890F9A800CD4A8D
:10241000928850434042084400B2CD498880C94860
:10242000B0F900008000052190FBF1F0C749C98890
:102430000844C449B1F90210494201EBC1010A2222
:1024400091FBF2F10144C04890F9A800BD4A92887E
:1024500050434042084400B2BD49C880B948B0F971
:10246000000080004042052190FBF1F0B749C98887
:1024700008440146B44890F9A800B24A92885043F3
:102480004042084400B2B2490881AE48B0F90000A9
:102490008000052190FBF1F0AC49C9880844014651
:1024A000A94890F9A800A74A928800FB021000B240
:1024B000A749488160E3A548C088A24909884942E4
:1024C0000144A048408801449F4890F9A8009D4AD3
:1024D000928850434042084400B29D4908809B487E
:1024E000C088984909884942084496494988494220
:1024F0000144954890F9A800924A928800FB021086
:1025000000B2934948809148C1888E4800880144B0
:102510008C48408801448C4890F9A800894A9288E8
:1025200000FB021000B28A4988808848C18885482B
:10253000008808448349498849420144824890F907
:10254000A800804A928850434042084400B2804923
:10255000C8807E48C0887B4909884942014479483F
:1025600040880144784890F9A800764A928800FB98
:10257000021000B2764908817448C0887149098800
:10258000494208446F494988494201446E4890F9DC
:10259000A8006C4A928850434042084400B26C49FB
:1025A00048816A48C1886748008801446548408876
:1025B0000144654890F9A800624A9288504340421D
:1025C000084400B2624988816048C1885D4800883B
:1025D00008445C494988494201445B4890F9A80095
:1025E000584A928800FB021000B25949C881C3E2E0
:1025F0005448B0F90000C0EBC0000A2190FBF1F094
:102600005249C98808444F49B1F90210A1EBC101F0
:102610000A2291FBF2F101444B4890F9A800494A83
:10262000928800FB021000B2494908804548B0F981
:102630000000A0EBC0000A2190FBF1F04349C988DB
:1026400008444049B1F90210A1EBC1010A2291FBF3
:10265000F2F101443C4890F9A8003A4A928800FB04
:10266000021000B23A4948803648B0F90000A0EBA9
:10267000C0000A2190FBF1F03449C988084431496F
:10268000B1F90210C1EBC1010A2291FBF2F1014440
:102690002D4890F9A8002B4A928800FB021000B246
:1026A0002B4988802748B0F90000C0EBC0000A2100
:1026B00090FBF1F02549C98808442249B1F902107C
:1026C000C1EBC1010A2291FBF2F101441E4890F9CD
:1026D000A8001C4A928800FB021000B21C49C88066
:1026E0001A48C0881749498849420144164890F958
:1026F000A800144A928850434042084400B214494A
:1027000008811248C0880F49098849420844014697
:102710000D4890F9A8000B4A928850434042084463
:1027200000B20B4948810948C088014605484088E5
:102730000144054890F9A800024A9288504340425B
:10274000084407E0DA010020C8040020C801002086
:102750001006002000B2FE498881FE48C188FE486C
:10276000008808440146FD4890F9A800FA4A92887A
:1027700050434042084400B2F549C881FCE1F549A4
:10278000CA88F54909881144F34AB2F90220504237
:1027900000EBD07201EB6202F04991F9A810EE4B08
:1027A0009B8801FB032109B2E94A1180EA49B1F98A
:1027B0000010484200EBD071E64AD28802EB61017A
:1027C000E54A528852420A44E44991F9A810E24B82
:1027D0009B8801FB032109B2DD4A5180DD49C9888C
:1027E000DD4A128852420A44DB49B1F9020000EB8B
:1027F000D07102EB6102D94991F9A810D64B9B88A0
:1028000001FB032109B2D24A9180D349B1F90000FA
:1028100000EBD071CF4AD28802EB6102CE494988E1
:102820000A44CE4991F9A810CB4B9B8801FB0321A8
:1028300009B2C74AD180C849B1F9000000EBD07194
:10284000C44AD28802EB6101C34A528852420A4408
:10285000C24991F9A810C04B9B8859434942114481
:1028600009B2BB4A1181BB49C988BB4A128852428E
:102870001144B94AB2F90220504200EBD07201EB88
:102880006202B64991F9A810B34B9B88594349425B
:10289000114409B2AE4A5181AF49B1F90010484222
:1028A00000EBD071AB4AD28802EB6102AA49498899
:1028B0000A44AA4991F9A810A74B9B885943494259
:1028C000114409B2A24A9181A249CA88A249098841
:1028D0000A44A149B1F9020000EBD07102EB610298
:1028E0009E4991F9A8109C4B9B8859434942114439
:1028F00009B2974AD1813FE19648C088014696487F
:1029000040880144954890F9A800934A928800FBBA
:10291000021000B28E4908808E48C0888E4909880E
:10292000494208448C4949884942084400B28849D0
:1029300048808848C08801468748408801448748C5
:1029400090F9A800844A928850434042084400B25B
:102950007F4988807F48C1887F48008808447E4935
:1029600049884942084400B27949C88004E17B4B58
:1029700093F9B0307A4EB6F9026003FB06F2D31732
:1029800002EB1373754EB6F8B86006EB2313714E65
:10299000B6F902603344714EB6F8B460B34203DA5C
:1029A0006E4BB3F8B43030E06C4B93F9B0306C4EF2
:1029B000B6F9026003FB06F1CB1701EB1373674E08
:1029C000B6F8B86006EB2313624EB6F902603344E2
:1029D000624EB6F8B660B34203DD604BB3F8B63072
:1029E00013E05E4B93F9B0305D4EB6F9026003FB25
:1029F00006F0C31700EB1373584EB6F8B86006EB39
:102A00002313544EB6F9026033441BB2554E338043
:102A1000524B93F9B130524EB6F9006003FB06F207
:102A2000D31702EB13734D4EB6F8BE6006EB2313BB
:102A3000484EB6F900603344484EB6F8BA60B34227
:102A400003DA464BB3F8BA3030E0444B93F9B13077
:102A5000434EB6F9006003FB06F1CB1701EB13738D
:102A60003E4EB6F8BE6006EB23133A4EB6F9006050
:102A700033443A4EB6F8BC60B34203DD374BB3F88B
:102A8000BC3013E0354B93F9B130354EB6F90060E8
:102A900003FB06F0C31700EB1373304EB6F8BE60AD
:102AA00006EB23132B4EB6F9006033441BB22D4EB8
:102AB000738061E0FFF700F95EE02648C088244992
:102AC00008802948807A50B300200021274AB2F9B3
:102AD0000220224BB3F87A30D21A4243234BB3F987
:102AE00000301E4EB6F87A609B1B01FB032212B227
:102AF0001C4B1A801D4AB2F90220184BB3F87A30E9
:102B0000D21A4243194BB3F90030144EB6F87A602A
:102B10009B1B01FB032212B2124B5A802BE00020B8
:102B200000210D4AB2F9022042430B4BB3F90030A9
:102B300001FB032212B20B4B1A80074AB2F90220A2
:102B40004243054BB3F9003001FB032212B20FE000
:102B500010060020C8010020DA010020C80400206F
:102B6000D00000202A01002078070020500100201A
:102B7000984B5A8000BF00BF00BF2020FEF704FB27
:102B8000002876D000200090934890F8B20010F012
:102B9000010F05D1904890F8B20010F0020F08D054
:102BA0008E4880898C49B1F87A10401A80B2ADF80D
:102BB0000000894890F8B20010F0040F08D187484F
:102BC000C0898549B1F87A10401A80B2ADF8020088
:102BD0008148B0F8B800BDF80010084400B27D4943
:102BE00008807D48B0F8BE00BDF80210084400B26D
:102BF000784948807A48C07818B3774991F9B0107D
:102C0000784AB2F9022001FB02F0C11700EB117102
:102C1000704A128802EB211109B26E4A11806E4986
:102C200091F9B1106F4AB2F9002001FB02F0C1170F
:102C300000EB1171674A528802EB211109B2654A13
:102C400051806448B0F900006349B1F8B41088427B
:102C500003DA6148B0F8B4000FE05E48B0F9000054
:102C60005D49B1F8B610884204DD5B48B0F8B600A3
:102C700003E024E05748B0F9000000B2554908804D
:102C80000846B0F902005449B1F8BA10884203DA94
:102C90005148B0F8BA000EE04E48B0F902004E4973
:102CA000B1F8BC10884203DD4B48B0F8BC0002E02C
:102CB0004848B0F9020000B24649488000BF464883
:102CC00090F8B20010F0080F14D000262020FEF774
:102CD0005BFA00B10226002409E0221D3F4B33F8C5
:102CE000122091B2A219D0B205F03FFC641C042C52
:102CF000F3D300BF3C48B0F90050012408E03A4843
:102D000030F91400A84202DD374830F91450641C31
:102D1000364800788442F2D3002455E02E48B0F8BB
:102D20008800A8420BDA304830F814002A49B1F87C
:102D30008810691A401A00B22B4921F814002A4859
:102D400030F914002449B1F88610884203DA224889
:102D5000B0F886000EE0244830F914001E49B1F89E
:102D60008810884203DD1C48B0F8880002E01E4845
:102D700030F9140000B21C4921F814001748B0F9CA
:102D800006001549B1F87C10884212DA1020FEF7CF
:102D9000FBF938B91048B0F8860000B2124921F8A2
:102DA000140006E00C48B0F88A0000B20E4921F881
:102DB00014000F48407830B90748B0F88A0000B2D4
:102DC000094921F81400641C084800788442A5D3FE
:102DD000F8BD00002A010020C80400205001002096
:102DE000AA070020D00000201006002028010020A3
:102DF000780700202DE9F04104460D4616460027CD
:102E00001EE04FF0000814E0FE48006880F0080063
:102E1000FC4908608814FC490860284605F002FC5B
:102E20004FF48050F849091F086008F1010000F0D4
:102E3000FF08A045E8DB3C2005F0F4FB781CC7B296
:102E4000B742DEDBBDE8F0812DE9F04F87B04FF0EF
:102E50000008EE48B0F9060040F2DC51884201DA81
:102E600064271CE0E948B0F90600B0F5FA6F10DA03
:102E7000E74890F82E00E549B1F90610A1F2DC51BF
:102E800048434FF4FA7190FBF1F0C0F16400C7B20F
:102E900005E0DF4890F82E00C0F16400C7B20024BE
:102EA000BFE0DA4830F91400D949B1F87A10401A75
:102EB000002807DDD54830F91400D549B1F87A105B
:102EC000401A06E0D248B0F87A00D04931F914101F
:102ED000401AB0F5FA7F18DACC4830F91400CC4922
:102EE000B1F87A10401A002807DDC84830F91400FC
:102EF000C749B1F87A10401A09E0C548B0F87A001D
:102F0000C24931F91410401A01E04FF4FA7085B249
:102F1000022C40D0BE4890F8750058B1BC4890F8DB
:102F20007500A84205DABA4890F87500281A85B2EB
:102F300000E00025642095FBF0F086B2B549701CD6
:102F400031F9100031F91610401A06EBC60101EBF9
:102F50000611A5EB81014843642190FBF1F0AD49D6
:102F600031F81610084400B2AB4921F81400A84803
:102F700090F82C0068434FF4FA7190FBF1F0C0F127
:102F8000640000F0FF0A0AFB07F0642190FBF1F0F7
:102F900000F0FF0A1FE09E4890F8760058B19C4868
:102FA00090F87600A84205DA994890F87600281A39
:102FB00085B200E0002528B2974921F81400944812
:102FC00090F82D0068434FF4FA7190FBF1F0C0F1D6
:102FD000640000F0FF0A8E480A30005D00FB0AF032
:102FE000642190FBF1F08D49085589481E30005D41
:102FF00000FB0AF0642190FBF1F0894908558348F1
:1030000030F914008249B1F87A10884207DA824810
:1030100030F81400404200B27F4921F81400601CCF
:10302000C4B2032CFFF63DAF7848B0F906007849EA
:10303000B1F87C10884203DA7548B0F87C000BE0E8
:103040007248B0F90600B0F5FA6F02DD4FF4FA608D
:1030500002E06E48B0F9060085B26D48B0F87C0019
:10306000281A4FF47A7148436949B1F87C10C1F5C8
:10307000FA61B0FBF1F085B2642095FBF0F086B206
:103080006849701C31F9100031F91610401A06EB2E
:10309000C60101EB0611A5EB81014843642190FBB9
:1030A000F1F0604931F81610084400B25A49C8805E
:1030B0005D48407A002855D05C49B1F900105C4A5F
:1030C000B2F90020881A08F046FE5A49029008F02A
:1030D000B6FC8346584908F0E8FC0690069809F0CB
:1030E0001FFC059006980AF0D1F904904A49B1F9FD
:1030F000000008F030FE0090049908F0A0FC834620
:103100004549B1F9020008F026FE0090059908F043
:1031100096FC5946019008F03AFC029008F029FE0E
:1031200000B203903C49B1F9020008F014FE00908F
:10313000049908F084FC38490290B1F9000008F0C5
:103140000AFE0090059908F07AFC0190029908F0B7
:1031500070FC834608F00DFE00B22F4908800398EA
:10316000488000BF0220FEF70FF8E8B3334800782C
:10317000401CC0B231490870062190FBF1F201FBFE
:10318000120060BB03F087FE2D4991F800B009786A
:10319000491C2B4A11704FEAEB710BEB5171C910AE
:1031A000ABEBC101274A22F811004FF0000909E0FA
:1031B000244830F8190040441FFA80F809F1010052
:1031C00000F0FF09B9F1080FF2DBC3464FEAE871DE
:1031D00008EB5171C81001F035F91B4908701A4805
:1031E00000781A49098800E037E0884206DC084880
:1031F00090F86C001449097888422BDD00201449AE
:1032000008702AE00C0C0140140801405001002015
:10321000C804002088070020C8010020D001002039
:10322000D6010020940700207807002058020020D3
:10323000C2010020DB0F494000003443810100201F
:103240008201002018070020C40100200C02002089
:10325000800100200420F7490870F648007803F048
:103260006EFBF5480088002803DD0120FDF774FFA0
:1032700018B9F2480088002806DDF148006880F09F
:103280000800EF4908601BE0EE48C07818B108203C
:10329000EB49091D0860EB48407818B10820E8495F
:1032A000083108604FF40060FDF76EFF40B1E5495A
:1032B000497809B1012100E00021084603F026FD0C
:1032C0008020FDF761FF70B1DF480068DF490968C1
:1032D000401A08D4DC4800684CF250310844DB49FD
:1032E000086005F01BFCD8480068D9490968401AF5
:1032F00015D4D448407B78B90020D249C870D04852
:10330000006880F00800CE490860CF480068D149C5
:103310000844CF49086002E00120CA49C87002F0A1
:10332000D3F81020FDF718FFA8B1C7480068CA49B4
:103330000968401A0FD4C948007805280BDBC24839
:103340000068C7490844C4490860BD48006880F067
:103350001000BB490860C348C06818B1C148C168C3
:10336000C148884707B0BDE8F08F70B50546BF4932
:10337000485D05F004F9044640F2EE20844203DB88
:1033800040F6CA00844203DDB8486D38B0F87A4090
:10339000204670BD70B5B6480078401CB44908702E
:1033A000002457E02046B3490968884700B2B04975
:1033B0000E78F11706EB91718910A6EB8101AE4AE8
:1033C00002EBC40222F811000020AC4921F81400DD
:1033D00000250EE0A84800EBC40030F81500A7490E
:1033E00031F81410084400B2A44921F81400681CF4
:1033F000C5B2042DEEDBA14931F91410881CC117A8
:1034000000EB917189109D4A22F81410104630F992
:1034100014109B4830F91400C01E814207DA104690
:1034200030F81400801C00B2954921F8140093482C
:1034300030F91410924830F91400C01C814207DDA5
:103440008E4830F81400801E00B28D4921F8140017
:10345000601CC4B2082CA5DB70BD2DE9F04F89B00B
:103460000020079003F075F908B1FFF793FF764845
:10347000006884490968401A7ED47348006844F69D
:10348000206108447F4908600820FDF77DFE08B9E7
:10349000FFF780FF4FF40070FDF776FE002854D050
:1034A00072486D3890F8810000EB80007649B1F9E0
:1034B0000010884231DA6348407870B3002509E093
:1034C0006A486D38B0F87A0000B26D4921F81500ED
:1034D000681CC5B2032DF3DB64486D38B0F8840076
:1034E00000B26749C88061486D3890F881005F4933
:1034F0006D3991F88210084400EB80006249B1F9FF
:103500000010884203DA00204E49487008705F4876
:103510000088401C00B25D49088054486D3890F81E
:10352000810000EB80005849B1F90010884206DAAA
:103530004448407818B90020424948700870524801
:103540000088401C00B2504908804D48B0F9060080
:1035500046496D39B1F87C1088426ADA00204C493E
:103560000880488088804B49088048804A48007815
:10357000401C4949087000E03CE34148B0F90400B0
:103580003A496D39B1F87C1088421CDA3C48B0F9F0
:10359000020036496D39B1F87C10884213DA2948A7
:1035A000407880B93C48007814280BD14FF47A70E9
:1035B000224908804FF48070FDF7E6FD002801D015
:1035C00002F0DEFFA2E10420FDF7DEFD80B31D481E
:1035D000407868BB2A48B0F9040024496D39B1F835
:1035E0007C1088426FDA2648B0F902001F496D3915
:1035F000B1F87E10884266DD2148B0F900001B4911
:103600006D39B1F87E1088425DDD234800781428BA
:10361000D8D12248008830B10020204908800120FC
:103620001F49088072E11F480088E8BB01203DE087
:1036300049E0BDE0800100201002002012020020BD
:103640000C0C01407807002040010020840100207C
:103650007C01002020A1070088010020F801002043
:10366000F0490200EC070020C601002035050020CB
:103670008C0100206001002028070020680700203E
:1036800050010020AC0100204C0100204E01002020
:10369000A0010020A60100208D0100207201002061
:1036A000740100200A020020FFE70020FE49088084
:1036B0000846008818B10220FC49087026E1032062
:1036C000FA49087022E1FA48B0F85800002818DDDD
:1036D000F848407958B1F848007840B10120F649DF
:1036E0004870F648B0F90000F549088005E0F24856
:1036F000407810B10020F04948700020F14908706E
:1037000004E1F148B0F90400E949B1F87C108842BD
:103710000CDBE74890F88000012812D1EA48B0F9A4
:103720000000E349B1F87C1088420ADAE2484078A8
:1037300038B1E44800781428C0D10020DE49487030
:10374000E4E0E148B0F90400D949B1F87E108842BC
:103750000CDCDD48B0F90000D549B1F87E10884294
:1037600022DDD34890F8800001281DD1D648B0F959
:103770000200CF49B1F87E10884215DACE48407871
:1037800090B9D248008878B9CB48C07860B1CD48AC
:103790000078142892D10120C7494870C748B0F971
:1037A0000000C7490880B1E00020C6490870ADE0BC
:1037B000C548B0F90600BE49B1F87E10884220DD48
:1037C000BD48407800281CD1BF48B0F90400B84972
:1037D000B1F87C10884215DABB48B0F90200B44950
:1037E000B1F87C1088420DDAB6480078142803D16D
:1037F0004FF4C870B6490880B2480078401CB149FF
:10380000087083E0B048B0F90400A949B1F87E100F
:10381000884214DDAC48B0F90200A549B1F87C102B
:1038200088420CDAA7480078142802D10120A24966
:103830008873A4480078401CA249087066E0A2483A
:10384000B0F902009A49B1F87E10884211DD98481B
:10385000B0F84000801C01B29548A0F8401001204B
:10386000FDF7FCFA8020FDF78FFC98B305F0DFF937
:103870004CE09548B0F902008D49B1F87C108842BF
:1038800011DA8B48B0F84000801E01B28848A0F8D9
:1038900040100120FDF7E2FA8020FDF775FCC8B169
:1038A00005F0C5F932E08848B0F900008049B1F868
:1038B0007E1088420FDD7E48C08F801C00B27C499C
:1038C000C8870120FDF7CAFA8020FDF75DFC08B12A
:1038D00005F0ADF91AE07C48B0F900007449B1F880
:1038E0007C1088420FDA7248C08F801E00B2704987
:1038F000C8870120FDF7B2FA8020FDF745FC28B10A
:1039000005F095F902E000206E4908700420FDF7EB
:103910003BFC10B36448008898B16748407880B198
:103920006948B0F906006249B1F87C10884208DDA8
:103930006048407928B932206649088000205A49F9
:1039400008805C48007A48B16348008828B9634819
:10395000008810B932205F4908800BE05F4800887A
:1039600040B15548407828B900205C4908800120C2
:103970005B49088000253BE0281D534931F91000C0
:1039800040F21451884201DA012000E0002005EBEA
:1039900045018840291D4C4A32F9111040F2145259
:1039A000914209DD291D484A32F9111040F2A46202
:1039B000914201DA012100E0002105EB4502521C91
:1039C00091400843291D404A32F9111040F2A46287
:1039D000914201DD012100E0002105EB4502921C2E
:1039E000914008430799084380B20790681CC5B20C
:1039F000042DC1DB00250EE02D484E3030F81500B7
:103A000007990840002801DD012000E00020294935
:103A10004855681CC5B20E2DEEDB2648007848B923
:103A2000234890F8810000EB80002E49B1F9001086
:103A300088420EDA0120FDF78FFB50B11E48007955
:103A400050B9002028490880488001201A4908718F
:103A500002E00020184908711648407910B9012089
:103A6000154908701448007918B110201F490860E2
:103A700003E010201D49091F08600220FDF76CFBC0
:103A8000F0B30C484078E0B30B488079C0BB01200C
:103A90000949887116480068164908601648C088A8
:103AA0001649088000202DE00A0200203C01002079
:103AB000C8040020AA070020780700205802002030
:103AC000C20100208D0100205001002012020020C0
:103AD00010020020700100207601002072010020F9
:103AE000740100204C010020A6010020140C0140AC
:103AF0002001002024010020C8010020B001002086
:103B000008E004E0FE490880FE49088002E0002049
:103B1000FD4988710420FDF71FFB30B3FB48807816
:103B200058B1F948407958B90120F7494871F84827
:103B3000B0F90000F749088002E00020F24948711E
:103B4000F248407A30B1F048407A30B90120EE496D
:103B5000487202E00020EC494872EC48407B20B1FA
:103B6000EB48B0F90000EC4908801020FDF7F4FAAA
:103B700088B3E548C07A70B3E848007805282EDBA2
:103B8000E248807968B1E048C07968B90120DE492F
:103B9000C871E349081F02F02FFD0220E1490870B7
:103BA00002E00020D849C871D848C079A0B1D648F1
:103BB000007A80B90120D4490872DB480068DB49EB
:103BC0000860D94840684860091D081F02F014FDCC
:103BD0000120D449087002E00020CB490872CB488C
:103BE000007A18B10120C84988723FE00020C64918
:103BF00088723BE0CE4991F900000978491C49B22E
:103C0000CB4A1170C11700EB91718910B0EB8101A3
:103C100006D001290BD0022910D0032921D114E0AC
:103C20000420FDF799FA08B100F067FF1DE00220BB
:103C3000FDF792FA08B100F08CFD16E00220FDF7C6
:103C40008BFA08B1FDF781FD0FE00820FDF784FA3B
:103C500030B101F060F8B748B0F90000B64988808B
:103C600003E00020B249087000BF00BF04F0B5FCBB
:103C7000B2490860B248008928B108460068B149D5
:103C80000968401A7ED4AE480089AC4909680844E6
:103C9000AC490860FDF77AFC04F09FFCA749086076
:103CA00008460068A8490968401AA8490880A3483E
:103CB0000068A54908600420FDF74EFA88B3A448BF
:103CC000B0F90400002803DDA148B0F9040003E0C6
:103CD0009F48B0F904004042462823DA8A484079D8
:103CE00000B38B4909888B4A1288891A08B210F1EF
:103CF000B40F02DC00F5B47108B2B42802DBA0F501
:103D0000B47108B28049497B59B18D49897C4143DE
:103D10001E2291FBF2F18E4A9288511A09B28C4A06
:103D2000918004E07A48B0F900007A4908800220C6
:103D3000FDF712FA38B37448807920B38448B0F99B
:103D400006008449B1F90010401A002807DD8048B8
:103D5000B0F906007F49B1F90010401A06E07C482E
:103D6000B0F906007B49B1F90010081A142802DDE9
:103D700000206549887177480088624909880844AD
:103D800000B201E077E201E07149C8801020FDF740
:103D9000E3F900280AD05C48C07910B95A48007A83
:103DA00010B15948007B10B902F003FC43E15848B8
:103DB000B0F9000007F0CFFF6749039007F03FFE1E
:103DC000049009F063FB06905148B0F9000007F039
:103DD000C2FF6149039007F032FE049008F0A0FD95
:103DE0000590574890F8C700F0B35C49B1F902104C
:103DF0005B4AB2F90220881A01F062FC504991F83E
:103E0000C7104942884204DA4D4890F8C700404242
:103E10001AE05249B1F90210514AB2F90220881A47
:103E200001F04EFC464991F8C710884203DD444832
:103E300090F8C70008E04949B1F90210484AB2F9C0
:103E40000220881A01F03CFC45494988084401B227
:103E5000434841804149B1F900100246B2F90020BF
:103E6000881A01F02DFC00E0A2E0354991F8C71056
:103E70004942884204DA324890F8C70040421AE0CA
:103E80003649B1F90010364AB2F90020881A01F01B
:103E900017FC2B4991F8C710884203DD284890F899
:103EA000C70008E02D49B1F900102D4AB2F90020F1
:103EB000881A01F005FC2A490988084400B22849FB
:103EC0000880B1F9000007F046FF0090069907F05E
:103ED000B6FD23490290B1F9020007F03CFF0090C3
:103EE000059907F0ACFD0190029907F0A2FD1D496C
:103EF000039007F0DAFD049007F03BFF01B233E0D6
:103F0000BC000020BA00002078070020AA0700208B
:103F1000580200205A020020C2010020F8010020AF
:103F2000EC0100206E010020E0010020F0010020E3
:103F3000B80100201C010020BA010020400100202F
:103F4000C8040020B40100204401002048010020E2
:103F5000C8010020B001002035FA8E3C020200208A
:103F60000602002000002041C4480180C449B1F984
:103F7000000007F0F0FE0090059907F060FDC049D1
:103F80000290B1F9020007F0E6FE0090069907F0F2
:103F900056FD0190029907F0FAFCBA49039007F028
:103FA00084FD049007F0E5FE00B2B449488041E08A
:103FB000B549B1F9000007F0CEFE0090069907F070
:103FC0003EFDB1490290B1F9020007F0C4FE009035
:103FD000059907F034FD0190029907F02AFDA949DF
:103FE000039007F062FD049007F0C3FE01B2A348FE
:103FF0000180A549B1F9000007F0ADFE00900599D8
:1040000007F01DFDA0490290B1F9020007F0A3FEE0
:104010000090069907F013FD0190029907F0B7FC94
:104020009849039007F041FD049007F0A2FE01B209
:104030009248418000BF002414E194480079E8B31D
:10404000022C7CDA924830F914008C4931F91410B2
:10405000C1EB400010F5FA7F01DA8E4815E08C487C
:1040600030F91400854931F91410C1EB4000B0F566
:10407000FA7F02DD4FF4FA7007E0854830F914004A
:104080007E4931F91410C1EB4000834931F8141016
:10409000411A824830F81400084406B27F483E387E
:1040A000407C7043642190FBF1F007B27B483E38BE
:1040B00090F82500404200EB800000E03FE0B8426D
:1040C00007DD76483E3890F82500404200EB80003E
:1040D0000FE072483E3890F8250000EB8000B842AF
:1040E00006DA6E483E3890F8250000EB800000E0CC
:1040F000384607466A4830F9140030446949884216
:1041000001DA08460DE0664830F91400304442F206
:104110001071884201DD084603E0614830F914005F
:10412000304400B25E4921F81400084630F914000A
:104130005A493E39C97E48430013089050E054481C
:1041400030F9140000EB8000010154483438005D60
:1041500091FBF0F8544830F81400A8EB00000FFA77
:1041600080F84B4830F91470504830F9140040443E
:1041700010F57A5F01DA4E480DE04C4830F9140032
:104180004044B0F57A5F02DD4FF47A5003E04748CF
:1041900030F91400404400B2444921F81400424868
:1041A00030F91400002803DD3F4830F9140003E023
:1041B0003D4830F914004042B0F5207F03DD002077
:1041C0003A4921F81400394830F914007D2190FB58
:1041D000F1F032492A39095D4843801100B2089054
:1041E000314931F91410334A125D51430A2291FBCF
:1041F000F2F0C11700EB5171A7EBE1010FB22A48B1
:1042000030F814002C4931F81410401A0FFA80F9D4
:10421000254830F81400284921F81400274830F8C0
:104220001400274931F81410084448440FFA80FA62
:10423000224830F81400224921F814001F4820F8C1
:1042400014902048005D00FB0AF040110FFA80FB3B
:1042500008983844A0EB0B0000B21B4921F8140069
:10426000601CC4B2032CFFF6E8AEFDF726FDFDF797
:10427000C8FCFDF700FD09B0BDE8F08F6601002025
:1042800006020020000020410202002078070020E2
:10429000C80100200CFEFFFFD00000200605002012
:1042A000A6010020F0D8FFFFC4000020A0010020DC
:1042B00080C1FFFFD00100208E010020940100206A
:1042C0009A010020D6010020DA0100202DE9F84FE4
:1042D00000260027FE4890F84C20FE49FE4804F0D6
:1042E0007BFD08B101260CE0FA4804F07CFF08B120
:1042F000012706E0F74803F09AFD10B9032004F007
:1043000022FA00BFF24890F8420030B1012805D0EF
:10431000022819D0032837D128E000BF00208DF8EB
:1043200000004FF44870ADF80200EB49684602F017
:104330004FFE10B10120E9490870E54890F84200AD
:10434000012800D120E000BF7EB1E14890F84C2068
:10435000E049E14804F040FD0220E0490870DC48F3
:1043600090F84200022800D10EE000BFDA4804F0C5
:10437000F2FD40B10320D9490870D54890F84200B9
:10438000032800D100E000BF00BFD448007860B926
:10439000CF4890F84200002804DD0020CC4981F885
:1043A0004200AFE70120FCF7E6FE0120FCF7D4FE57
:1043B00010B1C94908688047C94805F093F830B979
:1043C000C74802F0A5FF10B90220FCF7D4FEC1498E
:1043D000086880472FB1BE49B1F8440004F01CFFC3
:1043E00005E026B9BA49B1F8440003F038FD03F0FE
:1043F00033F810B90420FCF7BEFEB548B0F93C0014
:10440000642190FBF1F004B2B148B0F93C0090FB9C
:10441000F1F201FB1205284607F09DFC8346B149E5
:1044200007F00DFB8146204607F095FC8246494681
:1044300007F0ADFA8046AC4907F001FBAB490860D4
:10444000BDE8F88F2DE9F0470446A14991F86A00CC
:1044500007F08AFC8046204607F086FC8146A44986
:1044600007F0EDFA0746A34907F01FFB0646414651
:1044700007F0E5FA054607F095FC80B2BDE8F08745
:1044800070B50025002406E002F005FD05440A2071
:1044900004F0C8F8641C202CF6D3C5F34F10FFF7C6
:1044A000D1FF0546022407E0894890F86B0060437D
:1044B000A84200D902E0641C062CF5D300BF8E4947
:1044C0000C70834890F86C0060438C49088070BD84
:1044D00010B58B480088002851DD00241CE0884876
:1044E0000088B0F5C87F03D10020864941F8240038
:1044F000844850F82400844931F914100844814953
:1045000041F824000020804921F81400002170485F
:10451000303020F81410641C032CE0DB784800884D
:10452000012827D1774800684FF4C87190FBF1F05B
:1045300000B267490886734840684FF4C87190FB21
:10454000F1F001B2624841866E4880684FF4C8714C
:1045500090FBF1F06D490988401A01B25C488186F0
:1045600000205B49C88700215948A0F8401001206D
:10457000FCF774FC62480088401E614908800420F2
:10458000FCF702FE00287DD061480088322811D156
:104590004F48008E5F4908804D48408E48804C4807
:1045A000808E88804A48C08F5B4908804848B0F8B0
:1045B0004000488056480088002846DD00241BE063
:1045C00053480088322803D10020544941F8240080
:1045D000524850F824004C4931F9141008444F490E
:1045E00041F824000020484921F8140000213848EF
:1045F000303020F81410641C032CE1DB44480088A0
:1046000001281DD100204649088001204549088025
:104610000220454908703F4800882D4908863D48DA
:1046200041882B4841863B488188294881863A4801
:1046300000882749C887384841882548A0F8401095
:1046400033480088401E32490880384800880128D5
:1046500029D100203549088030480068322190FB7C
:10466000F1F000B21A4908862C484068322190FBCC
:10467000F1F001B21648418628488068322190FB4B
:10468000F1F000E00FE021490988401A01B210481A
:10469000818600200E49C88700210D48A0F84010EF
:1046A0000120FCF7DBFB184800880949098E401AF5
:1046B00000B215490880084641880548408E081A0E
:1046C00000B211494880084681880148808E2FE059
:1046D000C8040020EC070020DC07002016020020A0
:1046E000FC0700208988883C00002041C000002091
:1046F0003333534000F07F45780100200C02002046
:1047000010020020B807002006010020140200203B
:1047100070010020260200202C020020C407002087
:1047200076010020720100203C010020740100206D
:10473000081A00B2FE49888010BD10B5FD484168D6
:10474000FB488847FB488168F9488847FFF7C0FE67
:1047500010BD2DE9FE4FF8480068F8490968401A75
:1047600001D5BDE8FE8FF4480068F4490860F448BC
:10477000007830B1012814D002281BD003285AD168
:1047800028E0F04988688047ED480078401CEC49F3
:104790000870EC480088E94909680844E74908605E
:1047A00049E0E849C8688047E5480078401CE4498A
:1047B000087040E0E34908698047E1480078401C00
:1047C000DF490870DF484088DC4909680844DB4954
:1047D000086030E0DB4948698047DA4988698047EA
:1047E0000290029807F0B7FAD749009007F05DF9F8
:1047F000019007F00AFB80464FF00052D34B08F0BF
:104800004FF906460022D24B07F032FA0446002246
:10481000D04B07F030FA824607F0D8FACE4908604C
:104820000020C7490870C7488088C44909680844FF
:10483000C249086000BF00BF00BF92E710B5C7487B
:104840000088002837DD00242EE0C4480088B0F539
:104850007A7F03D10020C24941F82400C04850F8B3
:104860002400C04931F914100844BD4941F824001E
:104870000020BC4921F81400BB4921F81400B748B6
:10488000008801280FD1B64850F824004FF47A71FF
:1048900090FBF1F000B2B44921F8140001220F217D
:1048A0000A20FEF7A7FA641C032CCEDBAB48008875
:1048B000401EAA490880002438E0AA4830F81400B5
:1048C000A94931F81410401A00B2A64921F8140081
:1048D000084630F91410A54830F91400A0F54870C6
:1048E000814205DAA14830F91400A0F5487012E0C1
:1048F0009C4830F914109D4830F9140000F54870B8
:10490000814205DD994830F9140000F5487002E055
:10491000944830F9140000B2924921F81400084676
:1049200030F81400914921F81400641C032CC4DBF6
:1049300010BD10B58E4841688A4888478C48816808
:1049400088488847FFF77AFF10BD10B5894802F004
:10495000D8FD884800888849088086488088488033
:1049600084484088404200B2888010BD2DE9FF5F36
:10497000602600250024002740F2FE2840F2C929C5
:10498000DFF8F8A102F08AFD00207D490860486048
:1049900088606FE06D1C304602F08DFD642003F0EE
:1049A00041FEFFF7D2FF0A2003F03CFE7249B1F945
:1049B000000007F0D0F98346404607F0D5F9594684
:1049C000009007F072F820F0004001906A49B1F9B8
:1049D000020007F0C0F98346484607F0C5F959467A
:1049E000009007F062F820F0004002906249B1F9AF
:1049F000000007F0B0F98346484607F0B5F959467C
:104A0000009007F052F820F0004003905D490198B3
:104A100007F01CFA2ED25C49019807F00DFA29D252
:104A20005849029807F012FA24D25749029807F021
:104A300003FA1FD25349039807F008FA1AD25249D1
:104A4000039807F0F9F915D2641C4D4A01991068D2
:104A500006F09DFF4A490860494A0299506806F0ED
:104A600096FF47494860464A0399906806F08FFFD1
:104A7000434988601FB9142D01D2052C8AD3052C17
:104A80002ED3204607F070F983463D490868514609
:104A900006F0D5FF5946009007F007F8384908603E
:104AA000204607F061F9834635494868514606F0CB
:104AB000C6FF5946009006F0F8FF3149486020468D
:104AC00007F052F983462E498868514606F0B7FF31
:104AD0005946009006F0E9FF29498860012705E062
:104AE0004FF07E50264908604860886002F0F8FC6C
:104AF000012026490870BDE8FF9F70B50E48006888
:104B000023490968401A00D570BD0B480068214947
:104B100008441F490860FFF718FF1749B1F9000062
:104B200007F019F9064616480168304634E00000DF
:104B300006010020DC070020400100203002002098
:104B400034020020FC07002080E6C547965BC83F82
:104B50000000F03F1AE95041180100201202002025
:104B6000D007002000010020CA00002036020020EB
:104B7000EC0700203C0200201201002059021B3FDC
:104B8000180200203333333F6666A63F240200201C
:104B900044020020A086010006F051FF054607F000
:104BA000E8F800B25E490880B1F9020007F0D3F8D6
:104BB00006465C484168304606F041FF054607F06E
:104BC000D8F800B256494880B1F9040007F0C3F89C
:104BD000064654488168304606F031FF054607F026
:104BE000C8F800B24E4988804F48807BD8B14F4802
:104BF00000684F490860002410E000214D4820F86B
:104C00001410474830F814004B4921F81400444868
:104C100030F81400494921F81400641C032CECD32B
:104C200000204149887346480078D0B13C4800884C
:104C300040493639C98E401A00B2394908800846C1
:104C400041883C483638008F081A00B23449488001
:104C50000846818837483638408F081A00B23049F4
:104C6000888033480068002848D0304800683049C0
:104C70000968401A3349884227D23348006880F0D7
:104C800008003149086000241CE0254830F9140070
:104C9000294931F91410884205DA214830F8140006
:104CA000254921F814001E4830F91400234931F930
:104CB0001410884205DD1A4830F814001F4921F805
:104CC0001400641C032CE0D318E00020184908608D
:104CD00000240EE0184931F91410184A32F9142052
:104CE000881800EBD07149100AB2124921F814203B
:104CF000641C032CEED30120FCF7B0F800BF03E7DF
:104D000010B5012004F07FF90820FCF72EFA0020EE
:104D10000E49088010BD10B50C4804F0E0F910BD34
:104D20001201002018020020780700204402002011
:104D300048020020FE0400204C0200205202002005
:104D40002402002080C3C9010C0C01401C0100207A
:104D500010B50446FE490C700846007803F049FE81
:104D6000FC480078FA4909784840FA490870200A56
:104D7000F74908700846007803F03BFEF5480078D4
:104D8000F34909784840F3490870200CF04908704D
:104D90000846007803F02DFEEE480078EC490978CB
:104DA0004840EC490870200EE94908700846007830
:104DB00003F01FFEE7480078E54909784840E549D7
:104DC000087010BD10B50446E3490C700846007821
:104DD00003F00FFEDF480078DF4909784840DD49DD
:104DE0000870200ADC4908700846007803F001FECC
:104DF000D8480078D84909784840D649087010BD8D
:104E000010B50446204603F0F4FDD2480078604017
:104E1000D049087010BDD14801780078401CCF4AB5
:104E20001070CF48405C704700B5FFF7F4FF0346B1
:104E3000FFF7F1FF03EB002083B2184600BD10B569
:104E4000FFF7F2FF0446FFF7EFFF04EB00442046B4
:104E500010BD70B504460D462420FFF7D1FF4D204C
:104E6000FFF7CEFF0CB1212100E03E210846FFF7FD
:104E7000C7FF0020B74908702846FFF7C1FFB948AF
:104E80000078FFF7BDFF70BD10B504462146002035
:104E9000FFF7DFFF10BD10B5044621460120FFF7E4
:104EA000D8FF10BD10B5AB480078FFF7A9FF10BDC3
:104EB00070B505462C4603E02078FFF7A1FF641C7F
:104EC00020780028F8D170BD10B50446204603F0C4
:104ED000CCFC10BD2DE9F041A2480078732879D0B0
:104EE0000DDCA0F164000F2875D2DFE800F0BED120
:104EF000FDFCFBFAF9F8F7F6F5F4F3F2F100CC2833
:104F00007DD010DCC8281DD006DC742874D075282C
:104F100073D076285FD166E2C92822D0CA2842D051
:104F2000CB28F7D159E0D02868D006DCCD287DD039
:104F3000CE287CD0CF28EDD193E0FA2878D0FE2877
:104F4000E8D19AE2002406E0FFF76EFF00B286493E
:104F500021F81400641C082CF6D30020FFF794FFFE
:104F60009DE2FFF758FF8149C872FFF754FF80495F
:104F70000870FFF764FF7F490860FFF760FF7D4915
:104F80004860FFF751FF7C490880FFF74DFF7B49E0
:104F900008807B48007840F00200794908700020C2
:104FA000FFF772FF7BE200240EE0FFF734FF754944
:104FB0000855FFF730FF73490A310855FFF72BFFFB
:104FC000704914310855641C0A2CEED30020FFF7F9
:104FD0005BFF64E2FAE15EE211E0002406E0FFF725
:104FE00023FF6849443121F81400641C0E2CF6D3C9
:104FF0000020FFF749FF52E2D3E1D9E120E2FFF7B9
:105000000AFF60490A3981F82800FFF704FF5D496B
:105010000A3981F82900FFF7FEFE5A490A3981F85A
:105020002C00FFF7F8FE57490A3902E00FE216E2BA
:105030001CE281F82D00FFF7EEFE52490A3981F893
:105040002E00FFF7E8FE4F490A3981F82A00FFF7E2
:10505000E2FE4C490A3981F82B000020FFF714FFCB
:105060001DE20020FFF710FF19E20720FFF70CFFF9
:10507000D220FFF7C5FE43490A394878FFF7C0FE42
:105080000020FFF7BDFE4FF00040FFF761FE06E293
:105090000A20FFF7F9FE3C48008800B2FFF792FEB5
:1050A00002F02EFE06B23046FFF78CFE0120FCF720
:1050B00053F807460220FCF74FF847EA4007042060
:1050C000FCF74AF847EA80071020FCF745F80CE0A7
:1050D00075E156E13DE115E109E100E1E7E0D2E0EB
:1050E000B3E0A4E095E086E063E047EAC00708206B
:1050F000FCF732F847EA00163046FFF763FE1B491B
:1051000009791A4A927941EA4201184A527941EAE8
:105110008201164A527841EA42111C4AD27841EA89
:10512000C2011A4A127941EA0211104AD27941EABF
:1051300082110E4A127A41EAC2110C4A527A41EAAD
:1051400042210A4A927A41EA0221104A927A1FE0E9
:105150005E020020630200205F0200206402002043
:105160001808002065020020500100207807002068
:10517000F8010020E0010020FE01002000020020D4
:1051800064010020D204002048010020AA0700206A
:1051900041EA8221FE4AD27A41EAC221FC4A127BCC
:1051A00041EA0231FA4A527B41EA4230FFF7D0FD30
:1051B00075E11220FFF768FE002405E0F54931F99A
:1051C0001400FFF7FFFD641C032CF7D3002405E057
:1051D000F14931F91400FFF7F5FD641C032CF7D3F6
:1051E000002405E0ED4931F91400FFF7EBFD641CE4
:1051F000032CF7D353E11020FFF746FE002405E00F
:10520000E74931F91400FFF7DDFD641C082CF7D3E2
:1052100045E11020FFF738FE002405E0E14931F9AF
:105220001400FFF7CFFD641C082CF7D337E11020E2
:10523000FFF72AFE002405E0DB4931F91400FFF7EF
:10524000C1FD641C082CF7D329E10E20FFF71CFEDA
:10525000D649C87AFFF7D4FDD5480078FFF7D0FDCE
:10526000D4490868FFF774FDD2494868FFF770FD1C
:10527000D148008800B2FFF7A5FDD048008800B2F1
:10528000FFF7A0FD0BE10520FFF7FEFDCC480088ED
:1052900000B2FFF797FDCB48B0F90000FFF792FD91
:1052A000C949097801F00100FFF7AAFDF7E00820DD
:1052B000FFF7EAFD002405E0C44931F91400FFF7C7
:1052C00081FD641C022CF7D3C148B0F90000FFF740
:1052D00079FDC048B0F90000FFF774FDDFE004205D
:1052E000FFF7D2FDBC480068FFF732FDD7E003208E
:1052F000FFF7CAFDB9480078FFF782FD0020FFF7ED
:1053000061FDCCE00720FFF7BFFDB54991F828000B
:10531000FFF776FDB24991F82900FFF771FDB0491A
:1053200091F82C00FFF76CFDAD4991F82D00FFF7C7
:1053300067FDAB4991F82E00FFF762FDA84991F88F
:105340002A00FFF75DFDA64991F82B00FFF758FDF5
:10535000A5E01E20FFF798FD00240FE0A0490A31C8
:10536000085DFFF74DFD9E491431085DFFF748FDCC
:105370009B491E31085DFFF743FD641C0A2CEDD3E9
:105380008DE01C20FFF780FD002407E094494E319A
:1053900031F8141008B2FFF715FD641C0E2CF5D37C
:1053A0007DE06320FFF770FD8E48FFF781FD76E01A
:1053B0002F20FFF769FD8C48FFF77AFD6FE0022090
:1053C000FFF762FD0020FFF7FDFC68E00820FFF713
:1053D0005BFD002404E0601CC0B2FFF711FD641CFB
:1053E000082CF8D35BE0FFF716FD05460C20FFF70D
:1053F0004BFD8DB90020FFF703FD7C490868FFF7DE
:10540000A7FC7A494868FFF7A3FC0020FFF7DAFC05
:105410000020FFF7F5FC12E0102D10D11020FFF74F
:10542000EFFC73490868FFF793FC71494868FFF780
:105430008FFC0020FFF7C6FC0020FFF7E1FC2EE008
:105440000120FBF740FD0020FFF71EFD27E04FF491
:10545000C870684908800020FFF716FD1FE0012092
:10546000524988730020FFF70FFD18E00020FBF77A
:10547000F5FC0020FFF708FD11E00820FFF704FD10
:10548000002405E05C4931F91400FFF79BFC641C23
:10549000042CF7D303E00020FFF7FDFC00BF00BFA2
:1054A000FFF700FDBDE8F08110B50446232C02D0C3
:1054B000522C07D102E0FBF730FA03E0012003F0A1
:1054C0006DF900BF00BF10BD10B54C48007810B199
:1054D000FBF723FA10BDCDE003F072FA044648480A
:1054E000007870B9242C01D1012000E0002044494B
:1054F000087008460078002802D12046FFF7D4FF44
:10550000B7E03F480078012807D14D2C01D1022097
:1055100000E000203A490870ABE0394800780228E2
:1055200007D13C2C01D1032000E000203449087051
:105530009FE03348007803281AD1402C03DD002077
:105540002F49087096E02F48047000202E490870FB
:105550002E4908702E4908702C48007860402B496D
:10556000087004202649087001202A49087080E04C
:1055700023480078042851D1274804702348007834
:1055800060402249087005201D49087071E0000044
:10559000AA0700200C010020C400002012010020F6
:1055A0002A0100201006002050010020780700206A
:1055B000F8010020E0010020FE0100200002002090
:1055C000FA010020FC01002064010020D00000202E
:1055D00058020020C201002020010020C401002048
:1055E000C804002089DC0008EDDC0008E801002088
:1055F000F001002010020020BA0100205D0200200E
:10560000620200206102002060020020630200208C
:10561000640200205C02002065020020214800781E
:10562000052813D1204800782049097888420DDAEE
:105630001F48007860401E4908701B4801780078B8
:10564000401C194A10701B48445412E01548007859
:1056500005280ED11448007814490978884208DBDF
:1056600013480078A04201D1FFF734FC00200D4917
:10567000087000BF03F08DF900287FF42DAF0E48AD
:10568000007868B903F085F950B94FF40060FBF772
:105690007BFD28B10948407810B101F04BFB19E7B8
:1056A00000BF17E7620200206002002061020020B4
:1056B00063020020180800205D0200207807002007
:1056C00044F25061884201DDA0EB4100FA49884272
:1056D00002DA48F6A0410844704700B5F748006870
:1056E000F7490968421A1046FFF7EAFF0246002A06
:1056F00001DD104600E0504242F21071884201DDA7
:10570000012000BD0020FCE70146086870470160E9
:1057100070472DE9FE4F04460E4615461F46616848
:10572000701A06F018FB8046296806F0BEF9206161
:10573000A168206906F07DF9E249029091F8C6005F
:1057400006F012FBE049009006F079F9014601905D
:105750004FF07E5006F0A9F98346296806F017F944
:1057600082465146286806F0A0F98146029906F063
:1057700066F98046A16806F00AF920616660206932
:10578000A0602169B86806F05AF9804606F0F1FA7F
:10579000BDE8FE8F2DE9F04704460E4617461D462C
:1057A000304606F0D8FA8246696806F048F9814624
:1057B000396806F044F98046216806F0E8F8206070
:1057C000E86880F000484046216806F03FFB04D2BC
:1057D000E86880F00040206006E0E968206806F094
:1057E00035FB01D2E8682060206806F0C2FABDE807
:1057F000F0872DE9F04180460C461546204606F01C
:10580000AAFA0746296806F01AF9064606F0B1FA20
:10581000BDE8F08148F6A041884200DD401A00282A
:1058200002DA48F6A041084470472DE9F041A34947
:105830000968A34A1268881AFFF742FF002807DDAB
:105840009E4909689E4A1268881AFFF739FF07E0E7
:105850009A4909689A4A1268881AFFF731FF40424C
:1058600041F2941188423DDA94490968944A1268D9
:10587000881A06F070FA0546944906F0E0F80446E6
:105880009349086806F070FA0646204607F0FEFDC8
:105890000746314606F0D3F8054606F06AFA00B22C
:1058A0008C4908800846B0F900008B49884201DA2B
:1058B00008460BE08748B0F9000040F6B83188424E
:1058C00001DD084602E08348B0F900007B49096821
:1058D00008448249086008460068FFF79BFF7F493B
:1058E000086003E0754800687C490860BDE8F08105
:1058F0002DE9FC470546FFF798FF7849096842F211
:105900002832501A06F027FA0746704906F097F831
:105910000646304607F004F80190304607F0B6FD21
:105920000090002481E06E4931F9140006F013FA6A
:105930008146284606F00FFA82465DF8241006F0EC
:105940007EF88046494606F074F8074606F011FADC
:1059500000B2644921F81400084630F9140010F52B
:105960007A7F01DA60480BE05E4830F91400B0F548
:105970007A7F02DD4FF47A7002E05A4830F9140061
:10598000584921F814000A4632F9141004EB840235
:10599000564B03EB8200564AFFF72BFF0746514A4E
:1059A00032F9141004EB8402504B03EB8200504B8D
:1059B000504AFFF7EFFE07444A4A32F9141004EB4D
:1059C00084024A4B03EB8200494B4A4AFFF7A1FE8F
:1059D000384400B2484921F81400084630F9140050
:1059E0003D49884201DA08460BE0434830F914008B
:1059F00040F6B831884201DD084602E03E4830F901
:105A000014003D4921F8140004EB8401374A02EBED
:105A10008100FFF779FE074604EB8401374A02EB69
:105A200081003946FFF773FE641C022CFFF67BAF42
:105A3000BDE8FC8770B504460D468DB1244800686A
:105A4000B4EB500F01D2204602E021480068400824
:105A500004B2002C01DD204600E00020044613E0E3
:105A60001B480068844201D2204601E018480068C3
:105A700004B21448B0F8CA00A04201DA204602E09D
:105A80001048B0F8CA0004B21D48B0F900008442C2
:105A900010DD184801681B4805F0D1FF064606F0E6
:105AA00068F917490988084400B215490880084672
:105AB000B0F90040204670BDB0B9FFFFA40200203D
:105AC000A8020020C8040020DB0FC940D3023739E8
:105AD000B0020020AC02002048F4FFFFDC020020EE
