:020000040800F2
:10000000301A0020D1B3000811B4000813B400085E
:1000100015B4000817B4000819B400080000000067
:100020000000000000000000000000001BB40008F9
:100030001DB40008000000001FB400081784000869
:1000400023B4000823B4000823B4000823B4000834
:1000500023B4000823B4000823B400083B8E000832
:1000600023B4000823B4000823B4000823B4000814
:1000700023B4000823B400088D86000823B40008C8
:1000800023B4000823B4000823B4000823B40008F4
:1000900023B4000823B4000823B40008438E0008EA
:1000A00023B4000823B4000823B4000823B40008D4
:1000B0005D7F0008797F000823B40008797A000882
:1000C0009B760008897A0008817A000823B400082A
:1000D00023B4000823B40008FB88000823B40008F8
:1000E000F96E000823B4000823B40008DFF80CD030
:1000F0000BF0BCFE00480047DD190008301A002054
:10010000F0B504460E461546B4FBF5F038B1B4FB25
:10011000F5F72A4631463846FFF7F2FF0646B4FBAC
:10012000F5F005FB1040FDA1085C3070701CF0BDBF
:1001300070B505460C461646022E01DB242E00DD66
:100140000A26002D09DA2D2020703246611C6842F3
:10015000FFF7D6FF0021017006E03246214628460F
:10016000FFF7CEFF00210170204670BD10B5F5A04D
:1001700008F077FB10BD2DE9F04105460C462F46EF
:10018000264630680BF0E5F980463168424638680B
:100190000BF0E7F9BDE8F08110B50446EBA008F0DC
:1001A00060FB012000F08FFEEFA008F05AFB0A2050
:1001B00008F05CF9002008F015FA10BD10B50446EF
:1001C000EDA008F04EFB002000F048FEEDA008F086
:1001D00048FB0A2008F04AF9002008F003FA10BD95
:1001E00010B50446EBA008F03CFB2021EF480BF0D3
:1001F00085F90020EE490860EE4908702046FFF7B7
:10020000DDFF10BD2DE9F041054628460BF0A1F9B0
:10021000064600F0C4FF0746E6B9E7A008F021FB58
:10022000002400BFE94850F8240000B90DE0012087
:10023000A040384204D0E54951F8240008F011FBF1
:10024000202008F0FAFA641CECE700BFC5A008F013
:1002500008FB5BE03246DEA128460BF082F9C8B904
:10026000DDA008F0FEFA002400BFD84850F82400B2
:1002700000B909E0D54951F8240008F0F2FA20202D
:1002800008F0DBFA641CF0E700BFB6A008F0E9FA5A
:10029000BDE8F0814FF0000828782D2803D14FF0F9
:1002A00001086D1C761E002400BFC84850F82400C9
:1002B00018B9CFA008F0D5FA26E0C44850F82410A9
:1002C000324628460BF04DF9E0B9B8F1000F08D0DE
:1002D000012101FA04F000F05CFFCCA008F0C1FAA3
:1002E00007E0012101FA04F000F0E0FDCAA008F0E7
:1002F000B8FAB64951F8240008F0B3FA99A008F00A
:10030000B0FA01E0641CD0E700BF00BF00BFBFE748
:1003100070B505460024C3A008F0A3FA00BF1AE098
:1003200004EB4401C54A52F8210008F09AFA09206A
:1003300008F083FA04EB4401C04A02EB81014868EB
:1003400008F08FFA87A008F08CFA00BF08F052FA84
:100350000028FBD0641C0A2CE2D370BDFEB5054614
:1003600028460BF0F6F80646082E20D1002404E0BB
:10037000285D0BF081F82855641C082CF8D3002464
:1003800010E0295DAE480BF0DBF830B1295D2A1989
:10039000501C0BF0D5F800B903E0AAA008F061FAF0
:1003A000FEBD641C082CECD3284600F09DFCADA0DB
:1003B00008F057FA002406E0A148015DAF48005D4F
:1003C0000DF80010641C082CF6D300200DF8040072
:1003D000684608F046FA63A008F043FA00BFDFE77A
:1003E00070B5064630460BF0B4F8C5B27DB9A4A08E
:1003F00008F037FAA1496B394978491EA44A52F8E6
:10040000210008F02EFA57A008F02BFA70BD2A46FA
:100410006FA130460BF0A5F8C8B99EA008F021FAEC
:10042000002400BF9A4850F8240000B90AE0984917
:1004300051F8240008F015FA202008F0FEF9601C9D
:10044000C4B2EFE700BF47A008F00BFADEE70024D4
:1004500000BF8F4850F8240018B993A008F001FAA3
:100460001AE08B4850F824102A4630460BF079F8F1
:1004700078B9601C81496B39487091A008F0F1F996
:10048000834951F8240008F0ECF936A008F0E9F9A6
:1004900002E0601CC4B2DCE700BF00BFB6E77FB576
:1004A00004460D4600262079052815D2DFE800F025
:1004B00003060A0D1100A06806780DE0A06890F907
:1004C000006009E0A068068806E0A068B0F9006056
:1004D00002E0A068066800BF00BF0A2269463046F5
:1004E000FFF726FE684608F0BCF9ADB149A008F058
:1004F000B8F90A226946E068FFF71AFE684608F074
:10050000B0F944A008F0ADF90A2269462069FFF766
:100510000FFE684608F0A5F97FBD00003031323388
:100520003435363738394142434445464748494ACD
:100530004B4C4D4E4F505152535455565758595A93
:10054000000000000D0A23200000000052657365C2
:100550007474696E6720746F2064656661756C746D
:10056000732E2E2E0D0A00005265626F6F74696E35
:10057000672E2E2E00000000536176696E672E2EC6
:100580002E0000000D0A5265626F6F74696E672E4F
:100590002E2E00000D0A4C656176696E6720434C73
:1005A00049206D6F64652E2E2E0D0A001004002068
:1005B000000000205D020020456E61626C656420D1
:1005C00066656174757265733A2000004C00002006
:1005D0006C69737400000000417661696C61626C43
:1005E000652066656174757265733A2000000000CD
:1005F000496E76616C696420666561747572652008
:100600006E616D652E2E2E0D0A0000004469736127
:10061000626C656420000000456E61626C65642058
:1006200000000000417661696C61626C6520636F57
:100630006D6D616E64733A0D0A000000B0D200085F
:100640008CD800084D75737420626520616E792026
:100650006F72646572206F662041455452313233A7
:10066000340D0A0043757272656E7420617373698C
:10067000676E6D656E743A20000000009B040020D8
:1006800043757272656E74206D697865723A2000E8
:1006900004000020417661696C61626C65206D69BF
:1006A000786572733A200000496E76616C69642047
:1006B0006D6978657220747970652E2E2E0D0A0092
:1006C0004D697865722073657420746F2000000096
:1006D0000279052A10D2DFE802F0030407080C00B3
:1006E00000BF8368197007E000BF0AB283681A80F0
:1006F00002E08268116000BF00BF70472DE9F0473B
:1007000080464FF00009002740460AF022FF0546C8
:100710002DB1012D28D198F800002A2824D1F5A068
:1007200008F09FF800241CE004EB8400F74901EB7B
:10073000800604EB8401F54A52F8210008F091F894
:10074000F3A008F08EF829463046FFF7A8FEAFF276
:10075000EC1008F086F800BF08F04CF80028FBD039
:10076000641C452CE0D353E0EAA140460AF0D2FED7
:100770005FEA00094CD009F101096D1E48460AF0F4
:1007800009FF074600243EE004EB8400DF4901EB4B
:10079000800604EB8401DD4A52F821000AF0D9FEFC
:1007A000824604EB8400D94A52F820105246404653
:1007B0000AF0D7FE30BB04EB8400D44901EB800083
:1007C000C068B84219DC04EB840001EB80000069CA
:1007D000B84212DB39463046FFF77AFF04EB84015A
:1007E000CA4A52F8210008F03CF8CBA008F039F8CA
:1007F00000213046FFF753FE02E0CAA008F031F8AE
:10080000BDE8F087641C452CBED3D0A008F029F8C1
:1008100000BFF5E72DE9FF410746D4A008F021F815
:1008200007F015FE4FF47A71B0FBF1F60A22694623
:100830003046FFF77DFC684608F013F8CFA008F0BB
:1008400010F80A226946D2480078FFF771FC684622
:1008500008F007F8CFA008F004F80A226946D0484B
:100860000078FFF765FC684607F0FBFFCDA007F0B6
:10087000F8FF00F082FC0546CEA007F0F2FF00244E
:1008800000BFD14850F8240000B90EE00120A0407C
:10089000284204D0CC4951F8240007F0E2FF202080
:1008A00007F0CBFF601CC4B2EBE700BF012000F0F3
:1008B0004FFC48B1C5A007F0D4FFC649C64A12781C
:1008C00051F8220007F0CDFFAFF2683007F0C9FF02
:1008D000C2A007F0C6FF0A226946C4480088FFF795
:1008E00027FC684607F0BDFFC1A007F0BAFF07F07C
:1008F00096F906460A226946FFF71AFC684607F091
:10090000B0FFAFF2A03007F0ACFFBDE8FF8110B53B
:100910000446BBA007F0A5FF10BD2DE9FF41C44868
:10092000007838B90120C2490870C2A007F099FFC9
:10093000FFF71CFCCCE107F067FF0446092C01D04F
:100940003F2C69D100260027C848D0F80080C84D48
:100950000FE0C648006838B1C44829680268C54835
:100960000AF0FFFD00B103E006B92E462F4600BF96
:100970000C35BF4878308542EBD34EB300BFBB493E
:1009800030680968405CB94A39681268895C8842F5
:1009900000D01CE0B54930680968405C48B92021A6
:1009A000B24802680068401CB04B1860B1488154DE
:1009B0000DE0AE4930680968405CAE49AB4A126848
:1009C0008854AA480068401CA8490860D7E700BFBF
:1009D000A648006808B1BE4211D0A7A007F041FFA9
:1009E000354606E0286807F03CFF092007F025FFA0
:1009F0000C35BD42F6D9FFF7B9FB4FF0000806E011
:100A00009C4911F8080007F018FF08F10108974801
:100A100000688045F4D35AE19448006830B9042C4A
:100A200004D19448FFF7DCFBBDE8FF810C2C05D115
:100A300093A007F016FFFFF799FB48E18B48006889
:100A4000002836D00A2C01D00D2C32D10025AFF26F
:100A5000EC4007F006FF00208649844A126888545B
:100A6000084601900020029088480C230A22804901
:100A7000009001A80AF006FD05464DB128680AF06D
:100A800068FD7C490844461C3046A968884702E056
:100A90007FA007F0E6FE202176480AF02FFD002017
:100AA000724908606248007800B9BDE7FFF75EFB55
:100AB0000DE17F2C0ED16D480068C8B100216B4854
:100AC0000068401E694A10606A4A115479A007F014
:100AD000C8FEFCE065480068202809D2202C07DB0E
:100AE0007E2C05DC6148006818B9202C01D1EFE0AC
:100AF000EDE0E1E043757272656E742073657474A5
:100B0000696E67733A200D0A0000000028D30008C0
:100B1000203D20003D0000002073657420746F208C
:100B2000000000004552523A2056616C7565206104
:100B3000737369676E6D656E74206F7574206F6670
:100B40002072616E67650D0A000000004552523A3E
:100B500020556E6B6E6F776E207661726961626C84
:100B600065206E616D650D0A000000005379737495
:100B7000656D20557074696D653A2000207365635A
:100B80006F6E64732C20566F6C746167653A200039
:100B9000C0010020202A20302E31562028000000DD
:100BA00074010020532062617474657279290D0A02
:100BB0000000000044657465637465642073656EAD
:100BC000736F72733A200000800000204143434855
:100BD000573A200098000020120200204379636CED
:100BE000652054696D653A20000000004401002032
:100BF0002C20493243204572726F72733A200000F4
:100C00004166726F333220434C49207665727369B6
:100C10006F6E20322E302041756720203220323016
:100C20003132202F2032303A31363A343800000049
:100C30005D0200200D0A456E746572696E6720437F
:100C40004C49204D6F64652C2074797065202765B0
:100C50007869742720746F2072657475726E2C2009
:100C60006F72202768656C70270D0A000000002055
:100C7000B0D20008100400200D1B5B4B00000000E8
:100C80001B5B324A1B5B313B314800007701000897
:100C90004552523A20556E6B6E6F776E20636F6DC2
:100CA0006D616E642C20747279202768656C7027E2
:100CB0000000000008200800094801680068401C86
:100CC000074A106007484454204607F0B6FD00BFAD
:100CD00007F083FD00287FF42EAE00BFA4E60000DD
:100CE000000000201004002070B5064634460CE0D9
:100CF0002178FE480AF024FC05462DB1A01BC1B2A4
:100D0000FA482A1AFA488154641C20780028EFD146
:100D100070BD70B5BC22F749F5486B380AF0D5FBB9
:100D2000002419E0F2486B3890F8291004FB04F015
:100D30001938484300F6C4106043ED496B3991F807
:100D40002810484340F6C41190FBF1F000B2EA4984
:100D500021F81400601CC4B2062CE3DB002454E02C
:100D600004EB8402E24B6B3B93F82A30C3EB420066
:100D70000121002806DDDE4A6B3A92F82A20C2F1F2
:100D80006402D1B2002803DAD94A6B3A92F82A10E9
:100D9000D74A6B3A92F82B2000FB00F35A4301FB31
:100DA00001F392FBF3F2D24B6B3B93F82B30C3F180
:100DB00064031A4442430A2392FBF3F2CC4B6B3B8D
:100DC00093F82A300A2505FB032212B2CB4B23F8F5
:100DD0001420C74A6B3AB2F88620C54B6B3BB3F878
:100DE0008430D21AC54B33F914305A434FF47A7316
:100DF00092FBF3F2BE4B6B3BB3F884301A4412B251
:100E0000BE4B23F81420601CC4B20B2CA8DBB848DE
:100E10006B38B0F89000B6496B39B1F8921088423F
:100E200004DAB3486B38B0F8920012E0B0486B387F
:100E3000B0F89000AE496B39B1F89410884204DDE7
:100E4000AB486B38B0F8940003E0A9486B38B0F8B1
:100E50009000A7496B39A1F8900070BD70B50646A7
:100E60000AF091F834200AF09CFAA2480AF0C6F879
:100E7000042810D100240BE09D4A6B3A11599D4A79
:100E8000A0180AF05AF90546042D00D002E0241DEE
:100E9000BC2CF1D300BF0AF082F8FFF73AFF26B16D
:100EA000012214210F2001F03FFF70BD90496B39E2
:100EB000496801438E4A6B3A5160704700208C4963
:100EC0006B394860704770B505468A48067825B981
:100ED0008B480078864200D170BD894800788449EB
:100EE0006B39087003204870FFF7E8FF0220FFF716
:100EF000DDFF00207E496B390881282088721E2082
:100F0000087517208877282179486B38C1721E210F
:100F100041751721C177552101732D21817500215C
:100F200080F82010102141730F21C175072180F82E
:100F300021100B2181730021017680F822101421E9
:100F4000C173082141762D2180F823100E210174F0
:100F500014218176502180F82410462141740A2101
:100F6000C176142180F82510282181740021C174D4
:100F7000417780F827105A205D496B3981F82800A5
:100F8000412081F82900002081F82C0081F82D00F3
:100F900081F82E00322081F82A00002081F82B00F1
:100FA000002406E0002152481F3820F81410601C6D
:100FB000C4B20E2CF6DB00204D496B39C8870021E6
:100FC0004B486B38A0F84010002049496B3908861F
:100FD000002147486B3841868186002044496B399F
:100FE000888781F84200042081F843004FF4C870DC
:100FF000A1F846002A20A1F84400424888646E20E7
:1010000081F868002B2081F86900212081F86A00AE
:101010003DA0FFF769FE002035496B3981F8730068
:1010200081F87400142081F87500002081F87600A2
:1010300040F2DC50A1F8780040F24C40A1F87A0070
:1010400040F26C70A1F87C00002081F87E000A203C
:1010500081F87F00C82081F880004FF49660A1F8E5
:10106000820040F27E40A1F8840040F23A70A1F87C
:1010700086004FF47A70A1F888004FF4C870A1F888
:101080008A003220A1F88C00012081F88E0040F205
:10109000DC50A1F890004FF47F70A1F892004FF45B
:1010A000FA60A1F894000A2081F8960081F8970070
:1010B000012081F898004FF47F70A1F89A004FF456
:1010C000FA60A1F89C0040F2DC50A1F89E004FF4B9
:1010D0007F70A1F8A0004FF4FA60A1F8A20040F2DE
:1010E000DC50A1F8A4004FF4165013E08CD800088F
:1010F0009B04002000FC0108E0050020EC05002016
:10110000B0000020031414004145545231323334EE
:1011100000000000C1F8A800C820A1F8AC0014200D
:1011200081F8AE001E2081F8AF00012081F8B000E8
:101130006420A1F8B2004FF49670A1F8B4004FF407
:10114000E130C1F8B8000020FFF788FE00BFC3E619
:10115000014614480068084201D001207047002071
:10116000FCE71049096801430E4A116070470D49B8
:10117000096881430B4A116070470A48006870474C
:10118000014609484068084201D00120704700200C
:10119000FCE7054949688143034A516070470248AA
:1011A00040687047AC0000203004002070B5FC4857
:1011B00000880AF0E9FB0546FA490AF050FA0446AD
:1011C0000AF0E7FB00B2F84908800420FFF7C0FFEF
:1011D00008B103F046FB70BD2DE9F04104460D4611
:1011E000294620460BF082F80746F0490AF037FA04
:1011F00006460AF0CEFB00B2BDE8F0812DE9FE43C1
:1012000004460D4694E807008DE8070001996868D8
:101210000AF025FA0746009928680AF020FA804665
:1012200039460AF0C4F90646A1680AF015FAA0602A
:101230000199A8680AF013FA0746029928680AF08B
:101240000EFA804639460AF004FA064621680AF08A
:10125000AEF920600099A8680AF001FA07460299E1
:1012600068680AF0FCF9804639460AF0A0F906469B
:1012700061680AF09CF96060BDE8FE832DE9FF5FBC
:10128000002507F0CEF80646C9490968701A0AF029
:101290007BFB8046C7490AF0E2F90746C44806606E
:1012A00000245FE0C44931F914000AF064FB804671
:1012B00039460AF0D4F901A941F82400BF4890F852
:1012C000430000283CDDBD4991F843000AF05CFB77
:1012D000834659464FF07E500AF0F7F98246B849E6
:1012E00031F914000AF047FB514600900AF0B7F9B3
:1012F0008046B24991F843000AF046FB014600904F
:101300004FF07E500AF0E1F983464FF07E510AF02B
:10131000A3F98246AB4850F8241050460AF09FF9D2
:10132000814641460AF043F9A64941F8240051F8A4
:1013300024000AF02EFB00B2A34921F8140005E0B6
:101340009F4830F81400A04921F814009E4830F955
:1013500014009D4931F9141000FB01550420FFF7DA
:10136000F7FE641C032C9DD3642068438C490988D4
:10137000494390FBF1F501A99448FFF73FFF042092
:10138000FFF7E6FE18B101A99148FFF737FF8E4835
:10139000B0F90000002803DD8B48B0F9000003E03D
:1013A0008948B0F9000040427F49B1F900108842F5
:1013B0001ADA8548B0F90200002803DD8248B0F946
:1013C000020003E08048B0F9020040427649B1F9DA
:1013D0000010884208DA7C48B0F90400002803DDD8
:1013E00001207C49487302E000207A494873242D8B
:1013F00001DDC42D02DB7748407B90B300242EE052
:101400006E49B1F846000AF0BFFA83464FF07E51AC
:101410000AF0CDF8824651464FF07E500AF055F959
:101420008046694931F914000AF0A5FA6349009031
:10143000B1F846000AF0A8FA8346644850F8241030
:1014400058460AF00CF9824600990AF0B0F8814635
:1014500041460AF004F95D4941F82400641C032C5C
:10146000CED30420FFF774FED8B1002417E05A4908
:1014700031F914000AF07FFA8146554951F82400E9
:1014800056490AF0ECF8824649460AF090F8804640
:1014900053490AF0E4F84E4941F82400641C032C37
:1014A000E5D34A4A91681068FFF796FE4D490880D7
:1014B000464A91685068FFF78FFE4A4948800420E9
:1014C000FFF746FE00285BD0414A91683F4A5068CA
:1014D0000AF0C5F882463E4A51683C4A90680AF0D4
:1014E000BEF8834651460AF0B4F88046384A11687F
:1014F000364A90680AF0B3F88246354A9168334A12
:1015000010680AF0ACF8834651460AF0A2F881460A
:101510004146FFF761FE344908800846B0F90000F3
:101520000AF029FA81463148016848460AF03FF836
:1015300080460AF02EFA00B22B4908800846B0F91E
:1015400000000A2190FBF1F000B22749088008460C
:10155000B0F90000B42806DD08460088A0F5B47094
:1015600000B208800CE02048B0F9000010F1B40F80
:1015700006DA1D48008800F5B47000B21A490880E8
:10158000BDE8FF9F1FB50120FFF7E2FD18B103F092
:1015900024F8FFF773FE03F045F9002437E000005C
:1015A000100200207593D83EB40000204C3D0F443B
:1015B000E800002053449231FC0000203004002059
:1015C000020100200405002008010020EC04002096
:1015D000F8040020D00500200E0100200000484340
:1015E0005E06A33BCC00002058020020BC00002077
:1015F000CD4830F8140002A921F814000120FFF7AB
:10160000A7FD18B90020C94921F81400641C032C57
:10161000EED306F006FFC649086001F0AFFB06F006
:1016200000FFC3490968401A40F28A21884206D95E
:10163000C0480088401C00B2BE49088009E000BFD5
:1016400006F0EFFEBA490968401A40F28A21884242
:10165000F6D303F0E7F8002427E0B34830F814008D
:1016600002A931F81410084400B22DF814003DF915
:101670001400B14931F914100844032190FBF1F032
:1016800000B2AE4921F814003DF9140000EBD0710E
:101690004910A94A22F814100120FFF759FD18B982
:1016A0000020A24921F81400641C032CD5D340204B
:1016B000FFF766FD70B3A248007858B9A148806C66
:1016C000000C9F4908709F48806C000A48709D4834
:1016D000806C887000241AE0984830F914109A48F9
:1016E00030F914209648005D401E02FB0010401C9B
:1016F0009349095D90FBF1F000B2904921F8140084
:10170000084630F81400904921F81400641C032C9A
:10171000E2D315E08B484078012811D18748B0F911
:1017200004108A48B0F9000001EB4000032190FB4F
:10173000F1F000B28149888008468088834908809A
:101740001FBD30B5824B1B68824C2468A34200D277
:1017500030BD7F4B1B6846F2A81423447D4C2360A8
:101760007D4B7E4C246833F914207D4B1B680A2482
:1017700093FBF4F31BB2784C784D2D6824F81530A8
:101780002346764C246833F91430764C246823447D
:10179000744C2360714B1B6814332824B3FBF4F59D
:1017A00004FB15316C4B33F911306E4C2468E31A8D
:1017B0006C4C2360684B33F911306B4C2468234424
:1017C000694C236023461B689B1A2360634B1B688C
:1017D0005B1C624C236023461B68282B01D300232B
:1017E00023600023614C2380564B93F821305D4CDD
:1017F00024685D4D2D68641B6343282493FBF4F03B
:101800005A4B1B881B1A1BB2584C2380554B1B6824
:1018100003EB83035B00142493FBF4F3544C236029
:10182000544B1B682468181B002801DD034600E0A8
:1018300043420A2B11DA4D4BB3F90030002B03DD84
:101840004A4BB3F9003003E0484BB3F900305B4238
:101850000A2B02DA0023454C23803A4B5C7B5B7BEE
:101860005B005B42834204DD364B5B7B5B005B428B
:1018700009E0344B5B7B5B00834203DA314B5B7BDB
:101880005B0000E003465C43642394FBF3F3374CB6
:10189000248823441BB2354C23802346B3F90030FF
:1018A00013F1960F02DA6FF0950309E02F4BB3F9AD
:1018B0000030962B01DD962302E02C4BB3F900306B
:1018C0002A4C23801F4BDB7D4343322493FBF4F3EC
:1018D000294C248823441BB2274C23802346B3F988
:1018E0000030264CA34201DA23460BE0224BB3F929
:1018F000003047F23054A34201DD234602E01E4B84
:10190000B3F900301C4C23802346B3F900304FF468
:10191000FA7493FBF4F0154B1B8803441BB2134C71
:10192000238000BF14E70000FC000020020100201B
:10193000D800002046010020D0000020C000002078
:10194000DE00002030040020E2000020DC00002047
:101950003C010020EC00002010050020F0000020D9
:1019600014010020F4000020F8000020B600002040
:101970001C01002020010020B8000020D08AFFFFB9
:1019800070B56D48007808B1022000E000200546DF
:1019900006F01EFD401BC6B21020684908602C46A8
:1019A00007E06748B0F88610204606F002FD601C8C
:1019B000C4B2B442F5DB40F6B83006F057FD2C4611
:1019C00006E04FF47A71204606F0F3FC601CC4B2C6
:1019D000B442F6DB042006F0DAFD70BD1CB506F05B
:1019E00051FDFFF796F90020FFF76DFA5449D1F841
:1019F000B80003F0DDF90720FFF7B3FB00F0B2F801
:101A00000120FFF7BDFB8DF801000820FFF7B8FBB0
:101A100080F001008DF800004748007808B10120EF
:101A200000E000208DF80200454890F89800C0F3CF
:101A3000C0008DF803004248B0F88A00ADF80400F9
:101A40003F48B0F88C00ADF80600684606F059FB38
:101A500008B1FFF795FF3B483B4908601020374924
:101A600008600820091F086000241DE0334808387A
:101A7000006880F0100031490839086008460068A5
:101A800080F008000860192006F0F0FC4FF4805048
:101A90002E490860192006F0E9FC4FF480502B49CC
:101AA000091F0860601CC4B20A2CDFDB0820234930
:101AB000091F08601020086002F0A2FBFFF776FB08
:101AC0000220FFF75DFB08B102F05BFC0820FFF786
:101AD00057FB28B104F08DFD1D481B49086014E038
:101AE0000120FFF74DFB80B14FF48070FFF748FBFA
:101AF00020B11349D1F8A80004F093FC4FF48060A2
:101B0000FFF73EFB08B103F06FF806F08AFC1149BD
:101B100008600B484078052803D14FF4C8700E497F
:101B200008804FF47A700D49088001200C494873F1
:101B300001E001F02CFCFCE725010020140C014021
:101B4000300400209F3200085C010020140801408E
:101B500029660008400100200C0200200E0200202F
:101B6000D005002010B5F948407804280BD0F7487C
:101B70004078012807D0F5484078052803D0F3487D
:101B80004078082802D10120F14908702020FFF791
:101B9000F7FA10B10120EE490870EC48407812289D
:101BA0002DD2DFE800F02C15191A110920210D1B88
:101BB000222627282C2C2C1C0020E64908701EE029
:101BC0000120E44908701AE00220E249087016E09A
:101BD0000320E049087012E000BF00BF00BF0420EE
:101BE000DC4908700BE000BF00BF0620D94908702F
:101BF00005E000BF00BF0820D649087000BF00BF45
:101C000010BD10B5D248007800B910BDCF4840785B
:101C1000012803D0CD484078042810D1CE4800894F
:101C200081B2002006F0C5FBC8484078042812D1D4
:101C3000C948408981B2012006F0BBFB0BE0C648D1
:101C4000008881B2002006F0B4FBC348408881B20E
:101C5000012006F0AEFB00BFD7E770B50025BC48F9
:101C6000007800B10225002409E0BC4A32F81420B3
:101C700091B26219D0B206F09CFB601CC4B2B548A8
:101C800000788442F1DB70BD70B50546002404E0A5
:101C9000B24820F81450601CC4B2AE4800788442A8
:101CA000F6DBFFF7DAFF70BDF8B5AA480078032825
:101CB0004DDDAB48B0F90410AA48B0F90400002883
:101CC00003DDA848B0F9040003E0A648B0F9040019
:101CD00040426FF06302101A814210DAA148B0F955
:101CE0000400002803DD9F48B0F9040003E09D488C
:101CF000B0F9040040426FF06301081A24E09848EC
:101D0000B0F904109748B0F90400002803DD9548A5
:101D1000B0F9040003E09348B0F904004042643095
:101D200081420EDD8F48B0F90400002803DD8D48A4
:101D3000B0F9040003E08B48B0F90400404264307D
:101D400002E08748B0F9040000B2854988807F48E6
:101D5000407812287ED2DFE810F07D009200070163
:101D60004B011200FF05D50163027D009A01F302C9
:101D7000A303400407057D007D007D00C40579486C
:101D8000C18877480088084400B2744908807548C3
:101D9000C088734909884942084400B26F494880A5
:101DA0006A4890F98E006E49B1F90410484300F278
:101DB000DC506B49B1F902100844B0F57F7F02DABC
:101DC0004FF47F701FE0614890F98E006449B1F9CB
:101DD0000410484300F2DC506149B1F90210084494
:101DE000B0F5FA6F02DD4FF4FA600CE0574890F955
:101DF0008E005B49B1F90410484300F2DC505849A9
:101E0000B1F90210084400B2534908814F4890F9D3
:101E10008E005349B1F90410484300F2DC50504998
:101E2000B1F90210401AB0F57F7F02DA4FF47F70EB
:101E300021E0464890F98E004949B1F90410484321
:101E400000F2DC504649B1F90210401AB0F5FA6FC1
:101E500004DD00E073E24FF4FA600CE03B4890F9D7
:101E60008E003F49B1F90410484300F2DC503C4970
:101E7000B1F90210401A00B2374948815FE2384890
:101E8000B0F902008000032190FBF1F03549C988C8
:101E9000084400B2314908803148B0F902004000DE
:101EA0004042032190FBF1F12E48C0882C4A128851
:101EB00052421044084400B2284948802848B0F9EA
:101EC000020040004042032190FBF1F12548C28806
:101ED000234800881044084400B2204988801B48E9
:101EE000B0F89000194991F98E101D4AB2F90420FA
:101EF00001FB02001549B1F89210884203DA134839
:101F0000B0F892001EE01148B0F890000F4991F926
:101F10008E10134AB2F9042001FB02000B49B1F8FC
:101F20009410884203DD0948B0F894000AE007489D
:101F3000B0F89000054991F98E10094AB2F90420D1
:101F400001FB020000B20449088197E73004002039
:101F5000250100202401002026010020600500202A
:101F6000D6010020C4010020FE48C0880146FE487A
:101F700040880144FD4890F98E00FB4A9288504306
:101F80004042084400B2FA490880F648C088F64941
:101F90000988494208440146F44890F98E00F24A03
:101FA000928800FB021000B2F1494880ED48C188D8
:101FB000ED48008808440146EC4890F98E00EA4A52
:101FC000928800FB021000B2E9498880E548C08889
:101FD000E549498849420144E44890F98E00E24AC3
:101FE000928850434042084400B2E149C88045E726
:101FF000DC48C088DC49098849420144DA48408805
:102000000144DA4890F98E00D74A92885043404202
:10201000084400B2D6490880D248C088D24909880D
:1020200049420844D049498849420144CF4890F97F
:102030008E00CD4A928800FB021000B2CC49488045
:10204000C848C188C84800880144C748408801443E
:10205000C64890F98E00C44A928800FB021000B274
:10206000C3498880BF48C188BF4800880844BE492A
:10207000498849420144BD4890F98E00BA4A928885
:1020800050434042084400B2B949C880F6E6B5481A
:10209000C0880146B44840880144B44890F98E0095
:1020A000B14A928850434042084400B2B049088087
:1020B000AC48C088AC49098849420844AA494988C3
:1020C0004942084400B2AA494880A648C08801464F
:1020D000A54840880144A54890F98E00A24A9288FC
:1020E00000FB021000B2A24988809E48C1889E4829
:1020F000008808449C4949884942084400B29C49E8
:10210000C880BBE69848B0F902008000032190FB2C
:10211000F1F09449C9880144944890F98E00924A9C
:10212000928800FB021000B2914908808E48B0F9F5
:10213000020040004042032190FBF1F08949C98828
:10214000894A1288524211440144884890F98E000D
:10215000854A928850434042084400B284494880EE
:102160008148B0F9020040004042032190FBF1F2A7
:102170007C48C1887C480088084411187B4890F945
:102180008E00794A928850434042084400B2784910
:1021900088807548B0F902008000032190FBF1F0BF
:1021A0007049C9880144714890F98E006E4A92883E
:1021B00050434042084400B26D49C8806A48B0F9B3
:1021C000020040004042032190FBF1F06549C988BC
:1021D000654A1288524211440144644890F98E00C5
:1021E000614A928800FB021000B2614908815E4892
:1021F000B0F9020040004042032190FBF1F1594840
:10220000C2885948008810440144584890F98E000B
:10221000554A928800FB021000B2554948818EE071
:10222000514AB2F90020514201EBD1724D4BDB888B
:1022300003EB62034C4AB2F9020000EBD07203EBED
:1022400062034A4A92F98E20474EB68802FB063254
:1022500012B2474B1A80444AB2F90020514201EBB6
:10226000D172404BDB8803EB62023F4BB3F9023083
:10227000584200EBD07302EB63033C4A92F98E2084
:10228000394EB688724352421A4412B2384B5A80C1
:10229000354AB2F9001001EBD172324BDB8803EB07
:1022A0006203314AB2F9020000EBD07203EB620321
:1022B0002E4A92F98E202C4EB68802FB063212B2BC
:1022C0002B4B9A80284AB2F9001001EBD172254BB2
:1022D000DB8803EB6202244BB3F90230584200EB77
:1022E000D07302EB6303214A92F98E201E4EB6880A
:1022F000724352421A4412B21D4BDA801948C08808
:102300001949498849420144184890F98E00164AF3
:10231000928800FB021000B2194608811148C0885B
:102320000146114840880144104890F98E000E4A39
:10233000928850434042084400B219464881AEE3B7
:102340000948B0F9000080004042052190FBF1F0FF
:102350000449C98808440449B1F9021001EBC101DC
:102360000A2207E0C4010020D6010020300400202A
:102370006005002091FBF2F10144F74890F98E00CE
:10238000F64A928800FB021000B2F5490880F34833
:10239000B0F9000080004042052190FBF1F0F149C6
:1023A000C9880844ED49B1F90210494201EBC10165
:1023B0000A2291FBF2F10144E74890F98E00E74AC6
:1023C000928800FB021000B2E5494880E348B0F96A
:1023D00000008000052190FBF1F0E249C988084423
:1023E000DE49B1F9021001EBC1010A2291FBF2F1C1
:1023F0000144D94890F98E00D84A9288504340420F
:10240000084400B2D6498880D448B0F90000800062
:10241000052190FBF1F0D349C9880844CF49B1F9AF
:102420000210494201EBC1010A2291FBF2F1014481
:10243000C94890F98E00C94A9288504340420844E6
:1024400000B2C749C880C548B0F9000080004042CA
:10245000052190FBF1F0C349C98808440146BE48F4
:1024600090F98E00BD4A928850434042084400B221
:10247000BB490881B948B0F900008000052190FBF4
:10248000F1F0B849C98808440146B34890F98E0074
:10249000B24A928800FB021000B2B1494881FEE2C4
:1024A000B048C088AD49098849420144AB484088DA
:1024B0000144A94890F98E00A84A928850434042AE
:1024C000084400B2A6490880A648C088A3490988E4
:1024D00049420844A1494988494201449E4890F92B
:1024E0008E009E4A928800FB021000B29C494880F0
:1024F0009C48C18899480088014498484088014414
:10250000954890F98E00954A928800FB021000B21F
:10251000934988809348C1889048008808448F492F
:102520004988494201448C4890F98E008B4A928830
:1025300050434042084400B28949C8808948C08855
:1025400086490988494201448448408801448248B8
:1025500090F98E00814A928800FB021000B28049F7
:1025600008818048C0887D490988494208447B49E0
:10257000498849420144784890F98E00774A928808
:1025800050434042084400B2754948817548C188AB
:102590007248008801447148408801446E4890F9AF
:1025A0008E006E4A928850434042084400B26C4903
:1025B00088816C48C188694800880844674949880F
:1025C00049420144644890F98E00644A928800FBB5
:1025D000021000B26249C88161E26048B0F90000AF
:1025E000C0EBC0000A2190FBF1F05E49C9880844A5
:1025F0005A49B1F90210A1EBC1010A2291FBF2F193
:102600000144554890F98E00544A928800FB02100C
:1026100000B2534908805148B0F90000A0EBC00057
:102620000A2190FBF1F04F49C98808444B49B1F9A0
:102630000210A1EBC1010A2291FBF2F101444648CC
:1026400090F98E00454A928800FB021000B244497E
:1026500048804248B0F90000A0EBC0000A2190FB7E
:10266000F1F04049C98808443C49B1F90210C1EB76
:10267000C1010A2291FBF2F10144374890F98E0022
:10268000364A928800FB021000B2354988803348F0
:10269000B0F90000C0EBC0000A2190FBF1F0314915
:1026A000C98808442D49B1F90210C1EBC1010A22C1
:1026B00091FBF2F10144284890F98E00274A928854
:1026C00000FB021000B22649C8802648C088234972
:1026D000498849420144204890F98E001F4A928857
:1026E00050434042084400B21D4908811D48C0883B
:1026F0001A490988494208440146174890F98E0052
:10270000164A928850434042084400B21449488116
:102710001448C08801461148408801440E4890F989
:102720008E000E4A928850434042084400B20C4941
:1027300088810C48C1880948008808440146064839
:1027400090F98E00054A928850434042084400B2F6
:102750000349C881A3E1000030040020D601002015
:1027600060050020C4010020FE49CA88FE4909888E
:102770001144FD4AB2F90220504200EBD07201EB45
:102780006202FA4991F98E10F74B9B8801FB0321F5
:1027900009B2F74A1180F449B1F90010484200EB40
:1027A000D071F04AD28802EB6101EF4A528852425E
:1027B0000A44EE4991F98E10EB4B9B8801FB0321F3
:1027C00009B2EB4A5180E749C988E74A1288524268
:1027D0000A44E549B1F9020000EBD07102EB610255
:1027E000E24991F98E10E04B9B8801FB032109B26D
:1027F000DF4A9180DC49B1F9000000EBD071D94A81
:10280000D28802EB6102D84949880A44D74991F934
:102810008E10D54B9B8801FB032109B2D44AD1808D
:10282000D149B1F9000000EBD071CE4AD28802EB59
:102830006101CD4A528852420A44CC4991F98E1026
:10284000C94B9B8859434942114409B2C84A118176
:10285000C449C988C44A128852421144C24AB2F9D2
:102860000220504200EBD07201EB6202BF4991F9A5
:102870008E10BD4B9B8859434942114409B2BC4A52
:102880005181B949B1F90010484200EBD071B54A05
:10289000D28802EB6102B44949880A44B34991F9EC
:1028A0008E10B14B9B8859434942114409B2B04A3A
:1028B0009181AC49CA88AC4909880A44AA49B1F94E
:1028C000020000EBD07102EB6102A84991F98E1071
:1028D000A54B9B8859434942114409B2A44AD1816E
:1028E000DDE0A048C08801469F48408801449F48D9
:1028F00090F98E009C4A928800FB021000B29C491D
:1029000008809848C08898490988494208449649EF
:1029100049884942084400B2954948809148C08896
:102920000146914840880144904890F98E008E4AB3
:10293000928850434042084400B28D4988808948BB
:10294000C188894800880844874949884942084421
:1029500000B28749C880A2E0844B93F99630854E37
:10296000B6F9026003FB06F2D31702EB13737F4E36
:10297000B6F89E6006EB23137A4EB6F90260334434
:102980007A4EB6F89A60B34203DA784BB3F89A30CD
:1029900030E0764B93F99630764EB6F9026003FB41
:1029A00006F1CB1701EB1373704EB6F89E6006EB81
:1029B00023136C4EB6F9026033446C4EB6F89C603B
:1029C000B34203DD694BB3F89C3013E0674B93F9D6
:1029D0009630684EB6F9026003FB06F0C31700EBB1
:1029E0001373624EB6F89E6006EB23135D4EB6F984
:1029F000026033441BB2604E33805C4B93F99730D6
:102A00005C4EB6F9006003FB06F2D31702EB1373BA
:102A1000564EB6F8A46006EB2313524EB6F900608A
:102A20003344524EB6F8A060B34203DA4F4BB3F8CA
:102A3000A03030E04D4B93F997304E4EB6F9006020
:102A400003FB06F1CB1701EB1373484EB6F8A460F5
:102A500006EB2313434EB6F900603344434EB6F8F9
:102A6000A260B34203DD414BB3F8A23013E03F4B09
:102A700093F997303F4EB6F9006003FB06F0C31799
:102A800000EB1373394EB6F8A46006EB2313354EF2
:102A9000B6F9006033441BB2374E738000BF00BFED
:102AA0002020FEF76DFB00286DD0002000902F48FD
:102AB00090F8980010F0010F05D12C4890F898007C
:102AC00010F0020F08D02D4880892849B1F87810FD
:102AD000401A80B2ADF80000244890F8980010F039
:102AE000040F08D12548C0892049B1F87810401A50
:102AF00080B2ADF802001D48B0F89E00BDF800108D
:102B0000084400B21C4908801848B0F8A400BDF879
:102B10000210084400B2184948801948C07888B3A8
:102B2000124991F99610134AB2F9022001FB02F002
:102B3000C11700EB1171104A128802EB211109B282
:102B40000D4A1180094991F997100A4AB2F90020FB
:102B500001FB02F0C11700EB1171074A528802EB2A
:102B6000211111E0C4010020D60100203004002012
:102B700060050020CC000020260100204C01002030
:102B80000206002003E03FE009B2614A518060483C
:102B9000B0F900005F49B1F89A10884203DA5D4845
:102BA000B0F89A000EE05A48B0F900005949B1F85F
:102BB0009C10884203DD5748B0F89C0002E054485E
:102BC000B0F9000000B2524908800846B0F902008E
:102BD0005049B1F8A010884203DA4E48B0F8A0007E
:102BE0000EE04B48B0F902004A49B1F8A210884201
:102BF00003DD4848B0F8A20002E04548B0F9020001
:102C000000B24349488000BF424890F8980010F055
:102C1000080F0DD0002409E0221D3F4B33F812208D
:102C200091B2A21DD0B205F0C4FB641C042CF3D3F6
:102C30003A48B0F90050012408E0384830F914004F
:102C4000A84202DD354830F91450641C344800783D
:102C50008442F2D3002455E02E48B0F88600A84202
:102C60000BDA2E4830F814002A49B1F88610691A98
:102C7000401A00B2294921F81400284830F91400FC
:102C80002449B1F88410884203DA2248B0F884005D
:102C90000EE0224830F914001E49B1F8861088422F
:102CA00003DD1C48B0F8860002E01C4830F914002F
:102CB00000B21A4921F814001748B0F90600154966
:102CC000B1F87A10884212DA1020FEF759FA38B9B2
:102CD0001048B0F8840000B2104921F8140006E052
:102CE0000C48B0F8880000B20C4921F814000D48D7
:102CF000407830B90748B0F8880000B2074921F899
:102D00001400641C064800788442A5D3F8BD000076
:102D100026010020300400204C0100206005002026
:102D200024010020D00500202DE9F04104460D4685
:102D3000164600271EE04FF0000814E0FE48006829
:102D400080F00800FC4908608814FC4908602846A7
:102D500005F08CFB4FF48050F849091F086008F11A
:102D6000010000F0FF08A045E8DB3C2005F07EFBF9
:102D7000781CC7B2B742DEDBBDE8F0812DE9F04F29
:102D800087B04FF00008EE48B0F9060040F2DC5181
:102D9000884201DA64271CE0E948B0F90600B0F582
:102DA000FA6F10DAE74890F82E00E549B1F90610FD
:102DB000A1F2DC5148434FF4FA7190FBF1F0C0F1FD
:102DC0006400C7B205E0DF4890F82E00C0F164004F
:102DD000C7B20024BFE0DA4830F91400D949B1F88D
:102DE0007810401A002807DDD54830F91400D5497D
:102DF000B1F87810401A06E0D248B0F87800D0490F
:102E000031F91410401AB0F5FA7F18DACC4830F9CD
:102E10001400CC49B1F87810401A002807DDC848E2
:102E200030F91400C749B1F87810401A09E0C548D4
:102E3000B0F87800C24931F91410401A01E04FF49B
:102E4000FA7085B2022C40D0BE4890F8730058B199
:102E5000BC4890F87300A84205DABA4890F87300AD
:102E6000281A85B200E00025642095FBF0F086B2B8
:102E7000B549701C31F9100031F91610401A06EBF3
:102E8000C60101EB0611A5EB81014843642190FBCB
:102E9000F1F0AD4931F81610084400B2AB4921F801
:102EA0001400A84890F82C0068434FF4FA7190FB86
:102EB000F1F0C0F1640000F0FF0A0AFB07F06421A2
:102EC00090FBF1F000F0FF0A1FE09E4890F87400BC
:102ED00058B19C4890F87400A84205DA994890F8D7
:102EE0007400281A85B200E0002528B2974921F81D
:102EF0001400944890F82D0068434FF4FA7190FB49
:102F0000F1F0C0F1640000F0FF0A8E480A30005D65
:102F100000FB0AF0642190FBF1F08D4908558948C7
:102F20001E30005D00FB0AF0642190FBF1F089493E
:102F30000855834830F914008249B1F87810884266
:102F400007DA824830F81400404200B27F4921F885
:102F50001400601CC4B2032CFFF63DAF7848B0F9F2
:102F600006007849B1F87A10884203DA7548B0F85B
:102F70007A000BE07248B0F90600B0F5FA6F02DD96
:102F80004FF4FA6002E06E48B0F9060085B26D4871
:102F9000B0F87A00281A4FF47A7148436949B1F8B9
:102FA0007A10C1F5FA61B0FBF1F085B2642095FBAF
:102FB000F0F086B26849701C31F9100031F9161032
:102FC000401A06EBC60101EB0611A5EB810148434F
:102FD000642190FBF1F0604931F81610084400B20A
:102FE0005A49C8805D48407A002855D05C49B1F9FB
:102FF00000105C4AB2F90020881A08F0BCFC5A495B
:10300000029008F02CFB8346584908F05EFB0690BE
:10301000069809F095FA059006980AF047F804908A
:103020004A49B1F9000008F0A6FC0090049908F0A4
:1030300016FB83464549B1F9020008F09CFC00905C
:10304000059908F00CFB5946019008F0B0FA02907F
:1030500008F09FFC00B203903C49B1F9020008F06F
:103060008AFC0090049908F0FAFA38490290B1F904
:10307000000008F080FC0090059908F0F0FA01903B
:10308000029908F0E6FA834608F083FC00B22F4963
:1030900008800398488000BF0220FEF771F8E8B36B
:1030A00033480078401CC0B231490870062190FBBB
:1030B000F1F201FB120060BB03F055FE2D4991F8BF
:1030C00000B00978491C2B4A11704FEAEB710BEBE9
:1030D0005171C910ABEBC101274A22F811004FF022
:1030E000000909E0244830F8190040441FFA80F82C
:1030F00009F1010000F0FF09B9F1080FF2DBC34646
:103100004FEAE87108EB5171C81001F01CF91B4936
:1031100008701A4800781A49098800E037E08842A8
:1031200006DC084890F86A001449097888422BDDCB
:103130000020144908702AE00C0C014014080140DA
:103140004C01002030040020E0050020C4010020D4
:10315000CC010020D2010020EC050020D005002089
:1031600058020020BE010020DB0F4940000034431C
:103170007D0100207E01002070050020C00100209C
:10318000080200207C0100200420F7490870F6485E
:10319000007803F03CFBF5480088002803DD01209F
:1031A000FDF7D6FF18B9F2480088002806DDF1487F
:1031B000006880F00800EF4908601BE0EE48C07826
:1031C00018B10820EB49091D0860EB48407818B198
:1031D0000820E849083108604FF40060FDF7D0FF8F
:1031E00040B1E549497809B1012100E000210846D4
:1031F00003F0F4FC8020FDF7C3FF70B1DF480068E6
:10320000DF490968884208D9DC4800684CF250312F
:103210000844DB49086005F0A5FBD8480068D94997
:103220000968884215D9D448407B78B90020D24932
:10323000C870D048006880F00800CE490860CF48C8
:103240000068D1490844CF49086002E00120CA491A
:10325000C87002F0ADF81020FDF77AFFA8B1C7489A
:103260000068CA49096888420FD9C948007805280A
:103270000BDBC2480068C7490844C4490860BD4820
:10328000006880F01000BB490860C348C06818B1EE
:10329000C148C168C148884707B0BDE8F08F70B524
:1032A0000546BF49485D05F08DF8044640F2EE2022
:1032B000844203DB40F6CA00844203DDB8486B3821
:1032C000B0F87840204670BD70B5B6480078401C14
:1032D000B4490870002457E02046B349096888477C
:1032E00000B2B0490E78F11706EB91718910A6EB88
:1032F0008101AE4A02EBC40222F811000020AC4961
:1033000021F8140000250EE0A84800EBC40030F8B6
:103310001500A74931F81410084400B2A44921F857
:103320001400681CC5B2042DEEDBA14931F914105C
:10333000881CC11700EB917189109D4A22F8141066
:10334000104630F914109B4830F91400C01E814219
:1033500007DA104630F81400801C00B2954921F8B5
:103360001400934830F91410924830F91400C01C2E
:10337000814207DD8E4830F81400801E00B28D496E
:1033800021F81400601CC4B2082CA5DB70BD2DE927
:10339000F04F89B00020079003F043F908B1FFF720
:1033A00093FF764800688449096888427ED973484B
:1033B000006844F6206108447F4908600820FDF752
:1033C000DFFE08B9FFF780FF4FF40070FDF7D8FE6D
:1033D000002854D072486B3890F87F0000EB8000D2
:1033E0007649B1F90010884231DA6348407870B309
:1033F000002509E06A486B38B0F8780000B26D49E2
:1034000021F81500681CC5B2032DF3DB64486B3846
:10341000B0F8820000B26749C88061486B3890F804
:103420007F005F496B3991F88010084400EB800001
:103430006249B1F90010884203DA00204E49487011
:1034400008705F480088401C00B25D4908805448FD
:103450006B3890F87F0000EB80005849B1F90010FC
:10346000884206DA4448407818B90020424948703A
:10347000087052480088401C00B2504908804D48EE
:10348000B0F9060046496B39B1F87A1088426ADA19
:1034900000204C490880488088804B49088048803B
:1034A0004A480078401C4949087000E03CE3414824
:1034B000B0F904003A496B39B1F87A1088421CDA45
:1034C0003C48B0F9020036496B39B1F87A108842AD
:1034D00013DA2948407880B93C48007814280BD189
:1034E0004FF47A70224908804FF48070FDF748FE4F
:1034F000002801D002F0ADFFA2E10420FDF740FE5C
:1035000080B31D48407868BB2A48B0F904002449BC
:103510006B39B1F87A1088426FDA2648B0F90200A8
:103520001F496B39B1F87C10884266DD2148B0F93B
:1035300000001B496B39B1F87C1088425DDD2348DF
:1035400000781428D8D12248008830B100202049C2
:10355000088001201F49088072E11F480088E8BBED
:1035600001203DE049E0BDE07C0100200C0200208C
:103570000E0200200C0C0140D00500203C01002070
:10358000800100207801002020A107008401002094
:10359000F4010020F049020044060020C20100208E
:1035A0009B040020880100205C0100208005002091
:1035B000C00500204C010020A80100204801002087
:1035C0004A0100209C010020A20100208901002066
:1035D0006E0100207001002006020020FFE700209D
:1035E000FE4908800846008818B10220FC4908708E
:1035F00026E10320FA49087022E1FA48B0F85600A3
:10360000002818DDF848407958B1F848007840B1F2
:103610000120F6494870F648B0F90000F5490880E5
:1036200005E0F248407810B10020F04948700020D1
:10363000F149087004E1F148B0F90400E949B1F832
:103640007A1088420CDBE74890F87E00012812D1FE
:10365000EA48B0F90000E349B1F87A1088420ADA82
:10366000E248407838B1E44800781428C0D10020FE
:10367000DE494870E4E0E148B0F90400D949B1F806
:103680007C1088420CDCDD48B0F90000D549B1F867
:103690007C10884222DDD34890F87E0001281DD19D
:1036A000D648B0F90200CF49B1F87C10884215DA4B
:1036B000CE48407890B9D248008878B9CB48C078D5
:1036C00060B1CD480078142892D10120C7494870D4
:1036D000C748B0F90000C7490880B1E00020C649DA
:1036E0000870ADE0C548B0F90600BE49B1F87C10DD
:1036F000884220DDBD48407800281CD1BF48B0F981
:103700000400B849B1F87A10884215DABB48B0F91C
:103710000200B449B1F87A1088420DDAB648007850
:10372000142803D14FF4C870B6490880B248007815
:10373000401CB149087083E0B048B0F90400A949C1
:10374000B1F87C10884214DDAC48B0F90200A549FC
:10375000B1F87A1088420CDAA7480078142802D110
:103760000120A2498873A4480078401CA24908702F
:1037700066E0A248B0F902009A49B1F87C1088428C
:1037800011DD9848B0F84000801C01B29548A0F8BF
:1037900040100120FDF762FB8020FDF7F1FC98B39B
:1037A00005F069F94CE09548B0F902008D49B1F88F
:1037B0007A10884211DA8B48B0F84000801E01B2BE
:1037C0008848A0F840100120FDF748FB8020FDF755
:1037D000D7FCC8B105F04FF932E08848B0F90000D5
:1037E0008049B1F87C1088420FDD7E48C08F801C74
:1037F00000B27C49C8870120FDF730FB8020FDF72F
:10380000BFFC08B105F037F91AE07C48B0F90000B8
:103810007449B1F87A1088420FDA7248C08F801E5E
:1038200000B27049C8870120FDF718FB8020FDF722
:10383000A7FC28B105F01FF902E000206E490870CE
:103840000420FDF79DFC10B36448008898B16748D8
:10385000407880B16948B0F906006249B1F87A1041
:10386000884208DD6048407928B9322066490880DE
:1038700000205A4908805C48007A48B163480088B3
:1038800028B96348008810B932205F4908800BE0EE
:103890005F48008840B15548407828B900205C490D
:1038A000088001205B49088000253BE0281D534922
:1038B00031F9100040F21451884201DA012000E091
:1038C000002005EB45018840291D4C4A32F91110B2
:1038D00040F21452914209DD291D484A32F9111073
:1038E00040F2A462914201DA012100E0002105EBDF
:1038F0004502521C91400843291D404A32F91110DB
:1039000040F2A462914201DD012100E0002105EBBB
:103910004502921C914008430799084380B20790E2
:10392000681CC5B2042DC1DB00250EE02D484C30CB
:1039300030F8150007990840002801DD012000E05B
:10394000002029494855681CC5B20E2DEEDB2648DB
:10395000007848B9234890F87F0000EB80002E499A
:10396000B1F9001088420EDA0120FDF7F1FB50B1E9
:103970001E48007950B9002028490880488001205D
:103980001A49087102E00020184908711648407968
:1039900010B90120154908701448007918B1102099
:1039A0001F49086003E010201D49091F086002201C
:1039B000FDF7CEFBF0B30C484078E0B30B488079BC
:1039C000C0BB012009498871164800681649086083
:1039D0001648C0881649088000202DE00602002005
:1039E000380100203004002002060020D00500200D
:1039F00058020020BE010020890100204C01002057
:103A00000E0200200C0200206C0100207201002038
:103A10006E0100207001002048010020A20100205A
:103A2000140C01401C01002020010020C4010020D2
:103A3000AC01002008E004E0FE490880FE4908804F
:103A400002E00020FD4988710420FDF781FB30B3BE
:103A5000FB48807858B1F948407958B90120F749B6
:103A60004871F848B0F90000F749088002E00020EA
:103A7000F2494871F248407A30B1F048407A30B9A2
:103A80000120EE49487202E00020EC494872EC48FF
:103A9000407B20B1EB48B0F90000EC4908801020D1
:103AA000FDF756FB88B3E548C07A70B3E848007864
:103AB00005282EDBE248807968B1E048C07968B912
:103AC0000120DE49C871E349081F02F0FEFC022014
:103AD000E149087002E00020D849C871D848C0798F
:103AE000A0B1D648007A80B90120D4490872DB48D9
:103AF0000068DB490860D94840684860091D081F14
:103B000002F0E3FC0120D449087002E00020CB4918
:103B10000872CB48007A18B10120C84988723FE08A
:103B20000020C64988723BE0CE4991F9000009782F
:103B3000491C49B2CB4A1170C11700EB9171891031
:103B4000B0EB810106D001290BD0022910D0032946
:103B500021D114E00420FDF7FBFA08B100F048FF82
:103B60001DE00220FDF7F4FA08B100F071FD16E047
:103B70000220FDF7EDFA08B1FDF7E3FD0FE00820A4
:103B8000FDF7E6FA30B101F03AF8B748B0F90000B5
:103B9000B649888003E00020B249087000BF00BF2A
:103BA00004F03FFCB2490860B248008928B10846D9
:103BB0000068B149096888427ED9AE480089AC499D
:103BC00009680844AC490860FDF7DCFC04F029FCF6
:103BD000A749086008460068A8490968401AA8492A
:103BE0000880A3480068A54908600420FDF7B0FAE2
:103BF00088B3A448B0F90400002803DDA148B0F957
:103C0000040003E09F48B0F904004042462823DA4C
:103C10008A48407900B38B4909888B4A1288891AEF
:103C200008B210F1B40F02DC00F5B47108B2B42888
:103C300002DBA0F5B47108B28049497B59B18D49C6
:103C4000897C41431E2291FBF2F18E4A9288511ADF
:103C500009B28C4A918004E07A48B0F900007A49B0
:103C600008800220FDF774FA38B37448807920B3D5
:103C70008448B0F906008449B1F90010401A0028C0
:103C800007DD8048B0F906007F49B1F90010401AFD
:103C900006E07C48B0F906007B49B1F90010081A2B
:103CA000142802DD00206549887177480088624940
:103CB0000988084400B201E077E201E07149C88058
:103CC0001020FDF745FA00280AD05C48C07910B9E9
:103CD0005A48007A10B15948007B10B902F0D2FB63
:103CE00043E15848B0F9000007F045FE67490390EA
:103CF00007F0B5FC049009F0D9F906905148B0F9E5
:103D0000000007F038FE6149039007F0A8FC04901A
:103D100008F016FC0590574890F8AF00F0B35C49E6
:103D2000B1F902105B4AB2F90220881A01F03CFC9A
:103D3000504991F8AF104942884204DA4D4890F852
:103D4000AF0040421AE05249B1F90210514AB2F9AB
:103D50000220881A01F028FC464991F8AF108842E9
:103D600003DD444890F8AF0008E04949B1F902107A
:103D7000484AB2F90220881A01F016FC45494988E0
:103D8000084400B2434948804149B1F90010414A12
:103D9000B2F90020881A01F007FC00E0A2E03549E2
:103DA00091F8AF104942884204DA324890F8AF00E7
:103DB00040421AE03649B1F90010364AB2F9002003
:103DC000881A01F0F1FB2B4991F8AF10884203DD0E
:103DD000284890F8AF0008E02D49B1F900102D4AAD
:103DE000B2F90020881A01F0DFFB2A49098808444B
:103DF00000B228490880B1F9000007F0BCFD00902E
:103E0000069907F02CFC23490290B1F9020007F053
:103E1000B2FD0090059907F022FC0190029907F08D
:103E200018FC1D49039007F050FC049007F0B1FD09
:103E300000B233E0B8000020B6000020D00500201A
:103E400002060020580200205A020020BE01002075
:103E5000F4010020E80100206A010020DC010020BC
:103E6000EC010020B401002018010020B601002060
:103E70003C01002030040020B0010020400100205F
:103E800044010020C4010020AC01002035FA8E3C22
:103E9000FE0100200202002000002041C4490880E9
:103EA000C449B1F9000007F066FD0090059907F0DC
:103EB000D6FBC0490290B1F9020007F05CFD00900A
:103EC000069907F0CCFB0190029907F070FBBA4904
:103ED000039007F0FAFB049007F05BFD01B2B448D1
:103EE000418041E0B549B1F9000007F044FD009080
:103EF000069907F0B4FBB1490290B1F9020007F04E
:103F00003AFD0090059907F0AAFB0190029907F08D
:103F1000A0FBA949039007F0D8FB049007F039FDF6
:103F200000B2A3490880A549B1F9000007F023FDBC
:103F30000090059907F093FBA0490290B1F90200A7
:103F400007F019FD0090069907F089FB019002998E
:103F500007F02DFB9849039007F0B7FB049007F09A
:103F600018FD00B29249488000BF002414E1944833
:103F70000079E8B3022C7CDA924830F914008C49BD
:103F800031F91410C1EB400010F5FA7F01DA8E48C8
:103F900015E08C4830F91400854931F91410C1EB53
:103FA0004000B0F5FA7F02DD4FF4FA7007E0854873
:103FB00030F914007E4931F91410C1EB40008349F7
:103FC00031F81410411A824830F81400084406B23F
:103FD0007F483E38407C7043642190FBF1F007B28B
:103FE0007B483E3890F82500404200EB800000E01E
:103FF0003FE0B84207DD76483E3890F82500404261
:1040000000EB80000FE072483E3890F8250000EB8E
:104010008000B84206DA6E483E3890F8250000EB82
:10402000800000E0384607466A4830F91400304402
:104030006949884201DA08460DE0664830F9140003
:10404000304442F21071884201DD084603E06148C5
:1040500030F91400304400B25E4921F814000846DB
:1040600030F914005A493E39C97E4843001308907C
:1040700050E0544830F9140000EB8000010154482E
:104080003438005D91FBF0F8544830F81400A8EB88
:1040900000000FFA80F84B4830F91470504830F99E
:1040A0001400404410F57A5F01DA4E480DE04C48A8
:1040B00030F914004044B0F57A5F02DD4FF47A50D5
:1040C00003E0474830F91400404400B2444921F865
:1040D0001400424830F91400002803DD3F4830F94D
:1040E000140003E03D4830F914004042B0F5207F51
:1040F00003DD00203A4921F81400394830F9140052
:104100007D2190FBF1F132482A38005D414388114E
:1041100000B20890314931F91410334A125D51430D
:104120000A2291FBF2F0C11700EB5171A7EBE101FC
:104130000FB22A4830F814002C4931F81410401AF4
:104140000FFA80F9254830F81400284921F81400A6
:10415000274830F81400274931F81410084448441F
:104160000FFA80FA224830F81400224921F814008E
:104170001F4820F814902048005D00FB0AF0401111
:104180000FFA80FB08983844A0EB0B0000B21B49E3
:1041900021F81400601CC4B2032CFFF6E8AEFDF752
:1041A00083FDFDF72EFDFDF758FD09B0BDE8F08F4A
:1041B000620100200202002000002041FE010020D8
:1041C000D0050020C40100200CFEFFFFCC00002021
:1041D0006E040020A2010020F0D8FFFFC0000020E4
:1041E0009C01002080C1FFFFCC0100208A0100203B
:1041F0009001002096010020D2010020D60100206D
:104200002DE9F84F0026FB49FB4804F00DFD08B1ED
:10421000012606E0F74803F096FD10B9032004F0EC
:10422000B6F900BFF54890F8420030B1012805D03A
:10423000022819D0032834D125E000BF00208DF8D2
:1042400000004FF44870ADF80200EB49684602F0F8
:1042500027FE10B10120EA490870E84890F84200B2
:10426000012800D11DE000BF66B1E249E24804F038
:10427000DBFC0220E2490870E04890F84200022886
:1042800000D10EE000BFDC4804F087FD40B1032000
:10429000DB490870D94890F84200032800D100E0BB
:1042A00000BF00BFD648007860B9D44890F84200FB
:1042B000002804DD0020D14981F84200B2E7012046
:1042C000FCF755FF03F078F810B90420FCF74FFF16
:1042D0000120FCF73DFF10B1C7490868804704F092
:1042E00088FE10B90220FCF742FFC24908688047E7
:1042F00026B9C249B1F8440003F03DFDBF48B0F90A
:104300003C00642190FBF1F004B2BC48B0F93C00E1
:1043100090FBF1F201FB1205284607F02CFB8246C8
:10432000B84907F09CF98046204607F024FB8146F7
:10433000414607F03CF90746B34907F090F9B34905
:104340000860BDE8F88F2DE9F0470446AB4991F8C5
:10435000680007F019FB8046204607F015FB8146F0
:10436000AB4907F07CF90746AA4907F0AEF90646C3
:10437000414607F074F9054607F024FB80B2BDE81A
:10438000F08770B50025002406E002F0ECFC05443F
:104390000A2004F06BF8641C202CF6D3C5F34F10F0
:1043A000FFF7D1FF0546022407E0944890F8690022
:1043B0006043A84200D902E0641C062CF5D300BF7C
:1043C00095490C708D4890F86A00604393490880C5
:1043D00070BD10B592480088002851DD00241CE013
:1043E0008F480088B0F5C87F03D100208D4941F87F
:1043F00024008C4850F824008B4931F914100844EB
:10440000884941F824000020874921F81400002140
:104410007A48303020F81410641C032CE0DB80480C
:104420000088012827D17F4800684FF4C87190FBAD
:10443000F1F000B2714908867A4840684FF4C871BB
:1044400090FBF1F001B26D484186764880684FF4E8
:10445000C87190FBF1F075490988401A01B26748AC
:10446000818600206549C88700216448A0F8401073
:104470000120FCF7F3FC6A480088401E6849088068
:104480000420FCF77DFE00287ED069480088322891
:1044900011D15A48008E674908805848408E48809C
:1044A0005648808E88805548C08F6349088053489D
:1044B000B0F8400048805E480088002846DD0024AF
:1044C0001BE05B480088322803D100205B4941F89B
:1044D00024005A4850F82400534931F91410084474
:1044E000564941F8240000204F4921F814000021CA
:1044F0004248303020F81410641C032CE1DB4C4897
:10450000008801281DD100204D49088001204D4917
:10451000088002204C4908704648008837490886C0
:1045200044484188354841864248818833488186DD
:10453000414800883149C8873F4841882F48A0F842
:1045400040103B480088401E394908803F48008899
:10455000012829D100203D490880384800683221CF
:1045600090FBF1F000B225490886344840683221BA
:1045700090FBF1F001B22148418630488068322139
:1045800090FBF1F0294900E00EE00988401A01B2E1
:104590001A48818600201949C88700211748A0F8C9
:1045A00040100120FCF75AFC1F4800881349098E6F
:1045B000401A00B21C490880084641880F48408EC6
:1045C000081A00B218494880084681880B48808E36
:1045D000081A00B21449888010BD10B50648416819
:1045E00011488847044881680F488847FFF7F1FE63
:1045F00010BD0000440600203406002030040020D6
:10460000120200208988883C00002041BC00002064
:104610003333534000F07F4574010020080200202E
:104620000C020020100600200201002010020020D1
:104630006C0100202E020020340200201C06002005
:10464000720100206E01002038010020700100205E
:104650002DE9FE4FFE480068FE490968884201D2F4
:10466000BDE8FE8FFA480068FA490860FA48007809
:1046700030B1012813D0022819D0032854D125E0E5
:1046800004F0C0FCF4480078401CF3490870F1487D
:10469000006842F210710844EE49086044E004F0FA
:1046A000D3FCED480078401CEB4908703CE004F076
:1046B000B0FCE9480078401CE7490870E54800680C
:1046C00042F210710844E34908602DE004F0A8FCB0
:1046D00004F0CEFC0290029807F04DF9DF490090FB
:1046E00006F0F3FF019007F0A0F980464FF000526A
:1046F000DB4B07F0E5FF06460022DA4B07F0C8F86F
:1047000004460022D84B07F0C6F8824607F06EF93F
:10471000D64908600020D0490870CE48006800F5EE
:104720007A60CC49086000BF00BF00BF98E710B5B1
:10473000CF480088002837DD00242EE0CC480088D0
:10474000B0F57A7F03D10020CA4941F82400C94856
:1047500050F82400C84931F914100844C54941F8FB
:1047600024000020C44921F81400C44921F8140091
:10477000BF48008801280FD1BE4850F824004FF4EC
:104780007A7190FBF1F000B2BC4921F814000122CB
:104790000F210A20FEF7C8FA641C032CCEDBB448B4
:1047A0000088401EB2490880002438E0B24830F842
:1047B0001400B24931F81410401A00B2AE4921F881
:1047C0001400084630F91410AD4830F91400A0F573
:1047D0004870814205DAAA4830F91400A0F5487003
:1047E00012E0A54830F91410A54830F9140000F57E
:1047F0004870814205DDA24830F9140000F5487088
:1048000002E09D4830F9140000B29B4921F81400E1
:10481000084630F814009A4921F81400641C032C4F
:10482000C4DB10BD10B59748416893488847954848
:10483000816891488847FFF77AFF10BD10B592480C
:1048400002F001FE90488088904908808E480088D8
:10485000404200B248808C484088404200B2888084
:1048600010BD2DE9FF5F602600250024002740F2DF
:10487000FE2840F2C929DFF818A202F0B1FD00209D
:1048800084490860486088606FE06D1C304602F023
:10489000B4FD642003F0EAFDFFF7D0FF0A2003F027
:1048A000E5FD7A49B1F9000007F065F88346404616
:1048B00007F06AF85946009006F007FF20F0004024
:1048C00001907249B1F9020007F055F88346484655
:1048D00007F05AF85946009006F0F7FE20F0004025
:1048E00002906A49B1F9000007F045F8834648464E
:1048F00007F04AF85946009006F0E7FE20F0004025
:1049000003906549019807F0B1F82ED263490198E8
:1049100007F0A2F829D26049029807F0A7F824D23C
:104920005E49029807F098F81FD25B49039807F098
:104930009DF81AD25949039807F08EF815D2641CD5
:10494000544A0199106806F032FE52490860514AF3
:104950000299506806F02BFE4E4948604D4A039973
:10496000906806F024FE4B4988601FB9142D01D2CF
:10497000052C8AD3052C2ED3204607F005F8834654
:1049800044490868514606F06AFE5946009006F010
:104990009CFE40490860204606F0F6FF83463D49EC
:1049A0004868514606F05BFE5946009006F08DFEC1
:1049B00038494860204606F0E7FF83463549886855
:1049C000514606F04CFE5946009006F07EFE3149F5
:1049D0008860012705E04FF07E502E49086048604E
:1049E000886002F01FFD01202D490870BDE8FF9F7F
:1049F00070B5174800682B490968884200D270BD1D
:104A0000134800682849084426490860FFF716FF44
:104A10001E49B1F9000006F0AEFF06461D480168C8
:104A2000304606F01CFE054606F0B3FF00B21749FB
:104A30000880B1F9020006F09EFF0646154841685D
:104A4000304606F00CFE054606F0A3FF00B22DE04E
:104A50003C010020140200201802002080E6C54717
:104A6000965BC83F0000F03F1AE950411401002056
:104A70000E02002028060020FC000020C6000020B6
:104A800038020020440600203E0200200E010020D3
:104A900059021B3F200200203333333F6666A63F96
:104AA0002C02002044020020A086010056494880C4
:104AB000B1F9040006F05FFF0646544881683046AD
:104AC00006F0CDFD054606F064FF00B24E49888031
:104AD0004F48807BD8B14F4800684F490860002498
:104AE00010E000214D4820F81410474830F8140019
:104AF0004B4921F81400444830F81400494921F882
:104B00001400641C032CECD30020414988734648F0
:104B10000078D0B13C48008840493639C98E401AE7
:104B200000B239490880084641883C483638008F31
:104B3000081A00B234494880084681883748363818
:104B4000408F081A00B23049888033480068002836
:104B500048D03048006830490968401A33498842D3
:104B600027D23348006880F00800314908600024EB
:104B70001CE0254830F91400294931F91410884205
:104B800005DA214830F81400254921F814001E48A0
:104B900030F91400234931F91410884205DD1A4810
:104BA00030F814001F4921F81400641C032CE0D3D2
:104BB00018E000201849086000240EE0184931F977
:104BC0001410184A32F91420881800EBD0714910DB
:104BD0000AB2124921F81420641C032CEED30120E0
:104BE000FCF73CF900BF0AE710B5012004F02DF9ED
:104BF0000820FCF7B6FA00200E49088010BD10B559
:104C00000C4804F08EF910BD0E0100202002002097
:104C1000D005002044020020480200206604002045
:104C20004C020020520200202C02002080C3C90147
:104C30000C0C01401801002010B50446FE490C7010
:104C40000846007803F0F9FDFC480078FA49097835
:104C50004840FA490870200AF74908700846007869
:104C600003F0EBFDF5480078F34909784840F34933
:104C70000870200CF04908700846007803F0DDFD4C
:104C8000EE480078EC4909784840EC490870200E5D
:104C9000E94908700846007803F0CFFDE74800783E
:104CA000E54909784840E549087010BD10B504464B
:104CB000E3490C700846007803F0BFFDDF48007838
:104CC000DF4909784840DD490870200ADC4908704E
:104CD0000846007803F0B1FDD8480078D849097833
:104CE0004840D649087010BD10B50446204603F070
:104CF000A4FDD24800786040D049087010BDD1486A
:104D000001780078401CCF4A1070CF48405C704753
:104D100000B5FFF7F4FF0346FFF7F1FF03EB0020B8
:104D200083B2184600BD10B5FFF7F2FF0446FFF747
:104D3000EFFF04EB0044204610BD70B504460D465D
:104D40002420FFF7D1FF4D20FFF7CEFF0CB121212A
:104D500000E03E210846FFF7C7FF0020B749087072
:104D60002846FFF7C1FFB9480078FFF7BDFF70BDC7
:104D700010B5044621460020FFF7DFFF10BD10B537
:104D8000044621460120FFF7D8FF10BD10B5AB48FF
:104D90000078FFF7A9FF10BD70B505462C4603E06B
:104DA0002078FFF7A1FF641C20780028F8D170BD9F
:104DB00010B50446204603F07CFC10BD2DE9F041FF
:104DC000A2480078732879D00DDCA0F164000F2888
:104DD00075D2DFE800F0BED1FDFCFBFAF9F8F7F67A
:104DE000F5F4F3F2F100CC287DD010DCC8281DD0FA
:104DF00006DC742874D0752873D076285FD166E2FB
:104E0000C92822D0CA2842D0CB28F7D159E0D028CF
:104E100068D006DCCD287DD0CE287CD0CF28EDD13F
:104E200093E0FA2878D0FE28E8D19AE2002406E040
:104E3000FFF76EFF00B2864921F81400641C082CAD
:104E4000F6D30020FFF794FF9DE2FFF758FF81495A
:104E5000C872FFF754FF80490870FFF764FF7F496D
:104E60000860FFF760FF7D494860FFF751FF7C490C
:104E70000880FFF74DFF7B4908807B48007840F0B1
:104E80000200794908700020FFF772FF7BE20024DE
:104E90000EE0FFF734FF75490855FFF730FF7349FF
:104EA0000A310855FFF72BFF704914310855641C6F
:104EB0000A2CEED30020FFF75BFF64E2FAE15EE22A
:104EC00011E0002406E0FFF723FF6849423121F892
:104ED0001400641C0E2CF6D30020FFF749FF52E2A9
:104EE000D3E1D9E120E2FFF70AFF60490A3981F8EE
:104EF0002800FFF704FF5D490A3981F82900FFF710
:104F0000FEFE5A490A3981F82C00FFF7F8FE57498E
:104F10000A3902E00FE216E21CE281F82D00FFF7E9
:104F2000EEFE52490A3981F82E00FFF7E8FE4F499C
:104F30000A3981F82A00FFF7E2FE4C490A3981F864
:104F40002B000020FFF714FF1DE20020FFF710FFE9
:104F500019E20720FFF70CFFD220FFF7C5FE4349F7
:104F60000A394878FFF7C0FE0020FFF7BDFE4FF07A
:104F70000040FFF761FE06E20A20FFF7F9FE3C4819
:104F8000008800B2FFF792FE02F049FE06B23046FA
:104F9000FFF78CFE0120FCF7DBF807460220FCF748
:104FA000D7F847EA40070420FCF7D2F847EA800721
:104FB0001020FCF7CDF80CE075E156E13DE115E17C
:104FC00009E100E1E7E0D2E0B3E0A4E095E086E0AB
:104FD00063E047EAC0070820FCF7BAF847EA001682
:104FE0003046FFF763FE1B4909791A4A927941EA74
:104FF0004201184A527941EA8201164A527841EA3E
:1050000042111C4AD27841EAC2011A4A127941EA95
:105010000211104AD27941EA82110E4A127A41EA0B
:10502000C2110C4A527A41EA42210A4A927A41EA72
:105030000221104A927A1FE05E02002063020020E3
:105040005F02002064020020540600206502002058
:105050004C010020D0050020F4010020DC010020DC
:10506000FA010020FC010020600100203A04002029
:10507000440100200206002041EA8221FE4AD27A41
:1050800041EAC221FC4A127B41EA0231FA4A527BD0
:1050900041EA4230FFF7D0FD75E11220FFF768FECC
:1050A000002405E0F54931F91400FFF7FFFD641C09
:1050B000032CF7D3002405E0F14931F91400FFF780
:1050C000F5FD641C032CF7D3002405E0ED4931F90C
:1050D0001400FFF7EBFD641C032CF7D353E1102001
:1050E000FFF746FE002405E0E74931F91400FFF719
:1050F000DDFD641C082CF7D345E11020FFF738FED6
:10510000002405E0E14931F91400FFF7CFFD641CEC
:10511000082CF7D337E11020FFF72AFE002405E022
:10512000DB4931F91400FFF7C1FD641C082CF7D3EB
:1051300029E10E20FFF71CFED649C87AFFF7D4FDFF
:10514000D5480078FFF7D0FDD4490868FFF774FD13
:10515000D2494868FFF770FDD148008800B2FFF7D8
:10516000A5FDD048008800B2FFF7A0FD0BE10520A7
:10517000FFF7FEFDCC48008800B2FFF797FDCB4853
:10518000B0F90000FFF792FDC949097801F001006C
:10519000FFF7AAFDF7E00820FFF7EAFD002405E08D
:1051A000C44931F91400FFF781FD641C022CF7D3C8
:1051B000C148B0F90000FFF779FDC048B0F9000020
:1051C000FFF774FDDFE00420FFF7D2FDBC48006864
:1051D000FFF732FDD7E00320FFF7CAFDB94800789A
:1051E000FFF782FD0020FFF761FDCCE00720FFF70D
:1051F000BFFDB54991F82800FFF776FDB24991F857
:105200002900FFF771FDB04991F82C00FFF76CFD04
:10521000AD4991F82D00FFF767FDAB4991F82E00DD
:10522000FFF762FDA84991F82A00FFF75DFDA64946
:1052300091F82B00FFF758FDA5E01E20FFF798FD21
:1052400000240FE0A0490A31085DFFF74DFD9E499B
:105250001431085DFFF748FD9B491E31085DFFF7DB
:1052600043FD641C0A2CEDD38DE01C20FFF780FD6C
:10527000002407E094494C3131F8141008B2FFF7CC
:1052800015FD641C0E2CF5D37DE06320FFF770FD47
:105290008E48FFF781FD76E02F20FFF769FD8C48EF
:1052A000FFF77AFD6FE00220FFF762FD0020FFF7B5
:1052B000FDFC68E00820FFF75BFD002404E0601CB3
:1052C000C0B2FFF711FD641C082CF8D35BE0FFF7B8
:1052D00016FD05460C20FFF74BFD8DB90020FFF7AA
:1052E00003FD7C490868FFF7A7FC7A494868FFF787
:1052F000A3FC0020FFF7DAFC0020FFF7F5FC12E02A
:10530000102D10D11020FFF7EFFC73490868FFF74C
:1053100093FC71494868FFF78FFC0020FFF7C6FC3B
:105320000020FFF7E1FC2EE00120FBF7CCFD002080
:10533000FFF71EFD27E04FF4C87068490880002081
:10534000FFF716FD1FE00120524988730020FFF788
:105350000FFD18E00020FBF781FD0020FFF708FD9E
:1053600011E00820FFF704FD002405E05C4931F955
:105370001400FFF79BFC641C042CF7D303E000200F
:10538000FFF7FDFC00BF00BFFFF700FDBDE8F081A7
:1053900010B50446232C02D0522C07D102E0FBF7B3
:1053A000BCFA03E0012003F01DF900BF00BF10BDEF
:1053B00010B54C48007810B1FBF7AFFA10BDCDE046
:1053C00003F022FA04464848007870B9242C01D131
:1053D000012000E0002044490870084600780028B9
:1053E00002D12046FFF7D4FFB7E03F4800780128FC
:1053F00007D14D2C01D1022000E000203A4908706D
:10540000ABE039480078022807D13C2C01D10320B9
:1054100000E00020344908709FE0334800780328FA
:105420001AD1402C03DD00202F49087096E02F4848
:10543000047000202E4908702E4908702E4908700B
:105440002C48007860402B490870042026490870D9
:1054500001202A49087080E023480078042851D1AF
:1054600027480470234800786040224908700520CE
:105470001D49087071E000000206002008010020AC
:10548000C00000200E010020260100206005002041
:105490004C010020D0050020F4010020DC01002098
:1054A000FA010020FC010020F6010020F801002094
:1054B00060010020CC00002058020020BE01002026
:1054C0001C010020C00100203004002095D80008F5
:1054D000F9D80008E4010020EC0100200C020020B3
:1054E000B60100205D02002062020020610200205F
:1054F0006002002063020020640200205C020020A1
:105500006502002021480078052813D12048007842
:105510002049097888420DDA1F48007860401E490A
:1055200008701B4801780078401C194A10701B480D
:10553000445412E01548007805280ED1144800782C
:1055400014490978884208DB13480078A04201D149
:10555000FFF734FC00200D49087000BF03F03DF94F
:1055600000287FF42DAF0E48007868B903F035F9B4
:1055700050B94FF40060FBF703FE28B109484078AA
:1055800010B101F03FFB19E700BF17E762020020EE
:105590006002002061020020630200205406002007
:1055A0005D020020D005002044F25061884201DDF8
:1055B000A0EB4100FA49884202DA48F6A0410844CB
:1055C000704700B5F7480068F7490968421A104665
:1055D000FFF7EAFF0246002A01DD104600E05042D4
:1055E00042F21071884201DD012000BD0020FCE77D
:1055F000014608687047016070472DE9FE4F044678
:105600000E4615461F466168701A06F0B4F98046CA
:10561000296806F05AF82061A168206906F019F897
:10562000E249029091F8AE0006F0AEF9E049009030
:1056300006F015F8014601904FF07E5006F045F84F
:105640008346296805F0B3FF82465146286806F074
:105650003CF88146029906F002F88046A16805F000
:10566000A6FF206166602069A0602169B86805F026
:10567000F6FF804606F08DF9BDE8FE8F2DE9F04774
:1056800004460E4617461D46304606F074F982461B
:10569000696805F0E4FF8146396805F0E0FF80465F
:1056A000216805F084FF2060E86880F000484046EB
:1056B000216806F0DBF904D2E86880F00040206041
:1056C00006E0E968206806F0D1F901D2E8682060B8
:1056D000206806F05EF9BDE8F0872DE9F0418046CC
:1056E0000C461546204606F046F90746296805F09F
:1056F000B6FF064606F04DF9BDE8F08148F6A04138
:10570000884200DD401A002802DA48F6A041084429
:1057100070472DE9F041A3490968A34A1268881A25
:10572000FFF742FF002807DD9E4909689E4A12687C
:10573000881AFFF739FF07E09A4909689A4A126800
:10574000881AFFF731FF404241F2941188423DDA56
:1057500094490968944A1268881A06F00CF90546BB
:10576000944905F07CFF04469349086806F00CF95B
:105770000646204607F09AFC0746314605F06FFFC3
:10578000054606F006F900B28C4908800846B0F9D3
:1057900000008B49884201DA08460BE08748B0F9DF
:1057A000000040F6B831884201DD084602E0834837
:1057B000B0F900007B49096808448249086008463E
:1057C0000068FFF79BFF7F49086003E075480068A9
:1057D0007C490860BDE8F0812DE9FC470546FFF7EC
:1057E00098FF7849096842F22832501A06F0C3F847
:1057F0000746704905F033FF0646304606F0A0FE26
:105800000190304607F052FC0090002481E06E4980
:1058100031F9140006F0AFF88146284606F0ABF8DF
:1058200082465DF8241005F01AFF8046494605F0CF
:1058300010FF074606F0ADF800B2644921F81400E5
:10584000084630F9140010F57A7F01DA60480BE061
:105850005E4830F91400B0F57A7F02DD4FF47A70BB
:1058600002E05A4830F91400584921F814000A4659
:1058700032F9141004EB8402564B03EB8200564AB3
:10588000FFF72BFF0746514A32F9141004EB84024C
:10589000504B03EB8200504B504AFFF7EFFE07449A
:1058A0004A4A32F9141004EB84024A4B03EB82009B
:1058B000494B4A4AFFF7A1FE384400B2484921F853
:1058C0001400084630F914003D49884201DA0846C0
:1058D0000BE0434830F9140040F6B831884201DD4E
:1058E000084602E03E4830F914003D4921F8140012
:1058F00004EB8401374A02EB8100FFF779FE07468B
:1059000004EB8401374A02EB81003946FFF773FE4E
:10591000641C022CFFF67BAFBDE8FC8770B5044623
:105920000D468DB124480068B4EB500F01D22046DB
:1059300002E021480068400804B2002C01DD204646
:1059400000E00020044613E01B480068844201D2B6
:10595000204601E01848006804B21448B0F8B200CC
:10596000A04201DA204602E01048B0F8B20004B2CA
:105970001D48B0F90000844210DD184801681B483A
:1059800005F06DFE064606F004F81749098808443C
:1059900000B2154908800846B0F90040204670BDA5
:1059A000B0B9FFFFA4020020A802002030040020AC
:1059B000DB0FC940D3023739B0020020AC0200200F
:1059C00048F4FFFFDC020020680200209002002063
:1059D00018FCFFFF24070020C406002088020020D6
:1059E000FE010020FC060020B40200200000C84296
:1059F0002DE9F04700247DE0FA4A52F8241004EB28
:105A00008402F94B03EB8200F84AFFF766FE8146F9
:105A1000F74830F81400A9EB000000B2F54921F86E
:105A200014000A4632F9141004EB8402F24B03EB23
:105A30008200F24AFFF751FE0746EE4A32F914207F
:105A4000E84B53F82430D11804EB8402EA4B03EB03
:105A50008200EA4BEA4AFFF711FE8046E14A52F81B
:105A6000241004EB8402E44B03EB8200E34BE44A92
:105A7000FFF7C3FD054615F5FA6F01DAE14806E0C8
:105A8000B5F5FA6F02DD4FF4FA6000E028460546EE
:105A9000D74830F91400002803DDD54830F9140048
:105AA00003E0D34830F914004042322800DA0025E0
:105AB00007EB08004619D448864200DA05E040F6B4
:105AC000B830864200DD00E0304600B2CF4921F810
:105AD000140004EB8401C84A02EB8100FFF788FD43
